{
	"storage-factory/contracts/FundMe.sol": {
		"FundMe": {
			"abi": [
				{
					"inputs": [],
					"stateMutability": "nonpayable",
					"type": "constructor"
				},
				{
					"inputs": [],
					"name": "MINIMUM_USD",
					"outputs": [
						{
							"internalType": "uint256",
							"name": "",
							"type": "uint256"
						}
					],
					"stateMutability": "view",
					"type": "function"
				},
				{
					"inputs": [
						{
							"internalType": "address",
							"name": "",
							"type": "address"
						}
					],
					"name": "addressToAointFunded",
					"outputs": [
						{
							"internalType": "uint256",
							"name": "",
							"type": "uint256"
						}
					],
					"stateMutability": "view",
					"type": "function"
				},
				{
					"inputs": [],
					"name": "fund",
					"outputs": [],
					"stateMutability": "payable",
					"type": "function"
				},
				{
					"inputs": [
						{
							"internalType": "uint256",
							"name": "",
							"type": "uint256"
						}
					],
					"name": "funders",
					"outputs": [
						{
							"internalType": "address",
							"name": "",
							"type": "address"
						}
					],
					"stateMutability": "view",
					"type": "function"
				},
				{
					"inputs": [],
					"name": "i_owner",
					"outputs": [
						{
							"internalType": "address",
							"name": "",
							"type": "address"
						}
					],
					"stateMutability": "view",
					"type": "function"
				},
				{
					"inputs": [],
					"name": "withdraw",
					"outputs": [],
					"stateMutability": "nonpayable",
					"type": "function"
				}
			],
			"devdoc": {
				"kind": "dev",
				"methods": {},
				"version": 1
			},
			"evm": {
				"assembly": "    /* \"storage-factory/contracts/FundMe.sol\":280:2824  contract FundMe {... */\n  mstore(0x40, 0xa0)\n    /* \"storage-factory/contracts/FundMe.sol\":729:780  constructor() {... */\n  callvalue\n  dup1\n  iszero\n  tag_1\n  jumpi\n  0x00\n  dup1\n  revert\ntag_1:\n  pop\n    /* \"storage-factory/contracts/FundMe.sol\":763:773  msg.sender */\n  caller\n    /* \"storage-factory/contracts/FundMe.sol\":753:773  i_owner = msg.sender */\n  0xffffffffffffffffffffffffffffffffffffffff\n  and\n  0x80\n  dup2\n  0xffffffffffffffffffffffffffffffffffffffff\n  and\n  dup2\n  mstore\n  pop\n  pop\n    /* \"storage-factory/contracts/FundMe.sol\":280:2824  contract FundMe {... */\n  mload(0x80)\n  codecopy(0x00, dataOffset(sub_0), dataSize(sub_0))\n  0x00\n  assignImmutable(\"0x606503ebd6bdca7290248af82fd5a09ca0489398da9f242244210336ae6ece9f\")\n  return(0x00, dataSize(sub_0))\nstop\n\nsub_0: assembly {\n        /* \"storage-factory/contracts/FundMe.sol\":280:2824  contract FundMe {... */\n      mstore(0x40, 0x80)\n      jumpi(tag_1, lt(calldatasize, 0x04))\n      shr(0xe0, calldataload(0x00))\n      dup1\n      0x3ccfd60b\n      eq\n      tag_2\n      jumpi\n      dup1\n      0x6b69a592\n      eq\n      tag_3\n      jumpi\n      dup1\n      0xb60d4288\n      eq\n      tag_4\n      jumpi\n      dup1\n      0xb8ee3585\n      eq\n      tag_5\n      jumpi\n      dup1\n      0xdba6335f\n      eq\n      tag_6\n      jumpi\n      dup1\n      0xdc0d3dff\n      eq\n      tag_7\n      jumpi\n    tag_1:\n      0x00\n      dup1\n      revert\n        /* \"storage-factory/contracts/FundMe.sol\":1655:2448  function withdraw() public onlyOwner {... */\n    tag_2:\n      callvalue\n      dup1\n      iszero\n      tag_8\n      jumpi\n      0x00\n      dup1\n      revert\n    tag_8:\n      pop\n      tag_9\n      tag_10\n      jump\t// in\n    tag_9:\n      stop\n        /* \"storage-factory/contracts/FundMe.sol\":410:457  uint256 public constant MINIMUM_USD = 50 * 1e18 */\n    tag_3:\n      callvalue\n      dup1\n      iszero\n      tag_11\n      jumpi\n      0x00\n      dup1\n      revert\n    tag_11:\n      pop\n      tag_12\n      tag_13\n      jump\t// in\n    tag_12:\n      mload(0x40)\n      tag_14\n      swap2\n      swap1\n      tag_15\n      jump\t// in\n    tag_14:\n      mload(0x40)\n      dup1\n      swap2\n      sub\n      swap1\n      return\n        /* \"storage-factory/contracts/FundMe.sol\":962:1629  function fund() public payable {... */\n    tag_4:\n      tag_16\n      tag_17\n      jump\t// in\n    tag_16:\n      stop\n        /* \"storage-factory/contracts/FundMe.sol\":546:601  mapping(address => uint256) public addressToAointFunded */\n    tag_5:\n      callvalue\n      dup1\n      iszero\n      tag_18\n      jumpi\n      0x00\n      dup1\n      revert\n    tag_18:\n      pop\n      tag_19\n      0x04\n      dup1\n      calldatasize\n      sub\n      dup2\n      add\n      swap1\n      tag_20\n      swap2\n      swap1\n      tag_21\n      jump\t// in\n    tag_20:\n      tag_22\n      jump\t// in\n    tag_19:\n      mload(0x40)\n      tag_23\n      swap2\n      swap1\n      tag_15\n      jump\t// in\n    tag_23:\n      mload(0x40)\n      dup1\n      swap2\n      sub\n      swap1\n      return\n        /* \"storage-factory/contracts/FundMe.sol\":690:722  address public immutable i_owner */\n    tag_6:\n      callvalue\n      dup1\n      iszero\n      tag_24\n      jumpi\n      0x00\n      dup1\n      revert\n    tag_24:\n      pop\n      tag_25\n      tag_26\n      jump\t// in\n    tag_25:\n      mload(0x40)\n      tag_27\n      swap2\n      swap1\n      tag_28\n      jump\t// in\n    tag_27:\n      mload(0x40)\n      dup1\n      swap2\n      sub\n      swap1\n      return\n        /* \"storage-factory/contracts/FundMe.sol\":483:507  address[] public funders */\n    tag_7:\n      callvalue\n      dup1\n      iszero\n      tag_29\n      jumpi\n      0x00\n      dup1\n      revert\n    tag_29:\n      pop\n      tag_30\n      0x04\n      dup1\n      calldatasize\n      sub\n      dup2\n      add\n      swap1\n      tag_31\n      swap2\n      swap1\n      tag_32\n      jump\t// in\n    tag_31:\n      tag_33\n      jump\t// in\n    tag_30:\n      mload(0x40)\n      tag_34\n      swap2\n      swap1\n      tag_28\n      jump\t// in\n    tag_34:\n      mload(0x40)\n      dup1\n      swap2\n      sub\n      swap1\n      return\n        /* \"storage-factory/contracts/FundMe.sol\":1655:2448  function withdraw() public onlyOwner {... */\n    tag_10:\n        /* \"storage-factory/contracts/FundMe.sol\":2538:2545  i_owner */\n      immutable(\"0x606503ebd6bdca7290248af82fd5a09ca0489398da9f242244210336ae6ece9f\")\n        /* \"storage-factory/contracts/FundMe.sol\":2524:2545  msg.sender == i_owner */\n      0xffffffffffffffffffffffffffffffffffffffff\n      and\n        /* \"storage-factory/contracts/FundMe.sol\":2524:2534  msg.sender */\n      caller\n        /* \"storage-factory/contracts/FundMe.sol\":2524:2545  msg.sender == i_owner */\n      0xffffffffffffffffffffffffffffffffffffffff\n      and\n      eq\n        /* \"storage-factory/contracts/FundMe.sol\":2516:2562  require(msg.sender == i_owner, \"Not allowed!\") */\n      tag_36\n      jumpi\n      mload(0x40)\n      0x08c379a000000000000000000000000000000000000000000000000000000000\n      dup2\n      mstore\n      0x04\n      add\n      tag_37\n      swap1\n      tag_38\n      jump\t// in\n    tag_37:\n      mload(0x40)\n      dup1\n      swap2\n      sub\n      swap1\n      revert\n    tag_36:\n        /* \"storage-factory/contracts/FundMe.sol\":1720:1739  uint256 funderIndex */\n      0x00\n        /* \"storage-factory/contracts/FundMe.sol\":1702:1931  for (... */\n    tag_40:\n        /* \"storage-factory/contracts/FundMe.sol\":1771:1778  funders */\n      0x00\n        /* \"storage-factory/contracts/FundMe.sol\":1771:1785  funders.length */\n      dup1\n      sload\n      swap1\n      pop\n        /* \"storage-factory/contracts/FundMe.sol\":1757:1768  funderIndex */\n      dup2\n        /* \"storage-factory/contracts/FundMe.sol\":1757:1785  funderIndex < funders.length */\n      lt\n        /* \"storage-factory/contracts/FundMe.sol\":1702:1931  for (... */\n      iszero\n      tag_41\n      jumpi\n        /* \"storage-factory/contracts/FundMe.sol\":1837:1851  address funder */\n      0x00\n        /* \"storage-factory/contracts/FundMe.sol\":1854:1861  funders */\n      dup1\n        /* \"storage-factory/contracts/FundMe.sol\":1862:1873  funderIndex */\n      dup3\n        /* \"storage-factory/contracts/FundMe.sol\":1854:1874  funders[funderIndex] */\n      dup2\n      sload\n      dup2\n      lt\n      tag_43\n      jumpi\n      tag_44\n      tag_45\n      jump\t// in\n    tag_44:\n    tag_43:\n      swap1\n      0x00\n      mstore\n      keccak256(0x00, 0x20)\n      add\n      0x00\n      swap1\n      sload\n      swap1\n      0x0100\n      exp\n      swap1\n      div\n      0xffffffffffffffffffffffffffffffffffffffff\n      and\n        /* \"storage-factory/contracts/FundMe.sol\":1837:1874  address funder = funders[funderIndex] */\n      swap1\n      pop\n        /* \"storage-factory/contracts/FundMe.sol\":1919:1920  0 */\n      0x00\n        /* \"storage-factory/contracts/FundMe.sol\":1888:1908  addressToAointFunded */\n      0x01\n        /* \"storage-factory/contracts/FundMe.sol\":1888:1916  addressToAointFunded[funder] */\n      0x00\n        /* \"storage-factory/contracts/FundMe.sol\":1909:1915  funder */\n      dup4\n        /* \"storage-factory/contracts/FundMe.sol\":1888:1916  addressToAointFunded[funder] */\n      0xffffffffffffffffffffffffffffffffffffffff\n      and\n      0xffffffffffffffffffffffffffffffffffffffff\n      and\n      dup2\n      mstore\n      0x20\n      add\n      swap1\n      dup2\n      mstore\n      0x20\n      add\n      0x00\n      keccak256\n        /* \"storage-factory/contracts/FundMe.sol\":1888:1920  addressToAointFunded[funder] = 0 */\n      dup2\n      swap1\n      sstore\n      pop\n        /* \"storage-factory/contracts/FundMe.sol\":1823:1931  {... */\n      pop\n        /* \"storage-factory/contracts/FundMe.sol\":1799:1812  funderIndex++ */\n      dup1\n      dup1\n      0x01\n      add\n      swap2\n      pop\n      pop\n        /* \"storage-factory/contracts/FundMe.sol\":1702:1931  for (... */\n      jump(tag_40)\n    tag_41:\n      pop\n        /* \"storage-factory/contracts/FundMe.sol\":1991:1992  0 */\n      0x00\n        /* \"storage-factory/contracts/FundMe.sol\":1977:1993  new address[](0) */\n      0xffffffffffffffff\n      dup2\n      gt\n      iszero\n      tag_47\n      jumpi\n      tag_48\n      tag_49\n      jump\t// in\n    tag_48:\n    tag_47:\n      mload(0x40)\n      swap1\n      dup1\n      dup3\n      mstore\n      dup1\n      0x20\n      mul\n      0x20\n      add\n      dup3\n      add\n      0x40\n      mstore\n      dup1\n      iszero\n      tag_50\n      jumpi\n      dup2\n      0x20\n      add\n      0x20\n      dup3\n      mul\n      dup1\n      calldatasize\n      dup4\n      calldatacopy\n      dup1\n      dup3\n      add\n      swap2\n      pop\n      pop\n      swap1\n      pop\n    tag_50:\n      pop\n        /* \"storage-factory/contracts/FundMe.sol\":1967:1974  funders */\n      0x00\n        /* \"storage-factory/contracts/FundMe.sol\":1967:1993  funders = new address[](0) */\n      swap1\n      dup1\n      mload\n      swap1\n      0x20\n      add\n      swap1\n      tag_51\n      swap3\n      swap2\n      swap1\n      tag_52\n      jump\t// in\n    tag_51:\n      pop\n        /* \"storage-factory/contracts/FundMe.sol\":2294:2310  bool callSuccess */\n      0x00\n        /* \"storage-factory/contracts/FundMe.sol\":2324:2334  msg.sender */\n      caller\n        /* \"storage-factory/contracts/FundMe.sol\":2316:2340  payable(msg.sender).call */\n      0xffffffffffffffffffffffffffffffffffffffff\n      and\n        /* \"storage-factory/contracts/FundMe.sol\":2361:2382  address(this).balance */\n      selfbalance\n        /* \"storage-factory/contracts/FundMe.sol\":2316:2396  payable(msg.sender).call{... */\n      mload(0x40)\n      tag_53\n      swap1\n      tag_54\n      jump\t// in\n    tag_53:\n      0x00\n      mload(0x40)\n      dup1\n      dup4\n      sub\n      dup2\n      dup6\n      dup8\n      gas\n      call\n      swap3\n      pop\n      pop\n      pop\n      returndatasize\n      dup1\n      0x00\n      dup2\n      eq\n      tag_57\n      jumpi\n      mload(0x40)\n      swap2\n      pop\n      and(add(returndatasize, 0x3f), not(0x1f))\n      dup3\n      add\n      0x40\n      mstore\n      returndatasize\n      dup3\n      mstore\n      returndatasize\n      0x00\n      0x20\n      dup5\n      add\n      returndatacopy\n      jump(tag_56)\n    tag_57:\n      0x60\n      swap2\n      pop\n    tag_56:\n      pop\n        /* \"storage-factory/contracts/FundMe.sol\":2293:2396  (bool callSuccess, ) = payable(msg.sender).call{... */\n      pop\n      swap1\n      pop\n        /* \"storage-factory/contracts/FundMe.sol\":2414:2425  callSuccess */\n      dup1\n        /* \"storage-factory/contracts/FundMe.sol\":2406:2441  require(callSuccess, \"Call failed\") */\n      tag_58\n      jumpi\n      mload(0x40)\n      0x08c379a000000000000000000000000000000000000000000000000000000000\n      dup2\n      mstore\n      0x04\n      add\n      tag_59\n      swap1\n      tag_60\n      jump\t// in\n    tag_59:\n      mload(0x40)\n      dup1\n      swap2\n      sub\n      swap1\n      revert\n    tag_58:\n        /* \"storage-factory/contracts/FundMe.sol\":1692:2448  {... */\n      pop\n        /* \"storage-factory/contracts/FundMe.sol\":1655:2448  function withdraw() public onlyOwner {... */\n      jump\t// out\n        /* \"storage-factory/contracts/FundMe.sol\":410:457  uint256 public constant MINIMUM_USD = 50 * 1e18 */\n    tag_13:\n        /* \"storage-factory/contracts/FundMe.sol\":448:457  50 * 1e18 */\n      0x02b5e3af16b1880000\n        /* \"storage-factory/contracts/FundMe.sol\":410:457  uint256 public constant MINIMUM_USD = 50 * 1e18 */\n      dup2\n      jump\t// out\n        /* \"storage-factory/contracts/FundMe.sol\":962:1629  function fund() public payable {... */\n    tag_17:\n        /* \"storage-factory/contracts/FundMe.sol\":448:457  50 * 1e18 */\n      0x02b5e3af16b1880000\n        /* \"storage-factory/contracts/FundMe.sol\":1446:1475  msg.value.getConversionRate() */\n      tag_62\n        /* \"storage-factory/contracts/FundMe.sol\":1446:1455  msg.value */\n      callvalue\n        /* \"storage-factory/contracts/FundMe.sol\":1446:1473  msg.value.getConversionRate */\n      tag_63\n        /* \"storage-factory/contracts/FundMe.sol\":1446:1475  msg.value.getConversionRate() */\n      jump\t// in\n    tag_62:\n        /* \"storage-factory/contracts/FundMe.sol\":1446:1489  msg.value.getConversionRate() > MINIMUM_USD */\n      gt\n        /* \"storage-factory/contracts/FundMe.sol\":1425:1534  require(... */\n      tag_64\n      jumpi\n      mload(0x40)\n      0x08c379a000000000000000000000000000000000000000000000000000000000\n      dup2\n      mstore\n      0x04\n      add\n      tag_65\n      swap1\n      tag_66\n      jump\t// in\n    tag_65:\n      mload(0x40)\n      dup1\n      swap2\n      sub\n      swap1\n      revert\n    tag_64:\n        /* \"storage-factory/contracts/FundMe.sol\":1544:1551  funders */\n      0x00\n        /* \"storage-factory/contracts/FundMe.sol\":1557:1567  msg.sender */\n      caller\n        /* \"storage-factory/contracts/FundMe.sol\":1544:1568  funders.push(msg.sender) */\n      swap1\n      dup1\n      0x01\n      dup2\n      sload\n      add\n      dup1\n      dup3\n      sstore\n      dup1\n      swap2\n      pop\n      pop\n      0x01\n      swap1\n      sub\n      swap1\n      0x00\n      mstore\n      keccak256(0x00, 0x20)\n      add\n      0x00\n      swap1\n      swap2\n      swap1\n      swap2\n      swap1\n      swap2\n      0x0100\n      exp\n      dup2\n      sload\n      dup2\n      0xffffffffffffffffffffffffffffffffffffffff\n      mul\n      not\n      and\n      swap1\n      dup4\n      0xffffffffffffffffffffffffffffffffffffffff\n      and\n      mul\n      or\n      swap1\n      sstore\n      pop\n        /* \"storage-factory/contracts/FundMe.sol\":1613:1622  msg.value */\n      callvalue\n        /* \"storage-factory/contracts/FundMe.sol\":1578:1598  addressToAointFunded */\n      0x01\n        /* \"storage-factory/contracts/FundMe.sol\":1578:1610  addressToAointFunded[msg.sender] */\n      0x00\n        /* \"storage-factory/contracts/FundMe.sol\":1599:1609  msg.sender */\n      caller\n        /* \"storage-factory/contracts/FundMe.sol\":1578:1610  addressToAointFunded[msg.sender] */\n      0xffffffffffffffffffffffffffffffffffffffff\n      and\n      0xffffffffffffffffffffffffffffffffffffffff\n      and\n      dup2\n      mstore\n      0x20\n      add\n      swap1\n      dup2\n      mstore\n      0x20\n      add\n      0x00\n      keccak256\n        /* \"storage-factory/contracts/FundMe.sol\":1578:1622  addressToAointFunded[msg.sender] = msg.value */\n      dup2\n      swap1\n      sstore\n      pop\n        /* \"storage-factory/contracts/FundMe.sol\":962:1629  function fund() public payable {... */\n      jump\t// out\n        /* \"storage-factory/contracts/FundMe.sol\":546:601  mapping(address => uint256) public addressToAointFunded */\n    tag_22:\n      mstore(0x20, 0x01)\n      dup1\n      0x00\n      mstore\n      keccak256(0x00, 0x40)\n      0x00\n      swap2\n      pop\n      swap1\n      pop\n      sload\n      dup2\n      jump\t// out\n        /* \"storage-factory/contracts/FundMe.sol\":690:722  address public immutable i_owner */\n    tag_26:\n      immutable(\"0x606503ebd6bdca7290248af82fd5a09ca0489398da9f242244210336ae6ece9f\")\n      dup2\n      jump\t// out\n        /* \"storage-factory/contracts/FundMe.sol\":483:507  address[] public funders */\n    tag_33:\n      0x00\n      dup2\n      dup2\n      sload\n      dup2\n      lt\n      tag_68\n      jumpi\n      0x00\n      dup1\n      revert\n    tag_68:\n      swap1\n      0x00\n      mstore\n      keccak256(0x00, 0x20)\n      add\n      0x00\n      swap2\n      pop\n      sload\n      swap1\n      0x0100\n      exp\n      swap1\n      div\n      0xffffffffffffffffffffffffffffffffffffffff\n      and\n      dup2\n      jump\t// out\n        /* \"storage-factory/contracts/PriceConverter.sol\":948:1215  function getConversionRate(uint256 ethAmount)... */\n    tag_63:\n        /* \"storage-factory/contracts/PriceConverter.sol\":1041:1048  uint256 */\n      0x00\n        /* \"storage-factory/contracts/PriceConverter.sol\":1064:1078  uint256 ethPic */\n      dup1\n        /* \"storage-factory/contracts/PriceConverter.sol\":1081:1091  getPrice() */\n      tag_71\n        /* \"storage-factory/contracts/PriceConverter.sol\":1081:1089  getPrice */\n      tag_72\n        /* \"storage-factory/contracts/PriceConverter.sol\":1081:1091  getPrice() */\n      jump\t// in\n    tag_71:\n        /* \"storage-factory/contracts/PriceConverter.sol\":1064:1091  uint256 ethPic = getPrice() */\n      swap1\n      pop\n        /* \"storage-factory/contracts/PriceConverter.sol\":1125:1147  uint256 ethAmountInUsd */\n      0x00\n        /* \"storage-factory/contracts/PriceConverter.sol\":1173:1177  1e18 */\n      0x0de0b6b3a7640000\n        /* \"storage-factory/contracts/PriceConverter.sol\":1160:1169  ethAmount */\n      dup5\n        /* \"storage-factory/contracts/PriceConverter.sol\":1151:1157  ethPic */\n      dup4\n        /* \"storage-factory/contracts/PriceConverter.sol\":1151:1169  ethPic * ethAmount */\n      tag_73\n      swap2\n      swap1\n      tag_74\n      jump\t// in\n    tag_73:\n        /* \"storage-factory/contracts/PriceConverter.sol\":1150:1177  (ethPic * ethAmount) / 1e18 */\n      tag_75\n      swap2\n      swap1\n      tag_76\n      jump\t// in\n    tag_75:\n        /* \"storage-factory/contracts/PriceConverter.sol\":1125:1177  uint256 ethAmountInUsd = (ethPic * ethAmount) / 1e18 */\n      swap1\n      pop\n        /* \"storage-factory/contracts/PriceConverter.sol\":1194:1208  ethAmountInUsd */\n      dup1\n        /* \"storage-factory/contracts/PriceConverter.sol\":1187:1208  return ethAmountInUsd */\n      swap3\n      pop\n      pop\n      pop\n        /* \"storage-factory/contracts/PriceConverter.sol\":948:1215  function getConversionRate(uint256 ethAmount)... */\n      swap2\n      swap1\n      pop\n      jump\t// out\n        /* \"storage-factory/contracts/PriceConverter.sol\":178:708  function getPrice() internal view returns (uint256) {... */\n    tag_72:\n        /* \"storage-factory/contracts/PriceConverter.sol\":221:228  uint256 */\n      0x00\n        /* \"storage-factory/contracts/PriceConverter.sol\":400:431  AggregatorV3Interface priceFeed */\n      dup1\n        /* \"storage-factory/contracts/PriceConverter.sol\":469:511  0x694AA1769357215DE4FAC081bf1f309aDC325306 */\n      0x694aa1769357215de4fac081bf1f309adc325306\n        /* \"storage-factory/contracts/PriceConverter.sol\":400:521  AggregatorV3Interface priceFeed = AggregatorV3Interface(... */\n      swap1\n      pop\n        /* \"storage-factory/contracts/PriceConverter.sol\":534:546  int256 price */\n      0x00\n        /* \"storage-factory/contracts/PriceConverter.sol\":556:565  priceFeed */\n      dup2\n        /* \"storage-factory/contracts/PriceConverter.sol\":556:581  priceFeed.latestRoundData */\n      0xffffffffffffffffffffffffffffffffffffffff\n      and\n      0xfeaf968c\n        /* \"storage-factory/contracts/PriceConverter.sol\":556:583  priceFeed.latestRoundData() */\n      mload(0x40)\n      dup2\n      0xffffffff\n      and\n      0xe0\n      shl\n      dup2\n      mstore\n      0x04\n      add\n      0xa0\n      mload(0x40)\n      dup1\n      dup4\n      sub\n      dup2\n      dup7\n      gas\n      staticcall\n      iszero\n      dup1\n      iszero\n      tag_79\n      jumpi\n      returndatasize\n      0x00\n      dup1\n      returndatacopy\n      revert(0x00, returndatasize)\n    tag_79:\n      pop\n      pop\n      pop\n      pop\n      mload(0x40)\n      returndatasize\n      not(0x1f)\n      0x1f\n      dup3\n      add\n      and\n      dup3\n      add\n      dup1\n      0x40\n      mstore\n      pop\n      dup2\n      add\n      swap1\n      tag_80\n      swap2\n      swap1\n      tag_81\n      jump\t// in\n    tag_80:\n        /* \"storage-factory/contracts/PriceConverter.sol\":531:583  (, int256 price, , , ) = priceFeed.latestRoundData() */\n      pop\n      pop\n      pop\n      swap2\n      pop\n      pop\n        /* \"storage-factory/contracts/PriceConverter.sol\":672:676  1e10 */\n      0x02540be400\n        /* \"storage-factory/contracts/PriceConverter.sol\":664:669  price */\n      dup2\n        /* \"storage-factory/contracts/PriceConverter.sol\":664:676  price * 1e10 */\n      tag_82\n      swap2\n      swap1\n      tag_83\n      jump\t// in\n    tag_82:\n        /* \"storage-factory/contracts/PriceConverter.sol\":649:677  return uint256(price * 1e10) */\n      swap3\n      pop\n      pop\n      pop\n        /* \"storage-factory/contracts/PriceConverter.sol\":178:708  function getPrice() internal view returns (uint256) {... */\n      swap1\n      jump\t// out\n    tag_52:\n      dup3\n      dup1\n      sload\n      dup3\n      dup3\n      sstore\n      swap1\n      0x00\n      mstore\n      keccak256(0x00, 0x20)\n      swap1\n      dup2\n      add\n      swap3\n      dup3\n      iszero\n      tag_84\n      jumpi\n      swap2\n      0x20\n      mul\n      dup3\n      add\n    tag_85:\n      dup3\n      dup2\n      gt\n      iszero\n      tag_86\n      jumpi\n      dup3\n      mload\n      dup3\n      exp(0x0100, 0x00)\n      dup2\n      sload\n      dup2\n      0xffffffffffffffffffffffffffffffffffffffff\n      mul\n      not\n      and\n      swap1\n      dup4\n      0xffffffffffffffffffffffffffffffffffffffff\n      and\n      mul\n      or\n      swap1\n      sstore\n      pop\n      swap2\n      0x20\n      add\n      swap2\n      swap1\n      0x01\n      add\n      swap1\n      jump(tag_85)\n    tag_86:\n    tag_84:\n      pop\n      swap1\n      pop\n      tag_87\n      swap2\n      swap1\n      tag_88\n      jump\t// in\n    tag_87:\n      pop\n      swap1\n      jump\t// out\n    tag_88:\n    tag_89:\n      dup1\n      dup3\n      gt\n      iszero\n      tag_90\n      jumpi\n      0x00\n      dup2\n      0x00\n      swap1\n      sstore\n      pop\n      0x01\n      add\n      jump(tag_89)\n    tag_90:\n      pop\n      swap1\n      jump\t// out\n        /* \"#utility.yul\":7:84   */\n    tag_91:\n        /* \"#utility.yul\":44:51   */\n      0x00\n        /* \"#utility.yul\":73:78   */\n      dup2\n        /* \"#utility.yul\":62:78   */\n      swap1\n      pop\n        /* \"#utility.yul\":7:84   */\n      swap2\n      swap1\n      pop\n      jump\t// out\n        /* \"#utility.yul\":90:208   */\n    tag_92:\n        /* \"#utility.yul\":177:201   */\n      tag_125\n        /* \"#utility.yul\":195:200   */\n      dup2\n        /* \"#utility.yul\":177:201   */\n      tag_91\n      jump\t// in\n    tag_125:\n        /* \"#utility.yul\":172:175   */\n      dup3\n        /* \"#utility.yul\":165:202   */\n      mstore\n        /* \"#utility.yul\":90:208   */\n      pop\n      pop\n      jump\t// out\n        /* \"#utility.yul\":214:436   */\n    tag_15:\n        /* \"#utility.yul\":307:311   */\n      0x00\n        /* \"#utility.yul\":345:347   */\n      0x20\n        /* \"#utility.yul\":334:343   */\n      dup3\n        /* \"#utility.yul\":330:348   */\n      add\n        /* \"#utility.yul\":322:348   */\n      swap1\n      pop\n        /* \"#utility.yul\":358:429   */\n      tag_127\n        /* \"#utility.yul\":426:427   */\n      0x00\n        /* \"#utility.yul\":415:424   */\n      dup4\n        /* \"#utility.yul\":411:428   */\n      add\n        /* \"#utility.yul\":402:408   */\n      dup5\n        /* \"#utility.yul\":358:429   */\n      tag_92\n      jump\t// in\n    tag_127:\n        /* \"#utility.yul\":214:436   */\n      swap3\n      swap2\n      pop\n      pop\n      jump\t// out\n        /* \"#utility.yul\":523:640   */\n    tag_94:\n        /* \"#utility.yul\":632:633   */\n      0x00\n        /* \"#utility.yul\":629:630   */\n      dup1\n        /* \"#utility.yul\":622:634   */\n      revert\n        /* \"#utility.yul\":769:895   */\n    tag_96:\n        /* \"#utility.yul\":806:813   */\n      0x00\n        /* \"#utility.yul\":846:888   */\n      0xffffffffffffffffffffffffffffffffffffffff\n        /* \"#utility.yul\":839:844   */\n      dup3\n        /* \"#utility.yul\":835:889   */\n      and\n        /* \"#utility.yul\":824:889   */\n      swap1\n      pop\n        /* \"#utility.yul\":769:895   */\n      swap2\n      swap1\n      pop\n      jump\t// out\n        /* \"#utility.yul\":901:997   */\n    tag_97:\n        /* \"#utility.yul\":938:945   */\n      0x00\n        /* \"#utility.yul\":967:991   */\n      tag_133\n        /* \"#utility.yul\":985:990   */\n      dup3\n        /* \"#utility.yul\":967:991   */\n      tag_96\n      jump\t// in\n    tag_133:\n        /* \"#utility.yul\":956:991   */\n      swap1\n      pop\n        /* \"#utility.yul\":901:997   */\n      swap2\n      swap1\n      pop\n      jump\t// out\n        /* \"#utility.yul\":1003:1125   */\n    tag_98:\n        /* \"#utility.yul\":1076:1100   */\n      tag_135\n        /* \"#utility.yul\":1094:1099   */\n      dup2\n        /* \"#utility.yul\":1076:1100   */\n      tag_97\n      jump\t// in\n    tag_135:\n        /* \"#utility.yul\":1069:1074   */\n      dup2\n        /* \"#utility.yul\":1066:1101   */\n      eq\n        /* \"#utility.yul\":1056:1119   */\n      tag_136\n      jumpi\n        /* \"#utility.yul\":1115:1116   */\n      0x00\n        /* \"#utility.yul\":1112:1113   */\n      dup1\n        /* \"#utility.yul\":1105:1117   */\n      revert\n        /* \"#utility.yul\":1056:1119   */\n    tag_136:\n        /* \"#utility.yul\":1003:1125   */\n      pop\n      jump\t// out\n        /* \"#utility.yul\":1131:1270   */\n    tag_99:\n        /* \"#utility.yul\":1177:1182   */\n      0x00\n        /* \"#utility.yul\":1215:1221   */\n      dup2\n        /* \"#utility.yul\":1202:1222   */\n      calldataload\n        /* \"#utility.yul\":1193:1222   */\n      swap1\n      pop\n        /* \"#utility.yul\":1231:1264   */\n      tag_138\n        /* \"#utility.yul\":1258:1263   */\n      dup2\n        /* \"#utility.yul\":1231:1264   */\n      tag_98\n      jump\t// in\n    tag_138:\n        /* \"#utility.yul\":1131:1270   */\n      swap3\n      swap2\n      pop\n      pop\n      jump\t// out\n        /* \"#utility.yul\":1276:1605   */\n    tag_21:\n        /* \"#utility.yul\":1335:1341   */\n      0x00\n        /* \"#utility.yul\":1384:1386   */\n      0x20\n        /* \"#utility.yul\":1372:1381   */\n      dup3\n        /* \"#utility.yul\":1363:1370   */\n      dup5\n        /* \"#utility.yul\":1359:1382   */\n      sub\n        /* \"#utility.yul\":1355:1387   */\n      slt\n        /* \"#utility.yul\":1352:1471   */\n      iszero\n      tag_140\n      jumpi\n        /* \"#utility.yul\":1390:1469   */\n      tag_141\n      tag_94\n      jump\t// in\n    tag_141:\n        /* \"#utility.yul\":1352:1471   */\n    tag_140:\n        /* \"#utility.yul\":1510:1511   */\n      0x00\n        /* \"#utility.yul\":1535:1588   */\n      tag_142\n        /* \"#utility.yul\":1580:1587   */\n      dup5\n        /* \"#utility.yul\":1571:1577   */\n      dup3\n        /* \"#utility.yul\":1560:1569   */\n      dup6\n        /* \"#utility.yul\":1556:1578   */\n      add\n        /* \"#utility.yul\":1535:1588   */\n      tag_99\n      jump\t// in\n    tag_142:\n        /* \"#utility.yul\":1525:1588   */\n      swap2\n      pop\n        /* \"#utility.yul\":1481:1598   */\n      pop\n        /* \"#utility.yul\":1276:1605   */\n      swap3\n      swap2\n      pop\n      pop\n      jump\t// out\n        /* \"#utility.yul\":1611:1729   */\n    tag_100:\n        /* \"#utility.yul\":1698:1722   */\n      tag_144\n        /* \"#utility.yul\":1716:1721   */\n      dup2\n        /* \"#utility.yul\":1698:1722   */\n      tag_97\n      jump\t// in\n    tag_144:\n        /* \"#utility.yul\":1693:1696   */\n      dup3\n        /* \"#utility.yul\":1686:1723   */\n      mstore\n        /* \"#utility.yul\":1611:1729   */\n      pop\n      pop\n      jump\t// out\n        /* \"#utility.yul\":1735:1957   */\n    tag_28:\n        /* \"#utility.yul\":1828:1832   */\n      0x00\n        /* \"#utility.yul\":1866:1868   */\n      0x20\n        /* \"#utility.yul\":1855:1864   */\n      dup3\n        /* \"#utility.yul\":1851:1869   */\n      add\n        /* \"#utility.yul\":1843:1869   */\n      swap1\n      pop\n        /* \"#utility.yul\":1879:1950   */\n      tag_146\n        /* \"#utility.yul\":1947:1948   */\n      0x00\n        /* \"#utility.yul\":1936:1945   */\n      dup4\n        /* \"#utility.yul\":1932:1949   */\n      add\n        /* \"#utility.yul\":1923:1929   */\n      dup5\n        /* \"#utility.yul\":1879:1950   */\n      tag_100\n      jump\t// in\n    tag_146:\n        /* \"#utility.yul\":1735:1957   */\n      swap3\n      swap2\n      pop\n      pop\n      jump\t// out\n        /* \"#utility.yul\":1963:2085   */\n    tag_101:\n        /* \"#utility.yul\":2036:2060   */\n      tag_148\n        /* \"#utility.yul\":2054:2059   */\n      dup2\n        /* \"#utility.yul\":2036:2060   */\n      tag_91\n      jump\t// in\n    tag_148:\n        /* \"#utility.yul\":2029:2034   */\n      dup2\n        /* \"#utility.yul\":2026:2061   */\n      eq\n        /* \"#utility.yul\":2016:2079   */\n      tag_149\n      jumpi\n        /* \"#utility.yul\":2075:2076   */\n      0x00\n        /* \"#utility.yul\":2072:2073   */\n      dup1\n        /* \"#utility.yul\":2065:2077   */\n      revert\n        /* \"#utility.yul\":2016:2079   */\n    tag_149:\n        /* \"#utility.yul\":1963:2085   */\n      pop\n      jump\t// out\n        /* \"#utility.yul\":2091:2230   */\n    tag_102:\n        /* \"#utility.yul\":2137:2142   */\n      0x00\n        /* \"#utility.yul\":2175:2181   */\n      dup2\n        /* \"#utility.yul\":2162:2182   */\n      calldataload\n        /* \"#utility.yul\":2153:2182   */\n      swap1\n      pop\n        /* \"#utility.yul\":2191:2224   */\n      tag_151\n        /* \"#utility.yul\":2218:2223   */\n      dup2\n        /* \"#utility.yul\":2191:2224   */\n      tag_101\n      jump\t// in\n    tag_151:\n        /* \"#utility.yul\":2091:2230   */\n      swap3\n      swap2\n      pop\n      pop\n      jump\t// out\n        /* \"#utility.yul\":2236:2565   */\n    tag_32:\n        /* \"#utility.yul\":2295:2301   */\n      0x00\n        /* \"#utility.yul\":2344:2346   */\n      0x20\n        /* \"#utility.yul\":2332:2341   */\n      dup3\n        /* \"#utility.yul\":2323:2330   */\n      dup5\n        /* \"#utility.yul\":2319:2342   */\n      sub\n        /* \"#utility.yul\":2315:2347   */\n      slt\n        /* \"#utility.yul\":2312:2431   */\n      iszero\n      tag_153\n      jumpi\n        /* \"#utility.yul\":2350:2429   */\n      tag_154\n      tag_94\n      jump\t// in\n    tag_154:\n        /* \"#utility.yul\":2312:2431   */\n    tag_153:\n        /* \"#utility.yul\":2470:2471   */\n      0x00\n        /* \"#utility.yul\":2495:2548   */\n      tag_155\n        /* \"#utility.yul\":2540:2547   */\n      dup5\n        /* \"#utility.yul\":2531:2537   */\n      dup3\n        /* \"#utility.yul\":2520:2529   */\n      dup6\n        /* \"#utility.yul\":2516:2538   */\n      add\n        /* \"#utility.yul\":2495:2548   */\n      tag_102\n      jump\t// in\n    tag_155:\n        /* \"#utility.yul\":2485:2548   */\n      swap2\n      pop\n        /* \"#utility.yul\":2441:2558   */\n      pop\n        /* \"#utility.yul\":2236:2565   */\n      swap3\n      swap2\n      pop\n      pop\n      jump\t// out\n        /* \"#utility.yul\":2571:2740   */\n    tag_103:\n        /* \"#utility.yul\":2655:2666   */\n      0x00\n        /* \"#utility.yul\":2689:2695   */\n      dup3\n        /* \"#utility.yul\":2684:2687   */\n      dup3\n        /* \"#utility.yul\":2677:2696   */\n      mstore\n        /* \"#utility.yul\":2729:2733   */\n      0x20\n        /* \"#utility.yul\":2724:2727   */\n      dup3\n        /* \"#utility.yul\":2720:2734   */\n      add\n        /* \"#utility.yul\":2705:2734   */\n      swap1\n      pop\n        /* \"#utility.yul\":2571:2740   */\n      swap3\n      swap2\n      pop\n      pop\n      jump\t// out\n        /* \"#utility.yul\":2746:2908   */\n    tag_104:\n        /* \"#utility.yul\":2886:2900   */\n      0x4e6f7420616c6c6f776564210000000000000000000000000000000000000000\n        /* \"#utility.yul\":2882:2883   */\n      0x00\n        /* \"#utility.yul\":2874:2880   */\n      dup3\n        /* \"#utility.yul\":2870:2884   */\n      add\n        /* \"#utility.yul\":2863:2901   */\n      mstore\n        /* \"#utility.yul\":2746:2908   */\n      pop\n      jump\t// out\n        /* \"#utility.yul\":2914:3280   */\n    tag_105:\n        /* \"#utility.yul\":3056:3059   */\n      0x00\n        /* \"#utility.yul\":3077:3144   */\n      tag_159\n        /* \"#utility.yul\":3141:3143   */\n      0x0c\n        /* \"#utility.yul\":3136:3139   */\n      dup4\n        /* \"#utility.yul\":3077:3144   */\n      tag_103\n      jump\t// in\n    tag_159:\n        /* \"#utility.yul\":3070:3144   */\n      swap2\n      pop\n        /* \"#utility.yul\":3153:3246   */\n      tag_160\n        /* \"#utility.yul\":3242:3245   */\n      dup3\n        /* \"#utility.yul\":3153:3246   */\n      tag_104\n      jump\t// in\n    tag_160:\n        /* \"#utility.yul\":3271:3273   */\n      0x20\n        /* \"#utility.yul\":3266:3269   */\n      dup3\n        /* \"#utility.yul\":3262:3274   */\n      add\n        /* \"#utility.yul\":3255:3274   */\n      swap1\n      pop\n        /* \"#utility.yul\":2914:3280   */\n      swap2\n      swap1\n      pop\n      jump\t// out\n        /* \"#utility.yul\":3286:3705   */\n    tag_38:\n        /* \"#utility.yul\":3452:3456   */\n      0x00\n        /* \"#utility.yul\":3490:3492   */\n      0x20\n        /* \"#utility.yul\":3479:3488   */\n      dup3\n        /* \"#utility.yul\":3475:3493   */\n      add\n        /* \"#utility.yul\":3467:3493   */\n      swap1\n      pop\n        /* \"#utility.yul\":3539:3548   */\n      dup2\n        /* \"#utility.yul\":3533:3537   */\n      dup2\n        /* \"#utility.yul\":3529:3549   */\n      sub\n        /* \"#utility.yul\":3525:3526   */\n      0x00\n        /* \"#utility.yul\":3514:3523   */\n      dup4\n        /* \"#utility.yul\":3510:3527   */\n      add\n        /* \"#utility.yul\":3503:3550   */\n      mstore\n        /* \"#utility.yul\":3567:3698   */\n      tag_162\n        /* \"#utility.yul\":3693:3697   */\n      dup2\n        /* \"#utility.yul\":3567:3698   */\n      tag_105\n      jump\t// in\n    tag_162:\n        /* \"#utility.yul\":3559:3698   */\n      swap1\n      pop\n        /* \"#utility.yul\":3286:3705   */\n      swap2\n      swap1\n      pop\n      jump\t// out\n        /* \"#utility.yul\":3711:3891   */\n    tag_45:\n        /* \"#utility.yul\":3759:3836   */\n      0x4e487b7100000000000000000000000000000000000000000000000000000000\n        /* \"#utility.yul\":3756:3757   */\n      0x00\n        /* \"#utility.yul\":3749:3837   */\n      mstore\n        /* \"#utility.yul\":3856:3860   */\n      0x32\n        /* \"#utility.yul\":3853:3854   */\n      0x04\n        /* \"#utility.yul\":3846:3861   */\n      mstore\n        /* \"#utility.yul\":3880:3884   */\n      0x24\n        /* \"#utility.yul\":3877:3878   */\n      0x00\n        /* \"#utility.yul\":3870:3885   */\n      revert\n        /* \"#utility.yul\":3897:4077   */\n    tag_49:\n        /* \"#utility.yul\":3945:4022   */\n      0x4e487b7100000000000000000000000000000000000000000000000000000000\n        /* \"#utility.yul\":3942:3943   */\n      0x00\n        /* \"#utility.yul\":3935:4023   */\n      mstore\n        /* \"#utility.yul\":4042:4046   */\n      0x41\n        /* \"#utility.yul\":4039:4040   */\n      0x04\n        /* \"#utility.yul\":4032:4047   */\n      mstore\n        /* \"#utility.yul\":4066:4070   */\n      0x24\n        /* \"#utility.yul\":4063:4064   */\n      0x00\n        /* \"#utility.yul\":4056:4071   */\n      revert\n        /* \"#utility.yul\":4083:4230   */\n    tag_106:\n        /* \"#utility.yul\":4184:4195   */\n      0x00\n        /* \"#utility.yul\":4221:4224   */\n      dup2\n        /* \"#utility.yul\":4206:4224   */\n      swap1\n      pop\n        /* \"#utility.yul\":4083:4230   */\n      swap3\n      swap2\n      pop\n      pop\n      jump\t// out\n        /* \"#utility.yul\":4236:4350   */\n    tag_107:\n      pop\n      jump\t// out\n        /* \"#utility.yul\":4356:4754   */\n    tag_108:\n        /* \"#utility.yul\":4515:4518   */\n      0x00\n        /* \"#utility.yul\":4536:4619   */\n      tag_168\n        /* \"#utility.yul\":4617:4618   */\n      0x00\n        /* \"#utility.yul\":4612:4615   */\n      dup4\n        /* \"#utility.yul\":4536:4619   */\n      tag_106\n      jump\t// in\n    tag_168:\n        /* \"#utility.yul\":4529:4619   */\n      swap2\n      pop\n        /* \"#utility.yul\":4628:4721   */\n      tag_169\n        /* \"#utility.yul\":4717:4720   */\n      dup3\n        /* \"#utility.yul\":4628:4721   */\n      tag_107\n      jump\t// in\n    tag_169:\n        /* \"#utility.yul\":4746:4747   */\n      0x00\n        /* \"#utility.yul\":4741:4744   */\n      dup3\n        /* \"#utility.yul\":4737:4748   */\n      add\n        /* \"#utility.yul\":4730:4748   */\n      swap1\n      pop\n        /* \"#utility.yul\":4356:4754   */\n      swap2\n      swap1\n      pop\n      jump\t// out\n        /* \"#utility.yul\":4760:5139   */\n    tag_54:\n        /* \"#utility.yul\":4944:4947   */\n      0x00\n        /* \"#utility.yul\":4966:5113   */\n      tag_171\n        /* \"#utility.yul\":5109:5112   */\n      dup3\n        /* \"#utility.yul\":4966:5113   */\n      tag_108\n      jump\t// in\n    tag_171:\n        /* \"#utility.yul\":4959:5113   */\n      swap2\n      pop\n        /* \"#utility.yul\":5130:5133   */\n      dup2\n        /* \"#utility.yul\":5123:5133   */\n      swap1\n      pop\n        /* \"#utility.yul\":4760:5139   */\n      swap2\n      swap1\n      pop\n      jump\t// out\n        /* \"#utility.yul\":5145:5306   */\n    tag_109:\n        /* \"#utility.yul\":5285:5298   */\n      0x43616c6c206661696c6564000000000000000000000000000000000000000000\n        /* \"#utility.yul\":5281:5282   */\n      0x00\n        /* \"#utility.yul\":5273:5279   */\n      dup3\n        /* \"#utility.yul\":5269:5283   */\n      add\n        /* \"#utility.yul\":5262:5299   */\n      mstore\n        /* \"#utility.yul\":5145:5306   */\n      pop\n      jump\t// out\n        /* \"#utility.yul\":5312:5678   */\n    tag_110:\n        /* \"#utility.yul\":5454:5457   */\n      0x00\n        /* \"#utility.yul\":5475:5542   */\n      tag_174\n        /* \"#utility.yul\":5539:5541   */\n      0x0b\n        /* \"#utility.yul\":5534:5537   */\n      dup4\n        /* \"#utility.yul\":5475:5542   */\n      tag_103\n      jump\t// in\n    tag_174:\n        /* \"#utility.yul\":5468:5542   */\n      swap2\n      pop\n        /* \"#utility.yul\":5551:5644   */\n      tag_175\n        /* \"#utility.yul\":5640:5643   */\n      dup3\n        /* \"#utility.yul\":5551:5644   */\n      tag_109\n      jump\t// in\n    tag_175:\n        /* \"#utility.yul\":5669:5671   */\n      0x20\n        /* \"#utility.yul\":5664:5667   */\n      dup3\n        /* \"#utility.yul\":5660:5672   */\n      add\n        /* \"#utility.yul\":5653:5672   */\n      swap1\n      pop\n        /* \"#utility.yul\":5312:5678   */\n      swap2\n      swap1\n      pop\n      jump\t// out\n        /* \"#utility.yul\":5684:6103   */\n    tag_60:\n        /* \"#utility.yul\":5850:5854   */\n      0x00\n        /* \"#utility.yul\":5888:5890   */\n      0x20\n        /* \"#utility.yul\":5877:5886   */\n      dup3\n        /* \"#utility.yul\":5873:5891   */\n      add\n        /* \"#utility.yul\":5865:5891   */\n      swap1\n      pop\n        /* \"#utility.yul\":5937:5946   */\n      dup2\n        /* \"#utility.yul\":5931:5935   */\n      dup2\n        /* \"#utility.yul\":5927:5947   */\n      sub\n        /* \"#utility.yul\":5923:5924   */\n      0x00\n        /* \"#utility.yul\":5912:5921   */\n      dup4\n        /* \"#utility.yul\":5908:5925   */\n      add\n        /* \"#utility.yul\":5901:5948   */\n      mstore\n        /* \"#utility.yul\":5965:6096   */\n      tag_177\n        /* \"#utility.yul\":6091:6095   */\n      dup2\n        /* \"#utility.yul\":5965:6096   */\n      tag_110\n      jump\t// in\n    tag_177:\n        /* \"#utility.yul\":5957:6096   */\n      swap1\n      pop\n        /* \"#utility.yul\":5684:6103   */\n      swap2\n      swap1\n      pop\n      jump\t// out\n        /* \"#utility.yul\":6109:6278   */\n    tag_111:\n        /* \"#utility.yul\":6249:6270   */\n      0x4469646e27742073656e6420656e6f7567682100000000000000000000000000\n        /* \"#utility.yul\":6245:6246   */\n      0x00\n        /* \"#utility.yul\":6237:6243   */\n      dup3\n        /* \"#utility.yul\":6233:6247   */\n      add\n        /* \"#utility.yul\":6226:6271   */\n      mstore\n        /* \"#utility.yul\":6109:6278   */\n      pop\n      jump\t// out\n        /* \"#utility.yul\":6284:6650   */\n    tag_112:\n        /* \"#utility.yul\":6426:6429   */\n      0x00\n        /* \"#utility.yul\":6447:6514   */\n      tag_180\n        /* \"#utility.yul\":6511:6513   */\n      0x13\n        /* \"#utility.yul\":6506:6509   */\n      dup4\n        /* \"#utility.yul\":6447:6514   */\n      tag_103\n      jump\t// in\n    tag_180:\n        /* \"#utility.yul\":6440:6514   */\n      swap2\n      pop\n        /* \"#utility.yul\":6523:6616   */\n      tag_181\n        /* \"#utility.yul\":6612:6615   */\n      dup3\n        /* \"#utility.yul\":6523:6616   */\n      tag_111\n      jump\t// in\n    tag_181:\n        /* \"#utility.yul\":6641:6643   */\n      0x20\n        /* \"#utility.yul\":6636:6639   */\n      dup3\n        /* \"#utility.yul\":6632:6644   */\n      add\n        /* \"#utility.yul\":6625:6644   */\n      swap1\n      pop\n        /* \"#utility.yul\":6284:6650   */\n      swap2\n      swap1\n      pop\n      jump\t// out\n        /* \"#utility.yul\":6656:7075   */\n    tag_66:\n        /* \"#utility.yul\":6822:6826   */\n      0x00\n        /* \"#utility.yul\":6860:6862   */\n      0x20\n        /* \"#utility.yul\":6849:6858   */\n      dup3\n        /* \"#utility.yul\":6845:6863   */\n      add\n        /* \"#utility.yul\":6837:6863   */\n      swap1\n      pop\n        /* \"#utility.yul\":6909:6918   */\n      dup2\n        /* \"#utility.yul\":6903:6907   */\n      dup2\n        /* \"#utility.yul\":6899:6919   */\n      sub\n        /* \"#utility.yul\":6895:6896   */\n      0x00\n        /* \"#utility.yul\":6884:6893   */\n      dup4\n        /* \"#utility.yul\":6880:6897   */\n      add\n        /* \"#utility.yul\":6873:6920   */\n      mstore\n        /* \"#utility.yul\":6937:7068   */\n      tag_183\n        /* \"#utility.yul\":7063:7067   */\n      dup2\n        /* \"#utility.yul\":6937:7068   */\n      tag_112\n      jump\t// in\n    tag_183:\n        /* \"#utility.yul\":6929:7068   */\n      swap1\n      pop\n        /* \"#utility.yul\":6656:7075   */\n      swap2\n      swap1\n      pop\n      jump\t// out\n        /* \"#utility.yul\":7081:7261   */\n    tag_113:\n        /* \"#utility.yul\":7129:7206   */\n      0x4e487b7100000000000000000000000000000000000000000000000000000000\n        /* \"#utility.yul\":7126:7127   */\n      0x00\n        /* \"#utility.yul\":7119:7207   */\n      mstore\n        /* \"#utility.yul\":7226:7230   */\n      0x11\n        /* \"#utility.yul\":7223:7224   */\n      0x04\n        /* \"#utility.yul\":7216:7231   */\n      mstore\n        /* \"#utility.yul\":7250:7254   */\n      0x24\n        /* \"#utility.yul\":7247:7248   */\n      0x00\n        /* \"#utility.yul\":7240:7255   */\n      revert\n        /* \"#utility.yul\":7267:7677   */\n    tag_74:\n        /* \"#utility.yul\":7307:7314   */\n      0x00\n        /* \"#utility.yul\":7330:7350   */\n      tag_186\n        /* \"#utility.yul\":7348:7349   */\n      dup3\n        /* \"#utility.yul\":7330:7350   */\n      tag_91\n      jump\t// in\n    tag_186:\n        /* \"#utility.yul\":7325:7350   */\n      swap2\n      pop\n        /* \"#utility.yul\":7364:7384   */\n      tag_187\n        /* \"#utility.yul\":7382:7383   */\n      dup4\n        /* \"#utility.yul\":7364:7384   */\n      tag_91\n      jump\t// in\n    tag_187:\n        /* \"#utility.yul\":7359:7384   */\n      swap3\n      pop\n        /* \"#utility.yul\":7419:7420   */\n      dup3\n        /* \"#utility.yul\":7416:7417   */\n      dup3\n        /* \"#utility.yul\":7412:7421   */\n      mul\n        /* \"#utility.yul\":7441:7471   */\n      tag_188\n        /* \"#utility.yul\":7459:7470   */\n      dup2\n        /* \"#utility.yul\":7441:7471   */\n      tag_91\n      jump\t// in\n    tag_188:\n        /* \"#utility.yul\":7430:7471   */\n      swap2\n      pop\n        /* \"#utility.yul\":7620:7621   */\n      dup3\n        /* \"#utility.yul\":7611:7618   */\n      dup3\n        /* \"#utility.yul\":7607:7622   */\n      div\n        /* \"#utility.yul\":7604:7605   */\n      dup5\n        /* \"#utility.yul\":7601:7623   */\n      eq\n        /* \"#utility.yul\":7581:7582   */\n      dup4\n        /* \"#utility.yul\":7574:7583   */\n      iszero\n        /* \"#utility.yul\":7554:7637   */\n      or\n        /* \"#utility.yul\":7531:7670   */\n      tag_189\n      jumpi\n        /* \"#utility.yul\":7650:7668   */\n      tag_190\n      tag_113\n      jump\t// in\n    tag_190:\n        /* \"#utility.yul\":7531:7670   */\n    tag_189:\n        /* \"#utility.yul\":7315:7677   */\n      pop\n        /* \"#utility.yul\":7267:7677   */\n      swap3\n      swap2\n      pop\n      pop\n      jump\t// out\n        /* \"#utility.yul\":7683:7863   */\n    tag_114:\n        /* \"#utility.yul\":7731:7808   */\n      0x4e487b7100000000000000000000000000000000000000000000000000000000\n        /* \"#utility.yul\":7728:7729   */\n      0x00\n        /* \"#utility.yul\":7721:7809   */\n      mstore\n        /* \"#utility.yul\":7828:7832   */\n      0x12\n        /* \"#utility.yul\":7825:7826   */\n      0x04\n        /* \"#utility.yul\":7818:7833   */\n      mstore\n        /* \"#utility.yul\":7852:7856   */\n      0x24\n        /* \"#utility.yul\":7849:7850   */\n      0x00\n        /* \"#utility.yul\":7842:7857   */\n      revert\n        /* \"#utility.yul\":7869:8054   */\n    tag_76:\n        /* \"#utility.yul\":7909:7910   */\n      0x00\n        /* \"#utility.yul\":7926:7946   */\n      tag_193\n        /* \"#utility.yul\":7944:7945   */\n      dup3\n        /* \"#utility.yul\":7926:7946   */\n      tag_91\n      jump\t// in\n    tag_193:\n        /* \"#utility.yul\":7921:7946   */\n      swap2\n      pop\n        /* \"#utility.yul\":7960:7980   */\n      tag_194\n        /* \"#utility.yul\":7978:7979   */\n      dup4\n        /* \"#utility.yul\":7960:7980   */\n      tag_91\n      jump\t// in\n    tag_194:\n        /* \"#utility.yul\":7955:7980   */\n      swap3\n      pop\n        /* \"#utility.yul\":7999:8000   */\n      dup3\n        /* \"#utility.yul\":7989:8024   */\n      tag_195\n      jumpi\n        /* \"#utility.yul\":8004:8022   */\n      tag_196\n      tag_114\n      jump\t// in\n    tag_196:\n        /* \"#utility.yul\":7989:8024   */\n    tag_195:\n        /* \"#utility.yul\":8046:8047   */\n      dup3\n        /* \"#utility.yul\":8043:8044   */\n      dup3\n        /* \"#utility.yul\":8039:8048   */\n      div\n        /* \"#utility.yul\":8034:8048   */\n      swap1\n      pop\n        /* \"#utility.yul\":7869:8054   */\n      swap3\n      swap2\n      pop\n      pop\n      jump\t// out\n        /* \"#utility.yul\":8060:8165   */\n    tag_115:\n        /* \"#utility.yul\":8096:8103   */\n      0x00\n        /* \"#utility.yul\":8136:8158   */\n      0xffffffffffffffffffff\n        /* \"#utility.yul\":8129:8134   */\n      dup3\n        /* \"#utility.yul\":8125:8159   */\n      and\n        /* \"#utility.yul\":8114:8159   */\n      swap1\n      pop\n        /* \"#utility.yul\":8060:8165   */\n      swap2\n      swap1\n      pop\n      jump\t// out\n        /* \"#utility.yul\":8171:8291   */\n    tag_116:\n        /* \"#utility.yul\":8243:8266   */\n      tag_199\n        /* \"#utility.yul\":8260:8265   */\n      dup2\n        /* \"#utility.yul\":8243:8266   */\n      tag_115\n      jump\t// in\n    tag_199:\n        /* \"#utility.yul\":8236:8241   */\n      dup2\n        /* \"#utility.yul\":8233:8267   */\n      eq\n        /* \"#utility.yul\":8223:8285   */\n      tag_200\n      jumpi\n        /* \"#utility.yul\":8281:8282   */\n      0x00\n        /* \"#utility.yul\":8278:8279   */\n      dup1\n        /* \"#utility.yul\":8271:8283   */\n      revert\n        /* \"#utility.yul\":8223:8285   */\n    tag_200:\n        /* \"#utility.yul\":8171:8291   */\n      pop\n      jump\t// out\n        /* \"#utility.yul\":8297:8438   */\n    tag_117:\n        /* \"#utility.yul\":8353:8358   */\n      0x00\n        /* \"#utility.yul\":8384:8390   */\n      dup2\n        /* \"#utility.yul\":8378:8391   */\n      mload\n        /* \"#utility.yul\":8369:8391   */\n      swap1\n      pop\n        /* \"#utility.yul\":8400:8432   */\n      tag_202\n        /* \"#utility.yul\":8426:8431   */\n      dup2\n        /* \"#utility.yul\":8400:8432   */\n      tag_116\n      jump\t// in\n    tag_202:\n        /* \"#utility.yul\":8297:8438   */\n      swap3\n      swap2\n      pop\n      pop\n      jump\t// out\n        /* \"#utility.yul\":8444:8520   */\n    tag_118:\n        /* \"#utility.yul\":8480:8487   */\n      0x00\n        /* \"#utility.yul\":8509:8514   */\n      dup2\n        /* \"#utility.yul\":8498:8514   */\n      swap1\n      pop\n        /* \"#utility.yul\":8444:8520   */\n      swap2\n      swap1\n      pop\n      jump\t// out\n        /* \"#utility.yul\":8526:8646   */\n    tag_119:\n        /* \"#utility.yul\":8598:8621   */\n      tag_205\n        /* \"#utility.yul\":8615:8620   */\n      dup2\n        /* \"#utility.yul\":8598:8621   */\n      tag_118\n      jump\t// in\n    tag_205:\n        /* \"#utility.yul\":8591:8596   */\n      dup2\n        /* \"#utility.yul\":8588:8622   */\n      eq\n        /* \"#utility.yul\":8578:8640   */\n      tag_206\n      jumpi\n        /* \"#utility.yul\":8636:8637   */\n      0x00\n        /* \"#utility.yul\":8633:8634   */\n      dup1\n        /* \"#utility.yul\":8626:8638   */\n      revert\n        /* \"#utility.yul\":8578:8640   */\n    tag_206:\n        /* \"#utility.yul\":8526:8646   */\n      pop\n      jump\t// out\n        /* \"#utility.yul\":8652:8793   */\n    tag_120:\n        /* \"#utility.yul\":8708:8713   */\n      0x00\n        /* \"#utility.yul\":8739:8745   */\n      dup2\n        /* \"#utility.yul\":8733:8746   */\n      mload\n        /* \"#utility.yul\":8724:8746   */\n      swap1\n      pop\n        /* \"#utility.yul\":8755:8787   */\n      tag_208\n        /* \"#utility.yul\":8781:8786   */\n      dup2\n        /* \"#utility.yul\":8755:8787   */\n      tag_119\n      jump\t// in\n    tag_208:\n        /* \"#utility.yul\":8652:8793   */\n      swap3\n      swap2\n      pop\n      pop\n      jump\t// out\n        /* \"#utility.yul\":8799:8942   */\n    tag_121:\n        /* \"#utility.yul\":8856:8861   */\n      0x00\n        /* \"#utility.yul\":8887:8893   */\n      dup2\n        /* \"#utility.yul\":8881:8894   */\n      mload\n        /* \"#utility.yul\":8872:8894   */\n      swap1\n      pop\n        /* \"#utility.yul\":8903:8936   */\n      tag_210\n        /* \"#utility.yul\":8930:8935   */\n      dup2\n        /* \"#utility.yul\":8903:8936   */\n      tag_101\n      jump\t// in\n    tag_210:\n        /* \"#utility.yul\":8799:8942   */\n      swap3\n      swap2\n      pop\n      pop\n      jump\t// out\n        /* \"#utility.yul\":8948:9919   */\n    tag_81:\n        /* \"#utility.yul\":9051:9057   */\n      0x00\n        /* \"#utility.yul\":9059:9065   */\n      dup1\n        /* \"#utility.yul\":9067:9073   */\n      0x00\n        /* \"#utility.yul\":9075:9081   */\n      dup1\n        /* \"#utility.yul\":9083:9089   */\n      0x00\n        /* \"#utility.yul\":9132:9135   */\n      0xa0\n        /* \"#utility.yul\":9120:9129   */\n      dup7\n        /* \"#utility.yul\":9111:9118   */\n      dup9\n        /* \"#utility.yul\":9107:9130   */\n      sub\n        /* \"#utility.yul\":9103:9136   */\n      slt\n        /* \"#utility.yul\":9100:9220   */\n      iszero\n      tag_212\n      jumpi\n        /* \"#utility.yul\":9139:9218   */\n      tag_213\n      tag_94\n      jump\t// in\n    tag_213:\n        /* \"#utility.yul\":9100:9220   */\n    tag_212:\n        /* \"#utility.yul\":9259:9260   */\n      0x00\n        /* \"#utility.yul\":9284:9347   */\n      tag_214\n        /* \"#utility.yul\":9339:9346   */\n      dup9\n        /* \"#utility.yul\":9330:9336   */\n      dup3\n        /* \"#utility.yul\":9319:9328   */\n      dup10\n        /* \"#utility.yul\":9315:9337   */\n      add\n        /* \"#utility.yul\":9284:9347   */\n      tag_117\n      jump\t// in\n    tag_214:\n        /* \"#utility.yul\":9274:9347   */\n      swap6\n      pop\n        /* \"#utility.yul\":9230:9357   */\n      pop\n        /* \"#utility.yul\":9396:9398   */\n      0x20\n        /* \"#utility.yul\":9422:9485   */\n      tag_215\n        /* \"#utility.yul\":9477:9484   */\n      dup9\n        /* \"#utility.yul\":9468:9474   */\n      dup3\n        /* \"#utility.yul\":9457:9466   */\n      dup10\n        /* \"#utility.yul\":9453:9475   */\n      add\n        /* \"#utility.yul\":9422:9485   */\n      tag_120\n      jump\t// in\n    tag_215:\n        /* \"#utility.yul\":9412:9485   */\n      swap5\n      pop\n        /* \"#utility.yul\":9367:9495   */\n      pop\n        /* \"#utility.yul\":9534:9536   */\n      0x40\n        /* \"#utility.yul\":9560:9624   */\n      tag_216\n        /* \"#utility.yul\":9616:9623   */\n      dup9\n        /* \"#utility.yul\":9607:9613   */\n      dup3\n        /* \"#utility.yul\":9596:9605   */\n      dup10\n        /* \"#utility.yul\":9592:9614   */\n      add\n        /* \"#utility.yul\":9560:9624   */\n      tag_121\n      jump\t// in\n    tag_216:\n        /* \"#utility.yul\":9550:9624   */\n      swap4\n      pop\n        /* \"#utility.yul\":9505:9634   */\n      pop\n        /* \"#utility.yul\":9673:9675   */\n      0x60\n        /* \"#utility.yul\":9699:9763   */\n      tag_217\n        /* \"#utility.yul\":9755:9762   */\n      dup9\n        /* \"#utility.yul\":9746:9752   */\n      dup3\n        /* \"#utility.yul\":9735:9744   */\n      dup10\n        /* \"#utility.yul\":9731:9753   */\n      add\n        /* \"#utility.yul\":9699:9763   */\n      tag_121\n      jump\t// in\n    tag_217:\n        /* \"#utility.yul\":9689:9763   */\n      swap3\n      pop\n        /* \"#utility.yul\":9644:9773   */\n      pop\n        /* \"#utility.yul\":9812:9815   */\n      0x80\n        /* \"#utility.yul\":9839:9902   */\n      tag_218\n        /* \"#utility.yul\":9894:9901   */\n      dup9\n        /* \"#utility.yul\":9885:9891   */\n      dup3\n        /* \"#utility.yul\":9874:9883   */\n      dup10\n        /* \"#utility.yul\":9870:9892   */\n      add\n        /* \"#utility.yul\":9839:9902   */\n      tag_117\n      jump\t// in\n    tag_218:\n        /* \"#utility.yul\":9829:9902   */\n      swap2\n      pop\n        /* \"#utility.yul\":9783:9912   */\n      pop\n        /* \"#utility.yul\":8948:9919   */\n      swap3\n      swap6\n      pop\n      swap3\n      swap6\n      swap1\n      swap4\n      pop\n      jump\t// out\n        /* \"#utility.yul\":9925:10481   */\n    tag_83:\n        /* \"#utility.yul\":9964:9971   */\n      0x00\n        /* \"#utility.yul\":9987:10006   */\n      tag_220\n        /* \"#utility.yul\":10004:10005   */\n      dup3\n        /* \"#utility.yul\":9987:10006   */\n      tag_118\n      jump\t// in\n    tag_220:\n        /* \"#utility.yul\":9982:10006   */\n      swap2\n      pop\n        /* \"#utility.yul\":10020:10039   */\n      tag_221\n        /* \"#utility.yul\":10037:10038   */\n      dup4\n        /* \"#utility.yul\":10020:10039   */\n      tag_118\n      jump\t// in\n    tag_221:\n        /* \"#utility.yul\":10015:10039   */\n      swap3\n      pop\n        /* \"#utility.yul\":10074:10075   */\n      dup3\n        /* \"#utility.yul\":10071:10072   */\n      dup3\n        /* \"#utility.yul\":10067:10076   */\n      mul\n        /* \"#utility.yul\":10096:10125   */\n      tag_222\n        /* \"#utility.yul\":10113:10124   */\n      dup2\n        /* \"#utility.yul\":10096:10125   */\n      tag_118\n      jump\t// in\n    tag_222:\n        /* \"#utility.yul\":10085:10125   */\n      swap2\n      pop\n        /* \"#utility.yul\":10183:10249   */\n      0x8000000000000000000000000000000000000000000000000000000000000000\n        /* \"#utility.yul\":10180:10181   */\n      dup5\n        /* \"#utility.yul\":10177:10250   */\n      eq\n        /* \"#utility.yul\":10173:10174   */\n      0x00\n        /* \"#utility.yul\":10170:10171   */\n      dup5\n        /* \"#utility.yul\":10166:10175   */\n      slt\n        /* \"#utility.yul\":10162:10251   */\n      and\n        /* \"#utility.yul\":10159:10274   */\n      iszero\n      tag_223\n      jumpi\n        /* \"#utility.yul\":10254:10272   */\n      tag_224\n      tag_113\n      jump\t// in\n    tag_224:\n        /* \"#utility.yul\":10159:10274   */\n    tag_223:\n        /* \"#utility.yul\":10424:10425   */\n      dup3\n        /* \"#utility.yul\":10415:10422   */\n      dup3\n        /* \"#utility.yul\":10410:10426   */\n      sdiv\n        /* \"#utility.yul\":10407:10408   */\n      dup5\n        /* \"#utility.yul\":10404:10427   */\n      eq\n        /* \"#utility.yul\":10384:10385   */\n      dup4\n        /* \"#utility.yul\":10377:10386   */\n      iszero\n        /* \"#utility.yul\":10357:10441   */\n      or\n        /* \"#utility.yul\":10334:10474   */\n      tag_225\n      jumpi\n        /* \"#utility.yul\":10454:10472   */\n      tag_226\n      tag_113\n      jump\t// in\n    tag_226:\n        /* \"#utility.yul\":10334:10474   */\n    tag_225:\n        /* \"#utility.yul\":9972:10481   */\n      pop\n        /* \"#utility.yul\":9925:10481   */\n      swap3\n      swap2\n      pop\n      pop\n      jump\t// out\n\n    auxdata: 0xa264697066735822122007cc7c7c63d177b83abfd97ff0bf70a7774af3c4a9a56112bc0109461d0ee48564736f6c634300081a0033\n}\n",
				"bytecode": {
					"linkReferences": {},
					"object": "60a0604052348015600e575f80fd5b503373ffffffffffffffffffffffffffffffffffffffff1660808173ffffffffffffffffffffffffffffffffffffffff1681525050608051610bfb6100625f395f818161014601526104920152610bfb5ff3fe608060405260043610610054575f3560e01c80633ccfd60b146100585780636b69a5921461006e578063b60d428814610098578063b8ee3585146100a2578063dba6335f146100de578063dc0d3dff14610108575b5f80fd5b348015610063575f80fd5b5061006c610144565b005b348015610079575f80fd5b50610082610378565b60405161008f9190610685565b60405180910390f35b6100a0610385565b005b3480156100ad575f80fd5b506100c860048036038101906100c391906106fc565b61047b565b6040516100d59190610685565b60405180910390f35b3480156100e9575f80fd5b506100f2610490565b6040516100ff9190610736565b60405180910390f35b348015610113575f80fd5b5061012e60048036038101906101299190610779565b6104b4565b60405161013b9190610736565b60405180910390f35b7f000000000000000000000000000000000000000000000000000000000000000073ffffffffffffffffffffffffffffffffffffffff163373ffffffffffffffffffffffffffffffffffffffff16146101d2576040517f08c379a00000000000000000000000000000000000000000000000000000000081526004016101c9906107fe565b60405180910390fd5b5f5b5f8054905081101561026e575f8082815481106101f4576101f361081c565b5b905f5260205f20015f9054906101000a900473ffffffffffffffffffffffffffffffffffffffff1690505f60015f8373ffffffffffffffffffffffffffffffffffffffff1673ffffffffffffffffffffffffffffffffffffffff1681526020019081526020015f20819055505080806001019150506101d4565b505f67ffffffffffffffff81111561028957610288610849565b5b6040519080825280602002602001820160405280156102b75781602001602082028036833780820191505090505b505f90805190602001906102cc9291906105cb565b505f3373ffffffffffffffffffffffffffffffffffffffff16476040516102f2906108a3565b5f6040518083038185875af1925050503d805f811461032c576040519150601f19603f3d011682016040523d82523d5f602084013e610331565b606091505b5050905080610375576040517f08c379a000000000000000000000000000000000000000000000000000000000815260040161036c90610901565b60405180910390fd5b50565b6802b5e3af16b188000081565b6802b5e3af16b1880000610398346104ee565b116103d8576040517f08c379a00000000000000000000000000000000000000000000000000000000081526004016103cf90610969565b60405180910390fd5b5f33908060018154018082558091505060019003905f5260205f20015f9091909190916101000a81548173ffffffffffffffffffffffffffffffffffffffff021916908373ffffffffffffffffffffffffffffffffffffffff1602179055503460015f3373ffffffffffffffffffffffffffffffffffffffff1673ffffffffffffffffffffffffffffffffffffffff1681526020019081526020015f2081905550565b6001602052805f5260405f205f915090505481565b7f000000000000000000000000000000000000000000000000000000000000000081565b5f81815481106104c2575f80fd5b905f5260205f20015f915054906101000a900473ffffffffffffffffffffffffffffffffffffffff1681565b5f806104f8610526565b90505f670de0b6b3a7640000848361051091906109b4565b61051a9190610a22565b90508092505050919050565b5f8073694aa1769357215de4fac081bf1f309adc32530690505f8173ffffffffffffffffffffffffffffffffffffffff1663feaf968c6040518163ffffffff1660e01b815260040160a060405180830381865afa158015610589573d5f803e3d5ffd5b505050506040513d601f19601f820116820180604052508101906105ad9190610ad8565b5050509150506402540be400816105c49190610b4f565b9250505090565b828054828255905f5260205f20908101928215610641579160200282015b82811115610640578251825f6101000a81548173ffffffffffffffffffffffffffffffffffffffff021916908373ffffffffffffffffffffffffffffffffffffffff160217905550916020019190600101906105e9565b5b50905061064e9190610652565b5090565b5b80821115610669575f815f905550600101610653565b5090565b5f819050919050565b61067f8161066d565b82525050565b5f6020820190506106985f830184610676565b92915050565b5f80fd5b5f73ffffffffffffffffffffffffffffffffffffffff82169050919050565b5f6106cb826106a2565b9050919050565b6106db816106c1565b81146106e5575f80fd5b50565b5f813590506106f6816106d2565b92915050565b5f602082840312156107115761071061069e565b5b5f61071e848285016106e8565b91505092915050565b610730816106c1565b82525050565b5f6020820190506107495f830184610727565b92915050565b6107588161066d565b8114610762575f80fd5b50565b5f813590506107738161074f565b92915050565b5f6020828403121561078e5761078d61069e565b5b5f61079b84828501610765565b91505092915050565b5f82825260208201905092915050565b7f4e6f7420616c6c6f7765642100000000000000000000000000000000000000005f82015250565b5f6107e8600c836107a4565b91506107f3826107b4565b602082019050919050565b5f6020820190508181035f830152610815816107dc565b9050919050565b7f4e487b71000000000000000000000000000000000000000000000000000000005f52603260045260245ffd5b7f4e487b71000000000000000000000000000000000000000000000000000000005f52604160045260245ffd5b5f81905092915050565b50565b5f61088e5f83610876565b915061089982610880565b5f82019050919050565b5f6108ad82610883565b9150819050919050565b7f43616c6c206661696c65640000000000000000000000000000000000000000005f82015250565b5f6108eb600b836107a4565b91506108f6826108b7565b602082019050919050565b5f6020820190508181035f830152610918816108df565b9050919050565b7f4469646e27742073656e6420656e6f75676821000000000000000000000000005f82015250565b5f6109536013836107a4565b915061095e8261091f565b602082019050919050565b5f6020820190508181035f83015261098081610947565b9050919050565b7f4e487b71000000000000000000000000000000000000000000000000000000005f52601160045260245ffd5b5f6109be8261066d565b91506109c98361066d565b92508282026109d78161066d565b915082820484148315176109ee576109ed610987565b5b5092915050565b7f4e487b71000000000000000000000000000000000000000000000000000000005f52601260045260245ffd5b5f610a2c8261066d565b9150610a378361066d565b925082610a4757610a466109f5565b5b828204905092915050565b5f69ffffffffffffffffffff82169050919050565b610a7081610a52565b8114610a7a575f80fd5b50565b5f81519050610a8b81610a67565b92915050565b5f819050919050565b610aa381610a91565b8114610aad575f80fd5b50565b5f81519050610abe81610a9a565b92915050565b5f81519050610ad28161074f565b92915050565b5f805f805f60a08688031215610af157610af061069e565b5b5f610afe88828901610a7d565b9550506020610b0f88828901610ab0565b9450506040610b2088828901610ac4565b9350506060610b3188828901610ac4565b9250506080610b4288828901610a7d565b9150509295509295909350565b5f610b5982610a91565b9150610b6483610a91565b9250828202610b7281610a91565b91507f800000000000000000000000000000000000000000000000000000000000000084145f84121615610ba957610ba8610987565b5b8282058414831517610bbe57610bbd610987565b5b509291505056fea264697066735822122007cc7c7c63d177b83abfd97ff0bf70a7774af3c4a9a56112bc0109461d0ee48564736f6c634300081a0033",
					"opcodes": "PUSH1 0xA0 PUSH1 0x40 MSTORE CALLVALUE DUP1 ISZERO PUSH1 0xE JUMPI PUSH0 DUP1 REVERT JUMPDEST POP CALLER PUSH20 0xFFFFFFFFFFFFFFFFFFFFFFFFFFFFFFFFFFFFFFFF AND PUSH1 0x80 DUP2 PUSH20 0xFFFFFFFFFFFFFFFFFFFFFFFFFFFFFFFFFFFFFFFF AND DUP2 MSTORE POP POP PUSH1 0x80 MLOAD PUSH2 0xBFB PUSH2 0x62 PUSH0 CODECOPY PUSH0 DUP2 DUP2 PUSH2 0x146 ADD MSTORE PUSH2 0x492 ADD MSTORE PUSH2 0xBFB PUSH0 RETURN INVALID PUSH1 0x80 PUSH1 0x40 MSTORE PUSH1 0x4 CALLDATASIZE LT PUSH2 0x54 JUMPI PUSH0 CALLDATALOAD PUSH1 0xE0 SHR DUP1 PUSH4 0x3CCFD60B EQ PUSH2 0x58 JUMPI DUP1 PUSH4 0x6B69A592 EQ PUSH2 0x6E JUMPI DUP1 PUSH4 0xB60D4288 EQ PUSH2 0x98 JUMPI DUP1 PUSH4 0xB8EE3585 EQ PUSH2 0xA2 JUMPI DUP1 PUSH4 0xDBA6335F EQ PUSH2 0xDE JUMPI DUP1 PUSH4 0xDC0D3DFF EQ PUSH2 0x108 JUMPI JUMPDEST PUSH0 DUP1 REVERT JUMPDEST CALLVALUE DUP1 ISZERO PUSH2 0x63 JUMPI PUSH0 DUP1 REVERT JUMPDEST POP PUSH2 0x6C PUSH2 0x144 JUMP JUMPDEST STOP JUMPDEST CALLVALUE DUP1 ISZERO PUSH2 0x79 JUMPI PUSH0 DUP1 REVERT JUMPDEST POP PUSH2 0x82 PUSH2 0x378 JUMP JUMPDEST PUSH1 0x40 MLOAD PUSH2 0x8F SWAP2 SWAP1 PUSH2 0x685 JUMP JUMPDEST PUSH1 0x40 MLOAD DUP1 SWAP2 SUB SWAP1 RETURN JUMPDEST PUSH2 0xA0 PUSH2 0x385 JUMP JUMPDEST STOP JUMPDEST CALLVALUE DUP1 ISZERO PUSH2 0xAD JUMPI PUSH0 DUP1 REVERT JUMPDEST POP PUSH2 0xC8 PUSH1 0x4 DUP1 CALLDATASIZE SUB DUP2 ADD SWAP1 PUSH2 0xC3 SWAP2 SWAP1 PUSH2 0x6FC JUMP JUMPDEST PUSH2 0x47B JUMP JUMPDEST PUSH1 0x40 MLOAD PUSH2 0xD5 SWAP2 SWAP1 PUSH2 0x685 JUMP JUMPDEST PUSH1 0x40 MLOAD DUP1 SWAP2 SUB SWAP1 RETURN JUMPDEST CALLVALUE DUP1 ISZERO PUSH2 0xE9 JUMPI PUSH0 DUP1 REVERT JUMPDEST POP PUSH2 0xF2 PUSH2 0x490 JUMP JUMPDEST PUSH1 0x40 MLOAD PUSH2 0xFF SWAP2 SWAP1 PUSH2 0x736 JUMP JUMPDEST PUSH1 0x40 MLOAD DUP1 SWAP2 SUB SWAP1 RETURN JUMPDEST CALLVALUE DUP1 ISZERO PUSH2 0x113 JUMPI PUSH0 DUP1 REVERT JUMPDEST POP PUSH2 0x12E PUSH1 0x4 DUP1 CALLDATASIZE SUB DUP2 ADD SWAP1 PUSH2 0x129 SWAP2 SWAP1 PUSH2 0x779 JUMP JUMPDEST PUSH2 0x4B4 JUMP JUMPDEST PUSH1 0x40 MLOAD PUSH2 0x13B SWAP2 SWAP1 PUSH2 0x736 JUMP JUMPDEST PUSH1 0x40 MLOAD DUP1 SWAP2 SUB SWAP1 RETURN JUMPDEST PUSH32 0x0 PUSH20 0xFFFFFFFFFFFFFFFFFFFFFFFFFFFFFFFFFFFFFFFF AND CALLER PUSH20 0xFFFFFFFFFFFFFFFFFFFFFFFFFFFFFFFFFFFFFFFF AND EQ PUSH2 0x1D2 JUMPI PUSH1 0x40 MLOAD PUSH32 0x8C379A000000000000000000000000000000000000000000000000000000000 DUP2 MSTORE PUSH1 0x4 ADD PUSH2 0x1C9 SWAP1 PUSH2 0x7FE JUMP JUMPDEST PUSH1 0x40 MLOAD DUP1 SWAP2 SUB SWAP1 REVERT JUMPDEST PUSH0 JUMPDEST PUSH0 DUP1 SLOAD SWAP1 POP DUP2 LT ISZERO PUSH2 0x26E JUMPI PUSH0 DUP1 DUP3 DUP2 SLOAD DUP2 LT PUSH2 0x1F4 JUMPI PUSH2 0x1F3 PUSH2 0x81C JUMP JUMPDEST JUMPDEST SWAP1 PUSH0 MSTORE PUSH1 0x20 PUSH0 KECCAK256 ADD PUSH0 SWAP1 SLOAD SWAP1 PUSH2 0x100 EXP SWAP1 DIV PUSH20 0xFFFFFFFFFFFFFFFFFFFFFFFFFFFFFFFFFFFFFFFF AND SWAP1 POP PUSH0 PUSH1 0x1 PUSH0 DUP4 PUSH20 0xFFFFFFFFFFFFFFFFFFFFFFFFFFFFFFFFFFFFFFFF AND PUSH20 0xFFFFFFFFFFFFFFFFFFFFFFFFFFFFFFFFFFFFFFFF AND DUP2 MSTORE PUSH1 0x20 ADD SWAP1 DUP2 MSTORE PUSH1 0x20 ADD PUSH0 KECCAK256 DUP2 SWAP1 SSTORE POP POP DUP1 DUP1 PUSH1 0x1 ADD SWAP2 POP POP PUSH2 0x1D4 JUMP JUMPDEST POP PUSH0 PUSH8 0xFFFFFFFFFFFFFFFF DUP2 GT ISZERO PUSH2 0x289 JUMPI PUSH2 0x288 PUSH2 0x849 JUMP JUMPDEST JUMPDEST PUSH1 0x40 MLOAD SWAP1 DUP1 DUP3 MSTORE DUP1 PUSH1 0x20 MUL PUSH1 0x20 ADD DUP3 ADD PUSH1 0x40 MSTORE DUP1 ISZERO PUSH2 0x2B7 JUMPI DUP2 PUSH1 0x20 ADD PUSH1 0x20 DUP3 MUL DUP1 CALLDATASIZE DUP4 CALLDATACOPY DUP1 DUP3 ADD SWAP2 POP POP SWAP1 POP JUMPDEST POP PUSH0 SWAP1 DUP1 MLOAD SWAP1 PUSH1 0x20 ADD SWAP1 PUSH2 0x2CC SWAP3 SWAP2 SWAP1 PUSH2 0x5CB JUMP JUMPDEST POP PUSH0 CALLER PUSH20 0xFFFFFFFFFFFFFFFFFFFFFFFFFFFFFFFFFFFFFFFF AND SELFBALANCE PUSH1 0x40 MLOAD PUSH2 0x2F2 SWAP1 PUSH2 0x8A3 JUMP JUMPDEST PUSH0 PUSH1 0x40 MLOAD DUP1 DUP4 SUB DUP2 DUP6 DUP8 GAS CALL SWAP3 POP POP POP RETURNDATASIZE DUP1 PUSH0 DUP2 EQ PUSH2 0x32C JUMPI PUSH1 0x40 MLOAD SWAP2 POP PUSH1 0x1F NOT PUSH1 0x3F RETURNDATASIZE ADD AND DUP3 ADD PUSH1 0x40 MSTORE RETURNDATASIZE DUP3 MSTORE RETURNDATASIZE PUSH0 PUSH1 0x20 DUP5 ADD RETURNDATACOPY PUSH2 0x331 JUMP JUMPDEST PUSH1 0x60 SWAP2 POP JUMPDEST POP POP SWAP1 POP DUP1 PUSH2 0x375 JUMPI PUSH1 0x40 MLOAD PUSH32 0x8C379A000000000000000000000000000000000000000000000000000000000 DUP2 MSTORE PUSH1 0x4 ADD PUSH2 0x36C SWAP1 PUSH2 0x901 JUMP JUMPDEST PUSH1 0x40 MLOAD DUP1 SWAP2 SUB SWAP1 REVERT JUMPDEST POP JUMP JUMPDEST PUSH9 0x2B5E3AF16B1880000 DUP2 JUMP JUMPDEST PUSH9 0x2B5E3AF16B1880000 PUSH2 0x398 CALLVALUE PUSH2 0x4EE JUMP JUMPDEST GT PUSH2 0x3D8 JUMPI PUSH1 0x40 MLOAD PUSH32 0x8C379A000000000000000000000000000000000000000000000000000000000 DUP2 MSTORE PUSH1 0x4 ADD PUSH2 0x3CF SWAP1 PUSH2 0x969 JUMP JUMPDEST PUSH1 0x40 MLOAD DUP1 SWAP2 SUB SWAP1 REVERT JUMPDEST PUSH0 CALLER SWAP1 DUP1 PUSH1 0x1 DUP2 SLOAD ADD DUP1 DUP3 SSTORE DUP1 SWAP2 POP POP PUSH1 0x1 SWAP1 SUB SWAP1 PUSH0 MSTORE PUSH1 0x20 PUSH0 KECCAK256 ADD PUSH0 SWAP1 SWAP2 SWAP1 SWAP2 SWAP1 SWAP2 PUSH2 0x100 EXP DUP2 SLOAD DUP2 PUSH20 0xFFFFFFFFFFFFFFFFFFFFFFFFFFFFFFFFFFFFFFFF MUL NOT AND SWAP1 DUP4 PUSH20 0xFFFFFFFFFFFFFFFFFFFFFFFFFFFFFFFFFFFFFFFF AND MUL OR SWAP1 SSTORE POP CALLVALUE PUSH1 0x1 PUSH0 CALLER PUSH20 0xFFFFFFFFFFFFFFFFFFFFFFFFFFFFFFFFFFFFFFFF AND PUSH20 0xFFFFFFFFFFFFFFFFFFFFFFFFFFFFFFFFFFFFFFFF AND DUP2 MSTORE PUSH1 0x20 ADD SWAP1 DUP2 MSTORE PUSH1 0x20 ADD PUSH0 KECCAK256 DUP2 SWAP1 SSTORE POP JUMP JUMPDEST PUSH1 0x1 PUSH1 0x20 MSTORE DUP1 PUSH0 MSTORE PUSH1 0x40 PUSH0 KECCAK256 PUSH0 SWAP2 POP SWAP1 POP SLOAD DUP2 JUMP JUMPDEST PUSH32 0x0 DUP2 JUMP JUMPDEST PUSH0 DUP2 DUP2 SLOAD DUP2 LT PUSH2 0x4C2 JUMPI PUSH0 DUP1 REVERT JUMPDEST SWAP1 PUSH0 MSTORE PUSH1 0x20 PUSH0 KECCAK256 ADD PUSH0 SWAP2 POP SLOAD SWAP1 PUSH2 0x100 EXP SWAP1 DIV PUSH20 0xFFFFFFFFFFFFFFFFFFFFFFFFFFFFFFFFFFFFFFFF AND DUP2 JUMP JUMPDEST PUSH0 DUP1 PUSH2 0x4F8 PUSH2 0x526 JUMP JUMPDEST SWAP1 POP PUSH0 PUSH8 0xDE0B6B3A7640000 DUP5 DUP4 PUSH2 0x510 SWAP2 SWAP1 PUSH2 0x9B4 JUMP JUMPDEST PUSH2 0x51A SWAP2 SWAP1 PUSH2 0xA22 JUMP JUMPDEST SWAP1 POP DUP1 SWAP3 POP POP POP SWAP2 SWAP1 POP JUMP JUMPDEST PUSH0 DUP1 PUSH20 0x694AA1769357215DE4FAC081BF1F309ADC325306 SWAP1 POP PUSH0 DUP2 PUSH20 0xFFFFFFFFFFFFFFFFFFFFFFFFFFFFFFFFFFFFFFFF AND PUSH4 0xFEAF968C PUSH1 0x40 MLOAD DUP2 PUSH4 0xFFFFFFFF AND PUSH1 0xE0 SHL DUP2 MSTORE PUSH1 0x4 ADD PUSH1 0xA0 PUSH1 0x40 MLOAD DUP1 DUP4 SUB DUP2 DUP7 GAS STATICCALL ISZERO DUP1 ISZERO PUSH2 0x589 JUMPI RETURNDATASIZE PUSH0 DUP1 RETURNDATACOPY RETURNDATASIZE PUSH0 REVERT JUMPDEST POP POP POP POP PUSH1 0x40 MLOAD RETURNDATASIZE PUSH1 0x1F NOT PUSH1 0x1F DUP3 ADD AND DUP3 ADD DUP1 PUSH1 0x40 MSTORE POP DUP2 ADD SWAP1 PUSH2 0x5AD SWAP2 SWAP1 PUSH2 0xAD8 JUMP JUMPDEST POP POP POP SWAP2 POP POP PUSH5 0x2540BE400 DUP2 PUSH2 0x5C4 SWAP2 SWAP1 PUSH2 0xB4F JUMP JUMPDEST SWAP3 POP POP POP SWAP1 JUMP JUMPDEST DUP3 DUP1 SLOAD DUP3 DUP3 SSTORE SWAP1 PUSH0 MSTORE PUSH1 0x20 PUSH0 KECCAK256 SWAP1 DUP2 ADD SWAP3 DUP3 ISZERO PUSH2 0x641 JUMPI SWAP2 PUSH1 0x20 MUL DUP3 ADD JUMPDEST DUP3 DUP2 GT ISZERO PUSH2 0x640 JUMPI DUP3 MLOAD DUP3 PUSH0 PUSH2 0x100 EXP DUP2 SLOAD DUP2 PUSH20 0xFFFFFFFFFFFFFFFFFFFFFFFFFFFFFFFFFFFFFFFF MUL NOT AND SWAP1 DUP4 PUSH20 0xFFFFFFFFFFFFFFFFFFFFFFFFFFFFFFFFFFFFFFFF AND MUL OR SWAP1 SSTORE POP SWAP2 PUSH1 0x20 ADD SWAP2 SWAP1 PUSH1 0x1 ADD SWAP1 PUSH2 0x5E9 JUMP JUMPDEST JUMPDEST POP SWAP1 POP PUSH2 0x64E SWAP2 SWAP1 PUSH2 0x652 JUMP JUMPDEST POP SWAP1 JUMP JUMPDEST JUMPDEST DUP1 DUP3 GT ISZERO PUSH2 0x669 JUMPI PUSH0 DUP2 PUSH0 SWAP1 SSTORE POP PUSH1 0x1 ADD PUSH2 0x653 JUMP JUMPDEST POP SWAP1 JUMP JUMPDEST PUSH0 DUP2 SWAP1 POP SWAP2 SWAP1 POP JUMP JUMPDEST PUSH2 0x67F DUP2 PUSH2 0x66D JUMP JUMPDEST DUP3 MSTORE POP POP JUMP JUMPDEST PUSH0 PUSH1 0x20 DUP3 ADD SWAP1 POP PUSH2 0x698 PUSH0 DUP4 ADD DUP5 PUSH2 0x676 JUMP JUMPDEST SWAP3 SWAP2 POP POP JUMP JUMPDEST PUSH0 DUP1 REVERT JUMPDEST PUSH0 PUSH20 0xFFFFFFFFFFFFFFFFFFFFFFFFFFFFFFFFFFFFFFFF DUP3 AND SWAP1 POP SWAP2 SWAP1 POP JUMP JUMPDEST PUSH0 PUSH2 0x6CB DUP3 PUSH2 0x6A2 JUMP JUMPDEST SWAP1 POP SWAP2 SWAP1 POP JUMP JUMPDEST PUSH2 0x6DB DUP2 PUSH2 0x6C1 JUMP JUMPDEST DUP2 EQ PUSH2 0x6E5 JUMPI PUSH0 DUP1 REVERT JUMPDEST POP JUMP JUMPDEST PUSH0 DUP2 CALLDATALOAD SWAP1 POP PUSH2 0x6F6 DUP2 PUSH2 0x6D2 JUMP JUMPDEST SWAP3 SWAP2 POP POP JUMP JUMPDEST PUSH0 PUSH1 0x20 DUP3 DUP5 SUB SLT ISZERO PUSH2 0x711 JUMPI PUSH2 0x710 PUSH2 0x69E JUMP JUMPDEST JUMPDEST PUSH0 PUSH2 0x71E DUP5 DUP3 DUP6 ADD PUSH2 0x6E8 JUMP JUMPDEST SWAP2 POP POP SWAP3 SWAP2 POP POP JUMP JUMPDEST PUSH2 0x730 DUP2 PUSH2 0x6C1 JUMP JUMPDEST DUP3 MSTORE POP POP JUMP JUMPDEST PUSH0 PUSH1 0x20 DUP3 ADD SWAP1 POP PUSH2 0x749 PUSH0 DUP4 ADD DUP5 PUSH2 0x727 JUMP JUMPDEST SWAP3 SWAP2 POP POP JUMP JUMPDEST PUSH2 0x758 DUP2 PUSH2 0x66D JUMP JUMPDEST DUP2 EQ PUSH2 0x762 JUMPI PUSH0 DUP1 REVERT JUMPDEST POP JUMP JUMPDEST PUSH0 DUP2 CALLDATALOAD SWAP1 POP PUSH2 0x773 DUP2 PUSH2 0x74F JUMP JUMPDEST SWAP3 SWAP2 POP POP JUMP JUMPDEST PUSH0 PUSH1 0x20 DUP3 DUP5 SUB SLT ISZERO PUSH2 0x78E JUMPI PUSH2 0x78D PUSH2 0x69E JUMP JUMPDEST JUMPDEST PUSH0 PUSH2 0x79B DUP5 DUP3 DUP6 ADD PUSH2 0x765 JUMP JUMPDEST SWAP2 POP POP SWAP3 SWAP2 POP POP JUMP JUMPDEST PUSH0 DUP3 DUP3 MSTORE PUSH1 0x20 DUP3 ADD SWAP1 POP SWAP3 SWAP2 POP POP JUMP JUMPDEST PUSH32 0x4E6F7420616C6C6F776564210000000000000000000000000000000000000000 PUSH0 DUP3 ADD MSTORE POP JUMP JUMPDEST PUSH0 PUSH2 0x7E8 PUSH1 0xC DUP4 PUSH2 0x7A4 JUMP JUMPDEST SWAP2 POP PUSH2 0x7F3 DUP3 PUSH2 0x7B4 JUMP JUMPDEST PUSH1 0x20 DUP3 ADD SWAP1 POP SWAP2 SWAP1 POP JUMP JUMPDEST PUSH0 PUSH1 0x20 DUP3 ADD SWAP1 POP DUP2 DUP2 SUB PUSH0 DUP4 ADD MSTORE PUSH2 0x815 DUP2 PUSH2 0x7DC JUMP JUMPDEST SWAP1 POP SWAP2 SWAP1 POP JUMP JUMPDEST PUSH32 0x4E487B7100000000000000000000000000000000000000000000000000000000 PUSH0 MSTORE PUSH1 0x32 PUSH1 0x4 MSTORE PUSH1 0x24 PUSH0 REVERT JUMPDEST PUSH32 0x4E487B7100000000000000000000000000000000000000000000000000000000 PUSH0 MSTORE PUSH1 0x41 PUSH1 0x4 MSTORE PUSH1 0x24 PUSH0 REVERT JUMPDEST PUSH0 DUP2 SWAP1 POP SWAP3 SWAP2 POP POP JUMP JUMPDEST POP JUMP JUMPDEST PUSH0 PUSH2 0x88E PUSH0 DUP4 PUSH2 0x876 JUMP JUMPDEST SWAP2 POP PUSH2 0x899 DUP3 PUSH2 0x880 JUMP JUMPDEST PUSH0 DUP3 ADD SWAP1 POP SWAP2 SWAP1 POP JUMP JUMPDEST PUSH0 PUSH2 0x8AD DUP3 PUSH2 0x883 JUMP JUMPDEST SWAP2 POP DUP2 SWAP1 POP SWAP2 SWAP1 POP JUMP JUMPDEST PUSH32 0x43616C6C206661696C6564000000000000000000000000000000000000000000 PUSH0 DUP3 ADD MSTORE POP JUMP JUMPDEST PUSH0 PUSH2 0x8EB PUSH1 0xB DUP4 PUSH2 0x7A4 JUMP JUMPDEST SWAP2 POP PUSH2 0x8F6 DUP3 PUSH2 0x8B7 JUMP JUMPDEST PUSH1 0x20 DUP3 ADD SWAP1 POP SWAP2 SWAP1 POP JUMP JUMPDEST PUSH0 PUSH1 0x20 DUP3 ADD SWAP1 POP DUP2 DUP2 SUB PUSH0 DUP4 ADD MSTORE PUSH2 0x918 DUP2 PUSH2 0x8DF JUMP JUMPDEST SWAP1 POP SWAP2 SWAP1 POP JUMP JUMPDEST PUSH32 0x4469646E27742073656E6420656E6F7567682100000000000000000000000000 PUSH0 DUP3 ADD MSTORE POP JUMP JUMPDEST PUSH0 PUSH2 0x953 PUSH1 0x13 DUP4 PUSH2 0x7A4 JUMP JUMPDEST SWAP2 POP PUSH2 0x95E DUP3 PUSH2 0x91F JUMP JUMPDEST PUSH1 0x20 DUP3 ADD SWAP1 POP SWAP2 SWAP1 POP JUMP JUMPDEST PUSH0 PUSH1 0x20 DUP3 ADD SWAP1 POP DUP2 DUP2 SUB PUSH0 DUP4 ADD MSTORE PUSH2 0x980 DUP2 PUSH2 0x947 JUMP JUMPDEST SWAP1 POP SWAP2 SWAP1 POP JUMP JUMPDEST PUSH32 0x4E487B7100000000000000000000000000000000000000000000000000000000 PUSH0 MSTORE PUSH1 0x11 PUSH1 0x4 MSTORE PUSH1 0x24 PUSH0 REVERT JUMPDEST PUSH0 PUSH2 0x9BE DUP3 PUSH2 0x66D JUMP JUMPDEST SWAP2 POP PUSH2 0x9C9 DUP4 PUSH2 0x66D JUMP JUMPDEST SWAP3 POP DUP3 DUP3 MUL PUSH2 0x9D7 DUP2 PUSH2 0x66D JUMP JUMPDEST SWAP2 POP DUP3 DUP3 DIV DUP5 EQ DUP4 ISZERO OR PUSH2 0x9EE JUMPI PUSH2 0x9ED PUSH2 0x987 JUMP JUMPDEST JUMPDEST POP SWAP3 SWAP2 POP POP JUMP JUMPDEST PUSH32 0x4E487B7100000000000000000000000000000000000000000000000000000000 PUSH0 MSTORE PUSH1 0x12 PUSH1 0x4 MSTORE PUSH1 0x24 PUSH0 REVERT JUMPDEST PUSH0 PUSH2 0xA2C DUP3 PUSH2 0x66D JUMP JUMPDEST SWAP2 POP PUSH2 0xA37 DUP4 PUSH2 0x66D JUMP JUMPDEST SWAP3 POP DUP3 PUSH2 0xA47 JUMPI PUSH2 0xA46 PUSH2 0x9F5 JUMP JUMPDEST JUMPDEST DUP3 DUP3 DIV SWAP1 POP SWAP3 SWAP2 POP POP JUMP JUMPDEST PUSH0 PUSH10 0xFFFFFFFFFFFFFFFFFFFF DUP3 AND SWAP1 POP SWAP2 SWAP1 POP JUMP JUMPDEST PUSH2 0xA70 DUP2 PUSH2 0xA52 JUMP JUMPDEST DUP2 EQ PUSH2 0xA7A JUMPI PUSH0 DUP1 REVERT JUMPDEST POP JUMP JUMPDEST PUSH0 DUP2 MLOAD SWAP1 POP PUSH2 0xA8B DUP2 PUSH2 0xA67 JUMP JUMPDEST SWAP3 SWAP2 POP POP JUMP JUMPDEST PUSH0 DUP2 SWAP1 POP SWAP2 SWAP1 POP JUMP JUMPDEST PUSH2 0xAA3 DUP2 PUSH2 0xA91 JUMP JUMPDEST DUP2 EQ PUSH2 0xAAD JUMPI PUSH0 DUP1 REVERT JUMPDEST POP JUMP JUMPDEST PUSH0 DUP2 MLOAD SWAP1 POP PUSH2 0xABE DUP2 PUSH2 0xA9A JUMP JUMPDEST SWAP3 SWAP2 POP POP JUMP JUMPDEST PUSH0 DUP2 MLOAD SWAP1 POP PUSH2 0xAD2 DUP2 PUSH2 0x74F JUMP JUMPDEST SWAP3 SWAP2 POP POP JUMP JUMPDEST PUSH0 DUP1 PUSH0 DUP1 PUSH0 PUSH1 0xA0 DUP7 DUP9 SUB SLT ISZERO PUSH2 0xAF1 JUMPI PUSH2 0xAF0 PUSH2 0x69E JUMP JUMPDEST JUMPDEST PUSH0 PUSH2 0xAFE DUP9 DUP3 DUP10 ADD PUSH2 0xA7D JUMP JUMPDEST SWAP6 POP POP PUSH1 0x20 PUSH2 0xB0F DUP9 DUP3 DUP10 ADD PUSH2 0xAB0 JUMP JUMPDEST SWAP5 POP POP PUSH1 0x40 PUSH2 0xB20 DUP9 DUP3 DUP10 ADD PUSH2 0xAC4 JUMP JUMPDEST SWAP4 POP POP PUSH1 0x60 PUSH2 0xB31 DUP9 DUP3 DUP10 ADD PUSH2 0xAC4 JUMP JUMPDEST SWAP3 POP POP PUSH1 0x80 PUSH2 0xB42 DUP9 DUP3 DUP10 ADD PUSH2 0xA7D JUMP JUMPDEST SWAP2 POP POP SWAP3 SWAP6 POP SWAP3 SWAP6 SWAP1 SWAP4 POP JUMP JUMPDEST PUSH0 PUSH2 0xB59 DUP3 PUSH2 0xA91 JUMP JUMPDEST SWAP2 POP PUSH2 0xB64 DUP4 PUSH2 0xA91 JUMP JUMPDEST SWAP3 POP DUP3 DUP3 MUL PUSH2 0xB72 DUP2 PUSH2 0xA91 JUMP JUMPDEST SWAP2 POP PUSH32 0x8000000000000000000000000000000000000000000000000000000000000000 DUP5 EQ PUSH0 DUP5 SLT AND ISZERO PUSH2 0xBA9 JUMPI PUSH2 0xBA8 PUSH2 0x987 JUMP JUMPDEST JUMPDEST DUP3 DUP3 SDIV DUP5 EQ DUP4 ISZERO OR PUSH2 0xBBE JUMPI PUSH2 0xBBD PUSH2 0x987 JUMP JUMPDEST JUMPDEST POP SWAP3 SWAP2 POP POP JUMP INVALID LOG2 PUSH5 0x6970667358 0x22 SLT KECCAK256 SMOD 0xCC PUSH29 0x7C63D177B83ABFD97FF0BF70A7774AF3C4A9A56112BC0109461D0EE485 PUSH5 0x736F6C6343 STOP ADDMOD BYTE STOP CALLER "
				},
				"gasEstimates": {
					"creation": {
						"codeDepositCost": "613400",
						"executionCost": "infinite",
						"totalCost": "infinite"
					},
					"external": {
						"MINIMUM_USD()": "325",
						"addressToAointFunded(address)": "2846",
						"fund()": "infinite",
						"funders(uint256)": "5031",
						"i_owner()": "infinite",
						"withdraw()": "infinite"
					}
				},
				"methodIdentifiers": {
					"MINIMUM_USD()": "6b69a592",
					"addressToAointFunded(address)": "b8ee3585",
					"fund()": "b60d4288",
					"funders(uint256)": "dc0d3dff",
					"i_owner()": "dba6335f",
					"withdraw()": "3ccfd60b"
				}
			},
			"storageLayout": {
				"storage": [
					{
						"astId": 59,
						"contract": "storage-factory/contracts/FundMe.sol:FundMe",
						"label": "funders",
						"offset": 0,
						"slot": "0",
						"type": "t_array(t_address)dyn_storage"
					},
					{
						"astId": 63,
						"contract": "storage-factory/contracts/FundMe.sol:FundMe",
						"label": "addressToAointFunded",
						"offset": 0,
						"slot": "1",
						"type": "t_mapping(t_address,t_uint256)"
					}
				],
				"types": {
					"t_address": {
						"encoding": "inplace",
						"label": "address",
						"numberOfBytes": "20"
					},
					"t_array(t_address)dyn_storage": {
						"base": "t_address",
						"encoding": "dynamic_array",
						"label": "address[]",
						"numberOfBytes": "32"
					},
					"t_mapping(t_address,t_uint256)": {
						"encoding": "mapping",
						"key": "t_address",
						"label": "mapping(address => uint256)",
						"numberOfBytes": "32",
						"value": "t_uint256"
					},
					"t_uint256": {
						"encoding": "inplace",
						"label": "uint256",
						"numberOfBytes": "32"
					}
				}
			},
			"userdoc": {
				"kind": "user",
				"methods": {},
				"version": 1
			}
		}
	}
}