{
	"storage-factory/contracts/FundMe.sol": {
		"FundMe": {
			"abi": [
				{
					"inputs": [
						{
							"internalType": "address",
							"name": "",
							"type": "address"
						}
					],
					"name": "addressToAointFunded",
					"outputs": [
						{
							"internalType": "uint256",
							"name": "",
							"type": "uint256"
						}
					],
					"stateMutability": "view",
					"type": "function"
				},
				{
					"inputs": [],
					"name": "fund",
					"outputs": [],
					"stateMutability": "payable",
					"type": "function"
				},
				{
					"inputs": [
						{
							"internalType": "uint256",
							"name": "",
							"type": "uint256"
						}
					],
					"name": "funders",
					"outputs": [
						{
							"internalType": "address",
							"name": "",
							"type": "address"
						}
					],
					"stateMutability": "view",
					"type": "function"
				},
				{
					"inputs": [],
					"name": "minimumUsd",
					"outputs": [
						{
							"internalType": "uint256",
							"name": "",
							"type": "uint256"
						}
					],
					"stateMutability": "view",
					"type": "function"
				},
				{
					"inputs": [],
					"name": "withdraw",
					"outputs": [],
					"stateMutability": "nonpayable",
					"type": "function"
				}
			],
			"devdoc": {
				"kind": "dev",
				"methods": {},
				"version": 1
			},
			"evm": {
				"assembly": "    /* \"storage-factory/contracts/FundMe.sol\":280:1427  contract FundMe {... */\n  mstore(0x40, 0x80)\n    /* \"storage-factory/contracts/FundMe.sol\":370:372  50 */\n  0x32\n    /* \"storage-factory/contracts/FundMe.sol\":342:372  uint256 public minimumUsd = 50 */\n  0x00\n  sstore\n    /* \"storage-factory/contracts/FundMe.sol\":280:1427  contract FundMe {... */\n  callvalue\n  dup1\n  iszero\n  tag_1\n  jumpi\n  0x00\n  dup1\n  revert\ntag_1:\n  pop\n  dataSize(sub_0)\n  dup1\n  dataOffset(sub_0)\n  0x00\n  codecopy\n  0x00\n  return\nstop\n\nsub_0: assembly {\n        /* \"storage-factory/contracts/FundMe.sol\":280:1427  contract FundMe {... */\n      mstore(0x40, 0x80)\n      jumpi(tag_1, lt(calldatasize, 0x04))\n      shr(0xe0, calldataload(0x00))\n      dup1\n      0x098de820\n      eq\n      tag_2\n      jumpi\n      dup1\n      0x3ccfd60b\n      eq\n      tag_3\n      jumpi\n      dup1\n      0xb60d4288\n      eq\n      tag_4\n      jumpi\n      dup1\n      0xb8ee3585\n      eq\n      tag_5\n      jumpi\n      dup1\n      0xdc0d3dff\n      eq\n      tag_6\n      jumpi\n    tag_1:\n      0x00\n      dup1\n      revert\n        /* \"storage-factory/contracts/FundMe.sol\":342:372  uint256 public minimumUsd = 50 */\n    tag_2:\n      callvalue\n      dup1\n      iszero\n      tag_7\n      jumpi\n      0x00\n      dup1\n      revert\n    tag_7:\n      pop\n      tag_8\n      tag_9\n      jump\t// in\n    tag_8:\n      mload(0x40)\n      tag_10\n      swap2\n      swap1\n      tag_11\n      jump\t// in\n    tag_10:\n      mload(0x40)\n      dup1\n      swap2\n      sub\n      swap1\n      return\n        /* \"storage-factory/contracts/FundMe.sol\":1396:1425  function withdraw() public {} */\n    tag_3:\n      callvalue\n      dup1\n      iszero\n      tag_12\n      jumpi\n      0x00\n      dup1\n      revert\n    tag_12:\n      pop\n      tag_13\n      tag_14\n      jump\t// in\n    tag_13:\n      stop\n        /* \"storage-factory/contracts/FundMe.sol\":699:1365  function fund() public payable {... */\n    tag_4:\n      tag_15\n      tag_16\n      jump\t// in\n    tag_15:\n      stop\n        /* \"storage-factory/contracts/FundMe.sol\":461:516  mapping(address => uint256) public addressToAointFunded */\n    tag_5:\n      callvalue\n      dup1\n      iszero\n      tag_17\n      jumpi\n      0x00\n      dup1\n      revert\n    tag_17:\n      pop\n      tag_18\n      0x04\n      dup1\n      calldatasize\n      sub\n      dup2\n      add\n      swap1\n      tag_19\n      swap2\n      swap1\n      tag_20\n      jump\t// in\n    tag_19:\n      tag_21\n      jump\t// in\n    tag_18:\n      mload(0x40)\n      tag_22\n      swap2\n      swap1\n      tag_11\n      jump\t// in\n    tag_22:\n      mload(0x40)\n      dup1\n      swap2\n      sub\n      swap1\n      return\n        /* \"storage-factory/contracts/FundMe.sol\":398:422  address[] public funders */\n    tag_6:\n      callvalue\n      dup1\n      iszero\n      tag_23\n      jumpi\n      0x00\n      dup1\n      revert\n    tag_23:\n      pop\n      tag_24\n      0x04\n      dup1\n      calldatasize\n      sub\n      dup2\n      add\n      swap1\n      tag_25\n      swap2\n      swap1\n      tag_26\n      jump\t// in\n    tag_25:\n      tag_27\n      jump\t// in\n    tag_24:\n      mload(0x40)\n      tag_28\n      swap2\n      swap1\n      tag_29\n      jump\t// in\n    tag_28:\n      mload(0x40)\n      dup1\n      swap2\n      sub\n      swap1\n      return\n        /* \"storage-factory/contracts/FundMe.sol\":342:372  uint256 public minimumUsd = 50 */\n    tag_9:\n      sload(0x00)\n      dup2\n      jump\t// out\n        /* \"storage-factory/contracts/FundMe.sol\":1396:1425  function withdraw() public {} */\n    tag_14:\n      jump\t// out\n        /* \"storage-factory/contracts/FundMe.sol\":699:1365  function fund() public payable {... */\n    tag_16:\n        /* \"storage-factory/contracts/FundMe.sol\":1215:1225  minimumUsd */\n      sload(0x00)\n        /* \"storage-factory/contracts/FundMe.sol\":1183:1212  msg.value.getConversionRate() */\n      tag_32\n        /* \"storage-factory/contracts/FundMe.sol\":1183:1192  msg.value */\n      callvalue\n        /* \"storage-factory/contracts/FundMe.sol\":1183:1210  msg.value.getConversionRate */\n      tag_33\n        /* \"storage-factory/contracts/FundMe.sol\":1183:1212  msg.value.getConversionRate() */\n      jump\t// in\n    tag_32:\n        /* \"storage-factory/contracts/FundMe.sol\":1183:1225  msg.value.getConversionRate() > minimumUsd */\n      gt\n        /* \"storage-factory/contracts/FundMe.sol\":1162:1270  require(... */\n      tag_34\n      jumpi\n      mload(0x40)\n      0x08c379a000000000000000000000000000000000000000000000000000000000\n      dup2\n      mstore\n      0x04\n      add\n      tag_35\n      swap1\n      tag_36\n      jump\t// in\n    tag_35:\n      mload(0x40)\n      dup1\n      swap2\n      sub\n      swap1\n      revert\n    tag_34:\n        /* \"storage-factory/contracts/FundMe.sol\":1280:1287  funders */\n      0x01\n        /* \"storage-factory/contracts/FundMe.sol\":1293:1303  msg.sender */\n      caller\n        /* \"storage-factory/contracts/FundMe.sol\":1280:1304  funders.push(msg.sender) */\n      swap1\n      dup1\n      0x01\n      dup2\n      sload\n      add\n      dup1\n      dup3\n      sstore\n      dup1\n      swap2\n      pop\n      pop\n      0x01\n      swap1\n      sub\n      swap1\n      0x00\n      mstore\n      keccak256(0x00, 0x20)\n      add\n      0x00\n      swap1\n      swap2\n      swap1\n      swap2\n      swap1\n      swap2\n      0x0100\n      exp\n      dup2\n      sload\n      dup2\n      0xffffffffffffffffffffffffffffffffffffffff\n      mul\n      not\n      and\n      swap1\n      dup4\n      0xffffffffffffffffffffffffffffffffffffffff\n      and\n      mul\n      or\n      swap1\n      sstore\n      pop\n        /* \"storage-factory/contracts/FundMe.sol\":1349:1358  msg.value */\n      callvalue\n        /* \"storage-factory/contracts/FundMe.sol\":1314:1334  addressToAointFunded */\n      0x02\n        /* \"storage-factory/contracts/FundMe.sol\":1314:1346  addressToAointFunded[msg.sender] */\n      0x00\n        /* \"storage-factory/contracts/FundMe.sol\":1335:1345  msg.sender */\n      caller\n        /* \"storage-factory/contracts/FundMe.sol\":1314:1346  addressToAointFunded[msg.sender] */\n      0xffffffffffffffffffffffffffffffffffffffff\n      and\n      0xffffffffffffffffffffffffffffffffffffffff\n      and\n      dup2\n      mstore\n      0x20\n      add\n      swap1\n      dup2\n      mstore\n      0x20\n      add\n      0x00\n      keccak256\n        /* \"storage-factory/contracts/FundMe.sol\":1314:1358  addressToAointFunded[msg.sender] = msg.value */\n      dup2\n      swap1\n      sstore\n      pop\n        /* \"storage-factory/contracts/FundMe.sol\":699:1365  function fund() public payable {... */\n      jump\t// out\n        /* \"storage-factory/contracts/FundMe.sol\":461:516  mapping(address => uint256) public addressToAointFunded */\n    tag_21:\n      mstore(0x20, 0x02)\n      dup1\n      0x00\n      mstore\n      keccak256(0x00, 0x40)\n      0x00\n      swap2\n      pop\n      swap1\n      pop\n      sload\n      dup2\n      jump\t// out\n        /* \"storage-factory/contracts/FundMe.sol\":398:422  address[] public funders */\n    tag_27:\n      0x01\n      dup2\n      dup2\n      sload\n      dup2\n      lt\n      tag_38\n      jumpi\n      0x00\n      dup1\n      revert\n    tag_38:\n      swap1\n      0x00\n      mstore\n      keccak256(0x00, 0x20)\n      add\n      0x00\n      swap2\n      pop\n      sload\n      swap1\n      0x0100\n      exp\n      swap1\n      div\n      0xffffffffffffffffffffffffffffffffffffffff\n      and\n      dup2\n      jump\t// out\n        /* \"storage-factory/contracts/PriceConverter.sol\":948:1215  function getConversionRate(uint256 ethAmount)... */\n    tag_33:\n        /* \"storage-factory/contracts/PriceConverter.sol\":1041:1048  uint256 */\n      0x00\n        /* \"storage-factory/contracts/PriceConverter.sol\":1064:1078  uint256 ethPic */\n      dup1\n        /* \"storage-factory/contracts/PriceConverter.sol\":1081:1091  getPrice() */\n      tag_41\n        /* \"storage-factory/contracts/PriceConverter.sol\":1081:1089  getPrice */\n      tag_42\n        /* \"storage-factory/contracts/PriceConverter.sol\":1081:1091  getPrice() */\n      jump\t// in\n    tag_41:\n        /* \"storage-factory/contracts/PriceConverter.sol\":1064:1091  uint256 ethPic = getPrice() */\n      swap1\n      pop\n        /* \"storage-factory/contracts/PriceConverter.sol\":1125:1147  uint256 ethAmountInUsd */\n      0x00\n        /* \"storage-factory/contracts/PriceConverter.sol\":1173:1177  1e18 */\n      0x0de0b6b3a7640000\n        /* \"storage-factory/contracts/PriceConverter.sol\":1160:1169  ethAmount */\n      dup5\n        /* \"storage-factory/contracts/PriceConverter.sol\":1151:1157  ethPic */\n      dup4\n        /* \"storage-factory/contracts/PriceConverter.sol\":1151:1169  ethPic * ethAmount */\n      tag_43\n      swap2\n      swap1\n      tag_44\n      jump\t// in\n    tag_43:\n        /* \"storage-factory/contracts/PriceConverter.sol\":1150:1177  (ethPic * ethAmount) / 1e18 */\n      tag_45\n      swap2\n      swap1\n      tag_46\n      jump\t// in\n    tag_45:\n        /* \"storage-factory/contracts/PriceConverter.sol\":1125:1177  uint256 ethAmountInUsd = (ethPic * ethAmount) / 1e18 */\n      swap1\n      pop\n        /* \"storage-factory/contracts/PriceConverter.sol\":1194:1208  ethAmountInUsd */\n      dup1\n        /* \"storage-factory/contracts/PriceConverter.sol\":1187:1208  return ethAmountInUsd */\n      swap3\n      pop\n      pop\n      pop\n        /* \"storage-factory/contracts/PriceConverter.sol\":948:1215  function getConversionRate(uint256 ethAmount)... */\n      swap2\n      swap1\n      pop\n      jump\t// out\n        /* \"storage-factory/contracts/PriceConverter.sol\":178:708  function getPrice() internal view returns (uint256) {... */\n    tag_42:\n        /* \"storage-factory/contracts/PriceConverter.sol\":221:228  uint256 */\n      0x00\n        /* \"storage-factory/contracts/PriceConverter.sol\":400:431  AggregatorV3Interface priceFeed */\n      dup1\n        /* \"storage-factory/contracts/PriceConverter.sol\":469:511  0x694AA1769357215DE4FAC081bf1f309aDC325306 */\n      0x694aa1769357215de4fac081bf1f309adc325306\n        /* \"storage-factory/contracts/PriceConverter.sol\":400:521  AggregatorV3Interface priceFeed = AggregatorV3Interface(... */\n      swap1\n      pop\n        /* \"storage-factory/contracts/PriceConverter.sol\":534:546  int256 price */\n      0x00\n        /* \"storage-factory/contracts/PriceConverter.sol\":556:565  priceFeed */\n      dup2\n        /* \"storage-factory/contracts/PriceConverter.sol\":556:581  priceFeed.latestRoundData */\n      0xffffffffffffffffffffffffffffffffffffffff\n      and\n      0xfeaf968c\n        /* \"storage-factory/contracts/PriceConverter.sol\":556:583  priceFeed.latestRoundData() */\n      mload(0x40)\n      dup2\n      0xffffffff\n      and\n      0xe0\n      shl\n      dup2\n      mstore\n      0x04\n      add\n      0xa0\n      mload(0x40)\n      dup1\n      dup4\n      sub\n      dup2\n      dup7\n      dup1\n      extcodesize\n      iszero\n      dup1\n      iszero\n      tag_48\n      jumpi\n      0x00\n      dup1\n      revert\n    tag_48:\n      pop\n      gas\n      staticcall\n      iszero\n      dup1\n      iszero\n      tag_50\n      jumpi\n      returndatasize\n      0x00\n      dup1\n      returndatacopy\n      revert(0x00, returndatasize)\n    tag_50:\n      pop\n      pop\n      pop\n      pop\n      mload(0x40)\n      returndatasize\n      not(0x1f)\n      0x1f\n      dup3\n      add\n      and\n      dup3\n      add\n      dup1\n      0x40\n      mstore\n      pop\n      dup2\n      add\n      swap1\n      tag_51\n      swap2\n      swap1\n      tag_52\n      jump\t// in\n    tag_51:\n        /* \"storage-factory/contracts/PriceConverter.sol\":531:583  (, int256 price, , , ) = priceFeed.latestRoundData() */\n      pop\n      pop\n      pop\n      swap2\n      pop\n      pop\n        /* \"storage-factory/contracts/PriceConverter.sol\":672:676  1e10 */\n      0x02540be400\n        /* \"storage-factory/contracts/PriceConverter.sol\":664:669  price */\n      dup2\n        /* \"storage-factory/contracts/PriceConverter.sol\":664:676  price * 1e10 */\n      tag_53\n      swap2\n      swap1\n      tag_54\n      jump\t// in\n    tag_53:\n        /* \"storage-factory/contracts/PriceConverter.sol\":649:677  return uint256(price * 1e10) */\n      swap3\n      pop\n      pop\n      pop\n        /* \"storage-factory/contracts/PriceConverter.sol\":178:708  function getPrice() internal view returns (uint256) {... */\n      swap1\n      jump\t// out\n        /* \"#utility.yul\":7:84   */\n    tag_55:\n        /* \"#utility.yul\":44:51   */\n      0x00\n        /* \"#utility.yul\":73:78   */\n      dup2\n        /* \"#utility.yul\":62:78   */\n      swap1\n      pop\n        /* \"#utility.yul\":7:84   */\n      swap2\n      swap1\n      pop\n      jump\t// out\n        /* \"#utility.yul\":90:208   */\n    tag_56:\n        /* \"#utility.yul\":177:201   */\n      tag_82\n        /* \"#utility.yul\":195:200   */\n      dup2\n        /* \"#utility.yul\":177:201   */\n      tag_55\n      jump\t// in\n    tag_82:\n        /* \"#utility.yul\":172:175   */\n      dup3\n        /* \"#utility.yul\":165:202   */\n      mstore\n        /* \"#utility.yul\":90:208   */\n      pop\n      pop\n      jump\t// out\n        /* \"#utility.yul\":214:436   */\n    tag_11:\n        /* \"#utility.yul\":307:311   */\n      0x00\n        /* \"#utility.yul\":345:347   */\n      0x20\n        /* \"#utility.yul\":334:343   */\n      dup3\n        /* \"#utility.yul\":330:348   */\n      add\n        /* \"#utility.yul\":322:348   */\n      swap1\n      pop\n        /* \"#utility.yul\":358:429   */\n      tag_84\n        /* \"#utility.yul\":426:427   */\n      0x00\n        /* \"#utility.yul\":415:424   */\n      dup4\n        /* \"#utility.yul\":411:428   */\n      add\n        /* \"#utility.yul\":402:408   */\n      dup5\n        /* \"#utility.yul\":358:429   */\n      tag_56\n      jump\t// in\n    tag_84:\n        /* \"#utility.yul\":214:436   */\n      swap3\n      swap2\n      pop\n      pop\n      jump\t// out\n        /* \"#utility.yul\":523:640   */\n    tag_58:\n        /* \"#utility.yul\":632:633   */\n      0x00\n        /* \"#utility.yul\":629:630   */\n      dup1\n        /* \"#utility.yul\":622:634   */\n      revert\n        /* \"#utility.yul\":769:895   */\n    tag_60:\n        /* \"#utility.yul\":806:813   */\n      0x00\n        /* \"#utility.yul\":846:888   */\n      0xffffffffffffffffffffffffffffffffffffffff\n        /* \"#utility.yul\":839:844   */\n      dup3\n        /* \"#utility.yul\":835:889   */\n      and\n        /* \"#utility.yul\":824:889   */\n      swap1\n      pop\n        /* \"#utility.yul\":769:895   */\n      swap2\n      swap1\n      pop\n      jump\t// out\n        /* \"#utility.yul\":901:997   */\n    tag_61:\n        /* \"#utility.yul\":938:945   */\n      0x00\n        /* \"#utility.yul\":967:991   */\n      tag_90\n        /* \"#utility.yul\":985:990   */\n      dup3\n        /* \"#utility.yul\":967:991   */\n      tag_60\n      jump\t// in\n    tag_90:\n        /* \"#utility.yul\":956:991   */\n      swap1\n      pop\n        /* \"#utility.yul\":901:997   */\n      swap2\n      swap1\n      pop\n      jump\t// out\n        /* \"#utility.yul\":1003:1125   */\n    tag_62:\n        /* \"#utility.yul\":1076:1100   */\n      tag_92\n        /* \"#utility.yul\":1094:1099   */\n      dup2\n        /* \"#utility.yul\":1076:1100   */\n      tag_61\n      jump\t// in\n    tag_92:\n        /* \"#utility.yul\":1069:1074   */\n      dup2\n        /* \"#utility.yul\":1066:1101   */\n      eq\n        /* \"#utility.yul\":1056:1119   */\n      tag_93\n      jumpi\n        /* \"#utility.yul\":1115:1116   */\n      0x00\n        /* \"#utility.yul\":1112:1113   */\n      dup1\n        /* \"#utility.yul\":1105:1117   */\n      revert\n        /* \"#utility.yul\":1056:1119   */\n    tag_93:\n        /* \"#utility.yul\":1003:1125   */\n      pop\n      jump\t// out\n        /* \"#utility.yul\":1131:1270   */\n    tag_63:\n        /* \"#utility.yul\":1177:1182   */\n      0x00\n        /* \"#utility.yul\":1215:1221   */\n      dup2\n        /* \"#utility.yul\":1202:1222   */\n      calldataload\n        /* \"#utility.yul\":1193:1222   */\n      swap1\n      pop\n        /* \"#utility.yul\":1231:1264   */\n      tag_95\n        /* \"#utility.yul\":1258:1263   */\n      dup2\n        /* \"#utility.yul\":1231:1264   */\n      tag_62\n      jump\t// in\n    tag_95:\n        /* \"#utility.yul\":1131:1270   */\n      swap3\n      swap2\n      pop\n      pop\n      jump\t// out\n        /* \"#utility.yul\":1276:1605   */\n    tag_20:\n        /* \"#utility.yul\":1335:1341   */\n      0x00\n        /* \"#utility.yul\":1384:1386   */\n      0x20\n        /* \"#utility.yul\":1372:1381   */\n      dup3\n        /* \"#utility.yul\":1363:1370   */\n      dup5\n        /* \"#utility.yul\":1359:1382   */\n      sub\n        /* \"#utility.yul\":1355:1387   */\n      slt\n        /* \"#utility.yul\":1352:1471   */\n      iszero\n      tag_97\n      jumpi\n        /* \"#utility.yul\":1390:1469   */\n      tag_98\n      tag_58\n      jump\t// in\n    tag_98:\n        /* \"#utility.yul\":1352:1471   */\n    tag_97:\n        /* \"#utility.yul\":1510:1511   */\n      0x00\n        /* \"#utility.yul\":1535:1588   */\n      tag_99\n        /* \"#utility.yul\":1580:1587   */\n      dup5\n        /* \"#utility.yul\":1571:1577   */\n      dup3\n        /* \"#utility.yul\":1560:1569   */\n      dup6\n        /* \"#utility.yul\":1556:1578   */\n      add\n        /* \"#utility.yul\":1535:1588   */\n      tag_63\n      jump\t// in\n    tag_99:\n        /* \"#utility.yul\":1525:1588   */\n      swap2\n      pop\n        /* \"#utility.yul\":1481:1598   */\n      pop\n        /* \"#utility.yul\":1276:1605   */\n      swap3\n      swap2\n      pop\n      pop\n      jump\t// out\n        /* \"#utility.yul\":1611:1733   */\n    tag_64:\n        /* \"#utility.yul\":1684:1708   */\n      tag_101\n        /* \"#utility.yul\":1702:1707   */\n      dup2\n        /* \"#utility.yul\":1684:1708   */\n      tag_55\n      jump\t// in\n    tag_101:\n        /* \"#utility.yul\":1677:1682   */\n      dup2\n        /* \"#utility.yul\":1674:1709   */\n      eq\n        /* \"#utility.yul\":1664:1727   */\n      tag_102\n      jumpi\n        /* \"#utility.yul\":1723:1724   */\n      0x00\n        /* \"#utility.yul\":1720:1721   */\n      dup1\n        /* \"#utility.yul\":1713:1725   */\n      revert\n        /* \"#utility.yul\":1664:1727   */\n    tag_102:\n        /* \"#utility.yul\":1611:1733   */\n      pop\n      jump\t// out\n        /* \"#utility.yul\":1739:1878   */\n    tag_65:\n        /* \"#utility.yul\":1785:1790   */\n      0x00\n        /* \"#utility.yul\":1823:1829   */\n      dup2\n        /* \"#utility.yul\":1810:1830   */\n      calldataload\n        /* \"#utility.yul\":1801:1830   */\n      swap1\n      pop\n        /* \"#utility.yul\":1839:1872   */\n      tag_104\n        /* \"#utility.yul\":1866:1871   */\n      dup2\n        /* \"#utility.yul\":1839:1872   */\n      tag_64\n      jump\t// in\n    tag_104:\n        /* \"#utility.yul\":1739:1878   */\n      swap3\n      swap2\n      pop\n      pop\n      jump\t// out\n        /* \"#utility.yul\":1884:2213   */\n    tag_26:\n        /* \"#utility.yul\":1943:1949   */\n      0x00\n        /* \"#utility.yul\":1992:1994   */\n      0x20\n        /* \"#utility.yul\":1980:1989   */\n      dup3\n        /* \"#utility.yul\":1971:1978   */\n      dup5\n        /* \"#utility.yul\":1967:1990   */\n      sub\n        /* \"#utility.yul\":1963:1995   */\n      slt\n        /* \"#utility.yul\":1960:2079   */\n      iszero\n      tag_106\n      jumpi\n        /* \"#utility.yul\":1998:2077   */\n      tag_107\n      tag_58\n      jump\t// in\n    tag_107:\n        /* \"#utility.yul\":1960:2079   */\n    tag_106:\n        /* \"#utility.yul\":2118:2119   */\n      0x00\n        /* \"#utility.yul\":2143:2196   */\n      tag_108\n        /* \"#utility.yul\":2188:2195   */\n      dup5\n        /* \"#utility.yul\":2179:2185   */\n      dup3\n        /* \"#utility.yul\":2168:2177   */\n      dup6\n        /* \"#utility.yul\":2164:2186   */\n      add\n        /* \"#utility.yul\":2143:2196   */\n      tag_65\n      jump\t// in\n    tag_108:\n        /* \"#utility.yul\":2133:2196   */\n      swap2\n      pop\n        /* \"#utility.yul\":2089:2206   */\n      pop\n        /* \"#utility.yul\":1884:2213   */\n      swap3\n      swap2\n      pop\n      pop\n      jump\t// out\n        /* \"#utility.yul\":2219:2337   */\n    tag_66:\n        /* \"#utility.yul\":2306:2330   */\n      tag_110\n        /* \"#utility.yul\":2324:2329   */\n      dup2\n        /* \"#utility.yul\":2306:2330   */\n      tag_61\n      jump\t// in\n    tag_110:\n        /* \"#utility.yul\":2301:2304   */\n      dup3\n        /* \"#utility.yul\":2294:2331   */\n      mstore\n        /* \"#utility.yul\":2219:2337   */\n      pop\n      pop\n      jump\t// out\n        /* \"#utility.yul\":2343:2565   */\n    tag_29:\n        /* \"#utility.yul\":2436:2440   */\n      0x00\n        /* \"#utility.yul\":2474:2476   */\n      0x20\n        /* \"#utility.yul\":2463:2472   */\n      dup3\n        /* \"#utility.yul\":2459:2477   */\n      add\n        /* \"#utility.yul\":2451:2477   */\n      swap1\n      pop\n        /* \"#utility.yul\":2487:2558   */\n      tag_112\n        /* \"#utility.yul\":2555:2556   */\n      0x00\n        /* \"#utility.yul\":2544:2553   */\n      dup4\n        /* \"#utility.yul\":2540:2557   */\n      add\n        /* \"#utility.yul\":2531:2537   */\n      dup5\n        /* \"#utility.yul\":2487:2558   */\n      tag_66\n      jump\t// in\n    tag_112:\n        /* \"#utility.yul\":2343:2565   */\n      swap3\n      swap2\n      pop\n      pop\n      jump\t// out\n        /* \"#utility.yul\":2571:2740   */\n    tag_67:\n        /* \"#utility.yul\":2655:2666   */\n      0x00\n        /* \"#utility.yul\":2689:2695   */\n      dup3\n        /* \"#utility.yul\":2684:2687   */\n      dup3\n        /* \"#utility.yul\":2677:2696   */\n      mstore\n        /* \"#utility.yul\":2729:2733   */\n      0x20\n        /* \"#utility.yul\":2724:2727   */\n      dup3\n        /* \"#utility.yul\":2720:2734   */\n      add\n        /* \"#utility.yul\":2705:2734   */\n      swap1\n      pop\n        /* \"#utility.yul\":2571:2740   */\n      swap3\n      swap2\n      pop\n      pop\n      jump\t// out\n        /* \"#utility.yul\":2746:2915   */\n    tag_68:\n        /* \"#utility.yul\":2886:2907   */\n      0x4469646e27742073656e6420656e6f7567682100000000000000000000000000\n        /* \"#utility.yul\":2882:2883   */\n      0x00\n        /* \"#utility.yul\":2874:2880   */\n      dup3\n        /* \"#utility.yul\":2870:2884   */\n      add\n        /* \"#utility.yul\":2863:2908   */\n      mstore\n        /* \"#utility.yul\":2746:2915   */\n      pop\n      jump\t// out\n        /* \"#utility.yul\":2921:3287   */\n    tag_69:\n        /* \"#utility.yul\":3063:3066   */\n      0x00\n        /* \"#utility.yul\":3084:3151   */\n      tag_116\n        /* \"#utility.yul\":3148:3150   */\n      0x13\n        /* \"#utility.yul\":3143:3146   */\n      dup4\n        /* \"#utility.yul\":3084:3151   */\n      tag_67\n      jump\t// in\n    tag_116:\n        /* \"#utility.yul\":3077:3151   */\n      swap2\n      pop\n        /* \"#utility.yul\":3160:3253   */\n      tag_117\n        /* \"#utility.yul\":3249:3252   */\n      dup3\n        /* \"#utility.yul\":3160:3253   */\n      tag_68\n      jump\t// in\n    tag_117:\n        /* \"#utility.yul\":3278:3280   */\n      0x20\n        /* \"#utility.yul\":3273:3276   */\n      dup3\n        /* \"#utility.yul\":3269:3281   */\n      add\n        /* \"#utility.yul\":3262:3281   */\n      swap1\n      pop\n        /* \"#utility.yul\":2921:3287   */\n      swap2\n      swap1\n      pop\n      jump\t// out\n        /* \"#utility.yul\":3293:3712   */\n    tag_36:\n        /* \"#utility.yul\":3459:3463   */\n      0x00\n        /* \"#utility.yul\":3497:3499   */\n      0x20\n        /* \"#utility.yul\":3486:3495   */\n      dup3\n        /* \"#utility.yul\":3482:3500   */\n      add\n        /* \"#utility.yul\":3474:3500   */\n      swap1\n      pop\n        /* \"#utility.yul\":3546:3555   */\n      dup2\n        /* \"#utility.yul\":3540:3544   */\n      dup2\n        /* \"#utility.yul\":3536:3556   */\n      sub\n        /* \"#utility.yul\":3532:3533   */\n      0x00\n        /* \"#utility.yul\":3521:3530   */\n      dup4\n        /* \"#utility.yul\":3517:3534   */\n      add\n        /* \"#utility.yul\":3510:3557   */\n      mstore\n        /* \"#utility.yul\":3574:3705   */\n      tag_119\n        /* \"#utility.yul\":3700:3704   */\n      dup2\n        /* \"#utility.yul\":3574:3705   */\n      tag_69\n      jump\t// in\n    tag_119:\n        /* \"#utility.yul\":3566:3705   */\n      swap1\n      pop\n        /* \"#utility.yul\":3293:3712   */\n      swap2\n      swap1\n      pop\n      jump\t// out\n        /* \"#utility.yul\":3718:3898   */\n    tag_70:\n        /* \"#utility.yul\":3766:3843   */\n      0x4e487b7100000000000000000000000000000000000000000000000000000000\n        /* \"#utility.yul\":3763:3764   */\n      0x00\n        /* \"#utility.yul\":3756:3844   */\n      mstore\n        /* \"#utility.yul\":3863:3867   */\n      0x11\n        /* \"#utility.yul\":3860:3861   */\n      0x04\n        /* \"#utility.yul\":3853:3868   */\n      mstore\n        /* \"#utility.yul\":3887:3891   */\n      0x24\n        /* \"#utility.yul\":3884:3885   */\n      0x00\n        /* \"#utility.yul\":3877:3892   */\n      revert\n        /* \"#utility.yul\":3904:4252   */\n    tag_44:\n        /* \"#utility.yul\":3944:3951   */\n      0x00\n        /* \"#utility.yul\":3967:3987   */\n      tag_122\n        /* \"#utility.yul\":3985:3986   */\n      dup3\n        /* \"#utility.yul\":3967:3987   */\n      tag_55\n      jump\t// in\n    tag_122:\n        /* \"#utility.yul\":3962:3987   */\n      swap2\n      pop\n        /* \"#utility.yul\":4001:4021   */\n      tag_123\n        /* \"#utility.yul\":4019:4020   */\n      dup4\n        /* \"#utility.yul\":4001:4021   */\n      tag_55\n      jump\t// in\n    tag_123:\n        /* \"#utility.yul\":3996:4021   */\n      swap3\n      pop\n        /* \"#utility.yul\":4189:4190   */\n      dup2\n        /* \"#utility.yul\":4121:4187   */\n      0xffffffffffffffffffffffffffffffffffffffffffffffffffffffffffffffff\n        /* \"#utility.yul\":4117:4191   */\n      div\n        /* \"#utility.yul\":4114:4115   */\n      dup4\n        /* \"#utility.yul\":4111:4192   */\n      gt\n        /* \"#utility.yul\":4106:4107   */\n      dup3\n        /* \"#utility.yul\":4099:4108   */\n      iszero\n        /* \"#utility.yul\":4092:4109   */\n      iszero\n        /* \"#utility.yul\":4088:4193   */\n      and\n        /* \"#utility.yul\":4085:4216   */\n      iszero\n      tag_124\n      jumpi\n        /* \"#utility.yul\":4196:4214   */\n      tag_125\n      tag_70\n      jump\t// in\n    tag_125:\n        /* \"#utility.yul\":4085:4216   */\n    tag_124:\n        /* \"#utility.yul\":4244:4245   */\n      dup3\n        /* \"#utility.yul\":4241:4242   */\n      dup3\n        /* \"#utility.yul\":4237:4246   */\n      mul\n        /* \"#utility.yul\":4226:4246   */\n      swap1\n      pop\n        /* \"#utility.yul\":3904:4252   */\n      swap3\n      swap2\n      pop\n      pop\n      jump\t// out\n        /* \"#utility.yul\":4258:4438   */\n    tag_71:\n        /* \"#utility.yul\":4306:4383   */\n      0x4e487b7100000000000000000000000000000000000000000000000000000000\n        /* \"#utility.yul\":4303:4304   */\n      0x00\n        /* \"#utility.yul\":4296:4384   */\n      mstore\n        /* \"#utility.yul\":4403:4407   */\n      0x12\n        /* \"#utility.yul\":4400:4401   */\n      0x04\n        /* \"#utility.yul\":4393:4408   */\n      mstore\n        /* \"#utility.yul\":4427:4431   */\n      0x24\n        /* \"#utility.yul\":4424:4425   */\n      0x00\n        /* \"#utility.yul\":4417:4432   */\n      revert\n        /* \"#utility.yul\":4444:4629   */\n    tag_46:\n        /* \"#utility.yul\":4484:4485   */\n      0x00\n        /* \"#utility.yul\":4501:4521   */\n      tag_128\n        /* \"#utility.yul\":4519:4520   */\n      dup3\n        /* \"#utility.yul\":4501:4521   */\n      tag_55\n      jump\t// in\n    tag_128:\n        /* \"#utility.yul\":4496:4521   */\n      swap2\n      pop\n        /* \"#utility.yul\":4535:4555   */\n      tag_129\n        /* \"#utility.yul\":4553:4554   */\n      dup4\n        /* \"#utility.yul\":4535:4555   */\n      tag_55\n      jump\t// in\n    tag_129:\n        /* \"#utility.yul\":4530:4555   */\n      swap3\n      pop\n        /* \"#utility.yul\":4574:4575   */\n      dup3\n        /* \"#utility.yul\":4564:4599   */\n      tag_130\n      jumpi\n        /* \"#utility.yul\":4579:4597   */\n      tag_131\n      tag_71\n      jump\t// in\n    tag_131:\n        /* \"#utility.yul\":4564:4599   */\n    tag_130:\n        /* \"#utility.yul\":4621:4622   */\n      dup3\n        /* \"#utility.yul\":4618:4619   */\n      dup3\n        /* \"#utility.yul\":4614:4623   */\n      div\n        /* \"#utility.yul\":4609:4623   */\n      swap1\n      pop\n        /* \"#utility.yul\":4444:4629   */\n      swap3\n      swap2\n      pop\n      pop\n      jump\t// out\n        /* \"#utility.yul\":4635:4740   */\n    tag_72:\n        /* \"#utility.yul\":4671:4678   */\n      0x00\n        /* \"#utility.yul\":4711:4733   */\n      0xffffffffffffffffffff\n        /* \"#utility.yul\":4704:4709   */\n      dup3\n        /* \"#utility.yul\":4700:4734   */\n      and\n        /* \"#utility.yul\":4689:4734   */\n      swap1\n      pop\n        /* \"#utility.yul\":4635:4740   */\n      swap2\n      swap1\n      pop\n      jump\t// out\n        /* \"#utility.yul\":4746:4866   */\n    tag_73:\n        /* \"#utility.yul\":4818:4841   */\n      tag_134\n        /* \"#utility.yul\":4835:4840   */\n      dup2\n        /* \"#utility.yul\":4818:4841   */\n      tag_72\n      jump\t// in\n    tag_134:\n        /* \"#utility.yul\":4811:4816   */\n      dup2\n        /* \"#utility.yul\":4808:4842   */\n      eq\n        /* \"#utility.yul\":4798:4860   */\n      tag_135\n      jumpi\n        /* \"#utility.yul\":4856:4857   */\n      0x00\n        /* \"#utility.yul\":4853:4854   */\n      dup1\n        /* \"#utility.yul\":4846:4858   */\n      revert\n        /* \"#utility.yul\":4798:4860   */\n    tag_135:\n        /* \"#utility.yul\":4746:4866   */\n      pop\n      jump\t// out\n        /* \"#utility.yul\":4872:5013   */\n    tag_74:\n        /* \"#utility.yul\":4928:4933   */\n      0x00\n        /* \"#utility.yul\":4959:4965   */\n      dup2\n        /* \"#utility.yul\":4953:4966   */\n      mload\n        /* \"#utility.yul\":4944:4966   */\n      swap1\n      pop\n        /* \"#utility.yul\":4975:5007   */\n      tag_137\n        /* \"#utility.yul\":5001:5006   */\n      dup2\n        /* \"#utility.yul\":4975:5007   */\n      tag_73\n      jump\t// in\n    tag_137:\n        /* \"#utility.yul\":4872:5013   */\n      swap3\n      swap2\n      pop\n      pop\n      jump\t// out\n        /* \"#utility.yul\":5019:5095   */\n    tag_75:\n        /* \"#utility.yul\":5055:5062   */\n      0x00\n        /* \"#utility.yul\":5084:5089   */\n      dup2\n        /* \"#utility.yul\":5073:5089   */\n      swap1\n      pop\n        /* \"#utility.yul\":5019:5095   */\n      swap2\n      swap1\n      pop\n      jump\t// out\n        /* \"#utility.yul\":5101:5221   */\n    tag_76:\n        /* \"#utility.yul\":5173:5196   */\n      tag_140\n        /* \"#utility.yul\":5190:5195   */\n      dup2\n        /* \"#utility.yul\":5173:5196   */\n      tag_75\n      jump\t// in\n    tag_140:\n        /* \"#utility.yul\":5166:5171   */\n      dup2\n        /* \"#utility.yul\":5163:5197   */\n      eq\n        /* \"#utility.yul\":5153:5215   */\n      tag_141\n      jumpi\n        /* \"#utility.yul\":5211:5212   */\n      0x00\n        /* \"#utility.yul\":5208:5209   */\n      dup1\n        /* \"#utility.yul\":5201:5213   */\n      revert\n        /* \"#utility.yul\":5153:5215   */\n    tag_141:\n        /* \"#utility.yul\":5101:5221   */\n      pop\n      jump\t// out\n        /* \"#utility.yul\":5227:5368   */\n    tag_77:\n        /* \"#utility.yul\":5283:5288   */\n      0x00\n        /* \"#utility.yul\":5314:5320   */\n      dup2\n        /* \"#utility.yul\":5308:5321   */\n      mload\n        /* \"#utility.yul\":5299:5321   */\n      swap1\n      pop\n        /* \"#utility.yul\":5330:5362   */\n      tag_143\n        /* \"#utility.yul\":5356:5361   */\n      dup2\n        /* \"#utility.yul\":5330:5362   */\n      tag_76\n      jump\t// in\n    tag_143:\n        /* \"#utility.yul\":5227:5368   */\n      swap3\n      swap2\n      pop\n      pop\n      jump\t// out\n        /* \"#utility.yul\":5374:5517   */\n    tag_78:\n        /* \"#utility.yul\":5431:5436   */\n      0x00\n        /* \"#utility.yul\":5462:5468   */\n      dup2\n        /* \"#utility.yul\":5456:5469   */\n      mload\n        /* \"#utility.yul\":5447:5469   */\n      swap1\n      pop\n        /* \"#utility.yul\":5478:5511   */\n      tag_145\n        /* \"#utility.yul\":5505:5510   */\n      dup2\n        /* \"#utility.yul\":5478:5511   */\n      tag_64\n      jump\t// in\n    tag_145:\n        /* \"#utility.yul\":5374:5517   */\n      swap3\n      swap2\n      pop\n      pop\n      jump\t// out\n        /* \"#utility.yul\":5523:6494   */\n    tag_52:\n        /* \"#utility.yul\":5626:5632   */\n      0x00\n        /* \"#utility.yul\":5634:5640   */\n      dup1\n        /* \"#utility.yul\":5642:5648   */\n      0x00\n        /* \"#utility.yul\":5650:5656   */\n      dup1\n        /* \"#utility.yul\":5658:5664   */\n      0x00\n        /* \"#utility.yul\":5707:5710   */\n      0xa0\n        /* \"#utility.yul\":5695:5704   */\n      dup7\n        /* \"#utility.yul\":5686:5693   */\n      dup9\n        /* \"#utility.yul\":5682:5705   */\n      sub\n        /* \"#utility.yul\":5678:5711   */\n      slt\n        /* \"#utility.yul\":5675:5795   */\n      iszero\n      tag_147\n      jumpi\n        /* \"#utility.yul\":5714:5793   */\n      tag_148\n      tag_58\n      jump\t// in\n    tag_148:\n        /* \"#utility.yul\":5675:5795   */\n    tag_147:\n        /* \"#utility.yul\":5834:5835   */\n      0x00\n        /* \"#utility.yul\":5859:5922   */\n      tag_149\n        /* \"#utility.yul\":5914:5921   */\n      dup9\n        /* \"#utility.yul\":5905:5911   */\n      dup3\n        /* \"#utility.yul\":5894:5903   */\n      dup10\n        /* \"#utility.yul\":5890:5912   */\n      add\n        /* \"#utility.yul\":5859:5922   */\n      tag_74\n      jump\t// in\n    tag_149:\n        /* \"#utility.yul\":5849:5922   */\n      swap6\n      pop\n        /* \"#utility.yul\":5805:5932   */\n      pop\n        /* \"#utility.yul\":5971:5973   */\n      0x20\n        /* \"#utility.yul\":5997:6060   */\n      tag_150\n        /* \"#utility.yul\":6052:6059   */\n      dup9\n        /* \"#utility.yul\":6043:6049   */\n      dup3\n        /* \"#utility.yul\":6032:6041   */\n      dup10\n        /* \"#utility.yul\":6028:6050   */\n      add\n        /* \"#utility.yul\":5997:6060   */\n      tag_77\n      jump\t// in\n    tag_150:\n        /* \"#utility.yul\":5987:6060   */\n      swap5\n      pop\n        /* \"#utility.yul\":5942:6070   */\n      pop\n        /* \"#utility.yul\":6109:6111   */\n      0x40\n        /* \"#utility.yul\":6135:6199   */\n      tag_151\n        /* \"#utility.yul\":6191:6198   */\n      dup9\n        /* \"#utility.yul\":6182:6188   */\n      dup3\n        /* \"#utility.yul\":6171:6180   */\n      dup10\n        /* \"#utility.yul\":6167:6189   */\n      add\n        /* \"#utility.yul\":6135:6199   */\n      tag_78\n      jump\t// in\n    tag_151:\n        /* \"#utility.yul\":6125:6199   */\n      swap4\n      pop\n        /* \"#utility.yul\":6080:6209   */\n      pop\n        /* \"#utility.yul\":6248:6250   */\n      0x60\n        /* \"#utility.yul\":6274:6338   */\n      tag_152\n        /* \"#utility.yul\":6330:6337   */\n      dup9\n        /* \"#utility.yul\":6321:6327   */\n      dup3\n        /* \"#utility.yul\":6310:6319   */\n      dup10\n        /* \"#utility.yul\":6306:6328   */\n      add\n        /* \"#utility.yul\":6274:6338   */\n      tag_78\n      jump\t// in\n    tag_152:\n        /* \"#utility.yul\":6264:6338   */\n      swap3\n      pop\n        /* \"#utility.yul\":6219:6348   */\n      pop\n        /* \"#utility.yul\":6387:6390   */\n      0x80\n        /* \"#utility.yul\":6414:6477   */\n      tag_153\n        /* \"#utility.yul\":6469:6476   */\n      dup9\n        /* \"#utility.yul\":6460:6466   */\n      dup3\n        /* \"#utility.yul\":6449:6458   */\n      dup10\n        /* \"#utility.yul\":6445:6467   */\n      add\n        /* \"#utility.yul\":6414:6477   */\n      tag_74\n      jump\t// in\n    tag_153:\n        /* \"#utility.yul\":6404:6477   */\n      swap2\n      pop\n        /* \"#utility.yul\":6358:6487   */\n      pop\n        /* \"#utility.yul\":5523:6494   */\n      swap3\n      swap6\n      pop\n      swap3\n      swap6\n      swap1\n      swap4\n      pop\n      jump\t// out\n        /* \"#utility.yul\":6500:7491   */\n    tag_54:\n        /* \"#utility.yul\":6539:6546   */\n      0x00\n        /* \"#utility.yul\":6562:6581   */\n      tag_155\n        /* \"#utility.yul\":6579:6580   */\n      dup3\n        /* \"#utility.yul\":6562:6581   */\n      tag_75\n      jump\t// in\n    tag_155:\n        /* \"#utility.yul\":6557:6581   */\n      swap2\n      pop\n        /* \"#utility.yul\":6595:6614   */\n      tag_156\n        /* \"#utility.yul\":6612:6613   */\n      dup4\n        /* \"#utility.yul\":6595:6614   */\n      tag_75\n      jump\t// in\n    tag_156:\n        /* \"#utility.yul\":6590:6614   */\n      swap3\n      pop\n        /* \"#utility.yul\":6796:6797   */\n      dup3\n        /* \"#utility.yul\":6728:6794   */\n      0x7fffffffffffffffffffffffffffffffffffffffffffffffffffffffffffffff\n        /* \"#utility.yul\":6724:6798   */\n      div\n        /* \"#utility.yul\":6721:6722   */\n      dup3\n        /* \"#utility.yul\":6718:6799   */\n      gt\n        /* \"#utility.yul\":6713:6714   */\n      0x00\n        /* \"#utility.yul\":6710:6711   */\n      dup5\n        /* \"#utility.yul\":6706:6715   */\n      sgt\n        /* \"#utility.yul\":6702:6703   */\n      0x00\n        /* \"#utility.yul\":6699:6700   */\n      dup5\n        /* \"#utility.yul\":6695:6704   */\n      sgt\n        /* \"#utility.yul\":6691:6716   */\n      and\n        /* \"#utility.yul\":6687:6800   */\n      and\n        /* \"#utility.yul\":6684:6823   */\n      iszero\n      tag_157\n      jumpi\n        /* \"#utility.yul\":6803:6821   */\n      tag_158\n      tag_70\n      jump\t// in\n    tag_158:\n        /* \"#utility.yul\":6684:6823   */\n    tag_157:\n        /* \"#utility.yul\":7007:7008   */\n      dup2\n        /* \"#utility.yul\":6939:7005   */\n      0x8000000000000000000000000000000000000000000000000000000000000000\n        /* \"#utility.yul\":6934:7009   */\n      sdiv\n        /* \"#utility.yul\":6931:6932   */\n      dup4\n        /* \"#utility.yul\":6927:7010   */\n      slt\n        /* \"#utility.yul\":6922:6923   */\n      0x00\n        /* \"#utility.yul\":6919:6920   */\n      dup5\n        /* \"#utility.yul\":6915:6924   */\n      slt\n        /* \"#utility.yul\":6911:6912   */\n      0x00\n        /* \"#utility.yul\":6908:6909   */\n      dup5\n        /* \"#utility.yul\":6904:6913   */\n      sgt\n        /* \"#utility.yul\":6900:6925   */\n      and\n        /* \"#utility.yul\":6896:7011   */\n      and\n        /* \"#utility.yul\":6893:7034   */\n      iszero\n      tag_159\n      jumpi\n        /* \"#utility.yul\":7014:7032   */\n      tag_160\n      tag_70\n      jump\t// in\n    tag_160:\n        /* \"#utility.yul\":6893:7034   */\n    tag_159:\n        /* \"#utility.yul\":7218:7219   */\n      dup3\n        /* \"#utility.yul\":7150:7216   */\n      0x8000000000000000000000000000000000000000000000000000000000000000\n        /* \"#utility.yul\":7145:7220   */\n      sdiv\n        /* \"#utility.yul\":7142:7143   */\n      dup3\n        /* \"#utility.yul\":7138:7221   */\n      slt\n        /* \"#utility.yul\":7133:7134   */\n      0x00\n        /* \"#utility.yul\":7130:7131   */\n      dup5\n        /* \"#utility.yul\":7126:7135   */\n      sgt\n        /* \"#utility.yul\":7122:7123   */\n      0x00\n        /* \"#utility.yul\":7119:7120   */\n      dup5\n        /* \"#utility.yul\":7115:7124   */\n      slt\n        /* \"#utility.yul\":7111:7136   */\n      and\n        /* \"#utility.yul\":7107:7222   */\n      and\n        /* \"#utility.yul\":7104:7245   */\n      iszero\n      tag_161\n      jumpi\n        /* \"#utility.yul\":7225:7243   */\n      tag_162\n      tag_70\n      jump\t// in\n    tag_162:\n        /* \"#utility.yul\":7104:7245   */\n    tag_161:\n        /* \"#utility.yul\":7428:7429   */\n      dup3\n        /* \"#utility.yul\":7360:7426   */\n      0x7fffffffffffffffffffffffffffffffffffffffffffffffffffffffffffffff\n        /* \"#utility.yul\":7355:7430   */\n      sdiv\n        /* \"#utility.yul\":7352:7353   */\n      dup3\n        /* \"#utility.yul\":7348:7431   */\n      slt\n        /* \"#utility.yul\":7343:7344   */\n      0x00\n        /* \"#utility.yul\":7340:7341   */\n      dup5\n        /* \"#utility.yul\":7336:7345   */\n      slt\n        /* \"#utility.yul\":7332:7333   */\n      0x00\n        /* \"#utility.yul\":7329:7330   */\n      dup5\n        /* \"#utility.yul\":7325:7334   */\n      slt\n        /* \"#utility.yul\":7321:7346   */\n      and\n        /* \"#utility.yul\":7317:7432   */\n      and\n        /* \"#utility.yul\":7314:7455   */\n      iszero\n      tag_163\n      jumpi\n        /* \"#utility.yul\":7435:7453   */\n      tag_164\n      tag_70\n      jump\t// in\n    tag_164:\n        /* \"#utility.yul\":7314:7455   */\n    tag_163:\n        /* \"#utility.yul\":7483:7484   */\n      dup3\n        /* \"#utility.yul\":7480:7481   */\n      dup3\n        /* \"#utility.yul\":7476:7485   */\n      mul\n        /* \"#utility.yul\":7465:7485   */\n      swap1\n      pop\n        /* \"#utility.yul\":6500:7491   */\n      swap3\n      swap2\n      pop\n      pop\n      jump\t// out\n\n    auxdata: 0xa26469706673582212207005a77f7e3e8e86e3a1ce46ce0ea16a212b544353a06ad2dda815d3065f376164736f6c63430008080033\n}\n",
				"bytecode": {
					"linkReferences": {},
					"object": "6080604052603260005534801561001557600080fd5b5061085d806100256000396000f3fe60806040526004361061004a5760003560e01c8063098de8201461004f5780633ccfd60b1461007a578063b60d428814610091578063b8ee35851461009b578063dc0d3dff146100d8575b600080fd5b34801561005b57600080fd5b50610064610115565b6040516100719190610374565b60405180910390f35b34801561008657600080fd5b5061008f61011b565b005b61009961011d565b005b3480156100a757600080fd5b506100c260048036038101906100bd91906103f2565b610212565b6040516100cf9190610374565b60405180910390f35b3480156100e457600080fd5b506100ff60048036038101906100fa919061044b565b61022a565b60405161010c9190610487565b60405180910390f35b60005481565b565b60005461012934610269565b11610169576040517f08c379a0000000000000000000000000000000000000000000000000000000008152600401610160906104ff565b60405180910390fd5b6001339080600181540180825580915050600190039060005260206000200160009091909190916101000a81548173ffffffffffffffffffffffffffffffffffffffff021916908373ffffffffffffffffffffffffffffffffffffffff16021790555034600260003373ffffffffffffffffffffffffffffffffffffffff1673ffffffffffffffffffffffffffffffffffffffff16815260200190815260200160002081905550565b60026020528060005260406000206000915090505481565b6001818154811061023a57600080fd5b906000526020600020016000915054906101000a900473ffffffffffffffffffffffffffffffffffffffff1681565b6000806102746102a3565b90506000670de0b6b3a7640000848361028d919061054e565b61029791906105d7565b90508092505050919050565b60008073694aa1769357215de4fac081bf1f309adc325306905060008173ffffffffffffffffffffffffffffffffffffffff1663feaf968c6040518163ffffffff1660e01b815260040160a06040518083038186803b15801561030557600080fd5b505afa158015610319573d6000803e3d6000fd5b505050506040513d601f19601f8201168201806040525081019061033d9190610695565b5050509150506402540be400816103549190610710565b9250505090565b6000819050919050565b61036e8161035b565b82525050565b60006020820190506103896000830184610365565b92915050565b600080fd5b600073ffffffffffffffffffffffffffffffffffffffff82169050919050565b60006103bf82610394565b9050919050565b6103cf816103b4565b81146103da57600080fd5b50565b6000813590506103ec816103c6565b92915050565b6000602082840312156104085761040761038f565b5b6000610416848285016103dd565b91505092915050565b6104288161035b565b811461043357600080fd5b50565b6000813590506104458161041f565b92915050565b6000602082840312156104615761046061038f565b5b600061046f84828501610436565b91505092915050565b610481816103b4565b82525050565b600060208201905061049c6000830184610478565b92915050565b600082825260208201905092915050565b7f4469646e27742073656e6420656e6f7567682100000000000000000000000000600082015250565b60006104e96013836104a2565b91506104f4826104b3565b602082019050919050565b60006020820190508181036000830152610518816104dc565b9050919050565b7f4e487b7100000000000000000000000000000000000000000000000000000000600052601160045260246000fd5b60006105598261035b565b91506105648361035b565b9250817fffffffffffffffffffffffffffffffffffffffffffffffffffffffffffffffff048311821515161561059d5761059c61051f565b5b828202905092915050565b7f4e487b7100000000000000000000000000000000000000000000000000000000600052601260045260246000fd5b60006105e28261035b565b91506105ed8361035b565b9250826105fd576105fc6105a8565b5b828204905092915050565b600069ffffffffffffffffffff82169050919050565b61062781610608565b811461063257600080fd5b50565b6000815190506106448161061e565b92915050565b6000819050919050565b61065d8161064a565b811461066857600080fd5b50565b60008151905061067a81610654565b92915050565b60008151905061068f8161041f565b92915050565b600080600080600060a086880312156106b1576106b061038f565b5b60006106bf88828901610635565b95505060206106d08882890161066b565b94505060406106e188828901610680565b93505060606106f288828901610680565b925050608061070388828901610635565b9150509295509295909350565b600061071b8261064a565b91506107268361064a565b9250827f7fffffffffffffffffffffffffffffffffffffffffffffffffffffffffffffff04821160008413600084131616156107655761076461051f565b5b817f800000000000000000000000000000000000000000000000000000000000000005831260008412600084131616156107a2576107a161051f565b5b827f800000000000000000000000000000000000000000000000000000000000000005821260008413600084121616156107df576107de61051f565b5b827f7fffffffffffffffffffffffffffffffffffffffffffffffffffffffffffffff058212600084126000841216161561081c5761081b61051f565b5b82820290509291505056fea26469706673582212207005a77f7e3e8e86e3a1ce46ce0ea16a212b544353a06ad2dda815d3065f376164736f6c63430008080033",
					"opcodes": "PUSH1 0x80 PUSH1 0x40 MSTORE PUSH1 0x32 PUSH1 0x0 SSTORE CALLVALUE DUP1 ISZERO PUSH2 0x15 JUMPI PUSH1 0x0 DUP1 REVERT JUMPDEST POP PUSH2 0x85D DUP1 PUSH2 0x25 PUSH1 0x0 CODECOPY PUSH1 0x0 RETURN INVALID PUSH1 0x80 PUSH1 0x40 MSTORE PUSH1 0x4 CALLDATASIZE LT PUSH2 0x4A JUMPI PUSH1 0x0 CALLDATALOAD PUSH1 0xE0 SHR DUP1 PUSH4 0x98DE820 EQ PUSH2 0x4F JUMPI DUP1 PUSH4 0x3CCFD60B EQ PUSH2 0x7A JUMPI DUP1 PUSH4 0xB60D4288 EQ PUSH2 0x91 JUMPI DUP1 PUSH4 0xB8EE3585 EQ PUSH2 0x9B JUMPI DUP1 PUSH4 0xDC0D3DFF EQ PUSH2 0xD8 JUMPI JUMPDEST PUSH1 0x0 DUP1 REVERT JUMPDEST CALLVALUE DUP1 ISZERO PUSH2 0x5B JUMPI PUSH1 0x0 DUP1 REVERT JUMPDEST POP PUSH2 0x64 PUSH2 0x115 JUMP JUMPDEST PUSH1 0x40 MLOAD PUSH2 0x71 SWAP2 SWAP1 PUSH2 0x374 JUMP JUMPDEST PUSH1 0x40 MLOAD DUP1 SWAP2 SUB SWAP1 RETURN JUMPDEST CALLVALUE DUP1 ISZERO PUSH2 0x86 JUMPI PUSH1 0x0 DUP1 REVERT JUMPDEST POP PUSH2 0x8F PUSH2 0x11B JUMP JUMPDEST STOP JUMPDEST PUSH2 0x99 PUSH2 0x11D JUMP JUMPDEST STOP JUMPDEST CALLVALUE DUP1 ISZERO PUSH2 0xA7 JUMPI PUSH1 0x0 DUP1 REVERT JUMPDEST POP PUSH2 0xC2 PUSH1 0x4 DUP1 CALLDATASIZE SUB DUP2 ADD SWAP1 PUSH2 0xBD SWAP2 SWAP1 PUSH2 0x3F2 JUMP JUMPDEST PUSH2 0x212 JUMP JUMPDEST PUSH1 0x40 MLOAD PUSH2 0xCF SWAP2 SWAP1 PUSH2 0x374 JUMP JUMPDEST PUSH1 0x40 MLOAD DUP1 SWAP2 SUB SWAP1 RETURN JUMPDEST CALLVALUE DUP1 ISZERO PUSH2 0xE4 JUMPI PUSH1 0x0 DUP1 REVERT JUMPDEST POP PUSH2 0xFF PUSH1 0x4 DUP1 CALLDATASIZE SUB DUP2 ADD SWAP1 PUSH2 0xFA SWAP2 SWAP1 PUSH2 0x44B JUMP JUMPDEST PUSH2 0x22A JUMP JUMPDEST PUSH1 0x40 MLOAD PUSH2 0x10C SWAP2 SWAP1 PUSH2 0x487 JUMP JUMPDEST PUSH1 0x40 MLOAD DUP1 SWAP2 SUB SWAP1 RETURN JUMPDEST PUSH1 0x0 SLOAD DUP2 JUMP JUMPDEST JUMP JUMPDEST PUSH1 0x0 SLOAD PUSH2 0x129 CALLVALUE PUSH2 0x269 JUMP JUMPDEST GT PUSH2 0x169 JUMPI PUSH1 0x40 MLOAD PUSH32 0x8C379A000000000000000000000000000000000000000000000000000000000 DUP2 MSTORE PUSH1 0x4 ADD PUSH2 0x160 SWAP1 PUSH2 0x4FF JUMP JUMPDEST PUSH1 0x40 MLOAD DUP1 SWAP2 SUB SWAP1 REVERT JUMPDEST PUSH1 0x1 CALLER SWAP1 DUP1 PUSH1 0x1 DUP2 SLOAD ADD DUP1 DUP3 SSTORE DUP1 SWAP2 POP POP PUSH1 0x1 SWAP1 SUB SWAP1 PUSH1 0x0 MSTORE PUSH1 0x20 PUSH1 0x0 KECCAK256 ADD PUSH1 0x0 SWAP1 SWAP2 SWAP1 SWAP2 SWAP1 SWAP2 PUSH2 0x100 EXP DUP2 SLOAD DUP2 PUSH20 0xFFFFFFFFFFFFFFFFFFFFFFFFFFFFFFFFFFFFFFFF MUL NOT AND SWAP1 DUP4 PUSH20 0xFFFFFFFFFFFFFFFFFFFFFFFFFFFFFFFFFFFFFFFF AND MUL OR SWAP1 SSTORE POP CALLVALUE PUSH1 0x2 PUSH1 0x0 CALLER PUSH20 0xFFFFFFFFFFFFFFFFFFFFFFFFFFFFFFFFFFFFFFFF AND PUSH20 0xFFFFFFFFFFFFFFFFFFFFFFFFFFFFFFFFFFFFFFFF AND DUP2 MSTORE PUSH1 0x20 ADD SWAP1 DUP2 MSTORE PUSH1 0x20 ADD PUSH1 0x0 KECCAK256 DUP2 SWAP1 SSTORE POP JUMP JUMPDEST PUSH1 0x2 PUSH1 0x20 MSTORE DUP1 PUSH1 0x0 MSTORE PUSH1 0x40 PUSH1 0x0 KECCAK256 PUSH1 0x0 SWAP2 POP SWAP1 POP SLOAD DUP2 JUMP JUMPDEST PUSH1 0x1 DUP2 DUP2 SLOAD DUP2 LT PUSH2 0x23A JUMPI PUSH1 0x0 DUP1 REVERT JUMPDEST SWAP1 PUSH1 0x0 MSTORE PUSH1 0x20 PUSH1 0x0 KECCAK256 ADD PUSH1 0x0 SWAP2 POP SLOAD SWAP1 PUSH2 0x100 EXP SWAP1 DIV PUSH20 0xFFFFFFFFFFFFFFFFFFFFFFFFFFFFFFFFFFFFFFFF AND DUP2 JUMP JUMPDEST PUSH1 0x0 DUP1 PUSH2 0x274 PUSH2 0x2A3 JUMP JUMPDEST SWAP1 POP PUSH1 0x0 PUSH8 0xDE0B6B3A7640000 DUP5 DUP4 PUSH2 0x28D SWAP2 SWAP1 PUSH2 0x54E JUMP JUMPDEST PUSH2 0x297 SWAP2 SWAP1 PUSH2 0x5D7 JUMP JUMPDEST SWAP1 POP DUP1 SWAP3 POP POP POP SWAP2 SWAP1 POP JUMP JUMPDEST PUSH1 0x0 DUP1 PUSH20 0x694AA1769357215DE4FAC081BF1F309ADC325306 SWAP1 POP PUSH1 0x0 DUP2 PUSH20 0xFFFFFFFFFFFFFFFFFFFFFFFFFFFFFFFFFFFFFFFF AND PUSH4 0xFEAF968C PUSH1 0x40 MLOAD DUP2 PUSH4 0xFFFFFFFF AND PUSH1 0xE0 SHL DUP2 MSTORE PUSH1 0x4 ADD PUSH1 0xA0 PUSH1 0x40 MLOAD DUP1 DUP4 SUB DUP2 DUP7 DUP1 EXTCODESIZE ISZERO DUP1 ISZERO PUSH2 0x305 JUMPI PUSH1 0x0 DUP1 REVERT JUMPDEST POP GAS STATICCALL ISZERO DUP1 ISZERO PUSH2 0x319 JUMPI RETURNDATASIZE PUSH1 0x0 DUP1 RETURNDATACOPY RETURNDATASIZE PUSH1 0x0 REVERT JUMPDEST POP POP POP POP PUSH1 0x40 MLOAD RETURNDATASIZE PUSH1 0x1F NOT PUSH1 0x1F DUP3 ADD AND DUP3 ADD DUP1 PUSH1 0x40 MSTORE POP DUP2 ADD SWAP1 PUSH2 0x33D SWAP2 SWAP1 PUSH2 0x695 JUMP JUMPDEST POP POP POP SWAP2 POP POP PUSH5 0x2540BE400 DUP2 PUSH2 0x354 SWAP2 SWAP1 PUSH2 0x710 JUMP JUMPDEST SWAP3 POP POP POP SWAP1 JUMP JUMPDEST PUSH1 0x0 DUP2 SWAP1 POP SWAP2 SWAP1 POP JUMP JUMPDEST PUSH2 0x36E DUP2 PUSH2 0x35B JUMP JUMPDEST DUP3 MSTORE POP POP JUMP JUMPDEST PUSH1 0x0 PUSH1 0x20 DUP3 ADD SWAP1 POP PUSH2 0x389 PUSH1 0x0 DUP4 ADD DUP5 PUSH2 0x365 JUMP JUMPDEST SWAP3 SWAP2 POP POP JUMP JUMPDEST PUSH1 0x0 DUP1 REVERT JUMPDEST PUSH1 0x0 PUSH20 0xFFFFFFFFFFFFFFFFFFFFFFFFFFFFFFFFFFFFFFFF DUP3 AND SWAP1 POP SWAP2 SWAP1 POP JUMP JUMPDEST PUSH1 0x0 PUSH2 0x3BF DUP3 PUSH2 0x394 JUMP JUMPDEST SWAP1 POP SWAP2 SWAP1 POP JUMP JUMPDEST PUSH2 0x3CF DUP2 PUSH2 0x3B4 JUMP JUMPDEST DUP2 EQ PUSH2 0x3DA JUMPI PUSH1 0x0 DUP1 REVERT JUMPDEST POP JUMP JUMPDEST PUSH1 0x0 DUP2 CALLDATALOAD SWAP1 POP PUSH2 0x3EC DUP2 PUSH2 0x3C6 JUMP JUMPDEST SWAP3 SWAP2 POP POP JUMP JUMPDEST PUSH1 0x0 PUSH1 0x20 DUP3 DUP5 SUB SLT ISZERO PUSH2 0x408 JUMPI PUSH2 0x407 PUSH2 0x38F JUMP JUMPDEST JUMPDEST PUSH1 0x0 PUSH2 0x416 DUP5 DUP3 DUP6 ADD PUSH2 0x3DD JUMP JUMPDEST SWAP2 POP POP SWAP3 SWAP2 POP POP JUMP JUMPDEST PUSH2 0x428 DUP2 PUSH2 0x35B JUMP JUMPDEST DUP2 EQ PUSH2 0x433 JUMPI PUSH1 0x0 DUP1 REVERT JUMPDEST POP JUMP JUMPDEST PUSH1 0x0 DUP2 CALLDATALOAD SWAP1 POP PUSH2 0x445 DUP2 PUSH2 0x41F JUMP JUMPDEST SWAP3 SWAP2 POP POP JUMP JUMPDEST PUSH1 0x0 PUSH1 0x20 DUP3 DUP5 SUB SLT ISZERO PUSH2 0x461 JUMPI PUSH2 0x460 PUSH2 0x38F JUMP JUMPDEST JUMPDEST PUSH1 0x0 PUSH2 0x46F DUP5 DUP3 DUP6 ADD PUSH2 0x436 JUMP JUMPDEST SWAP2 POP POP SWAP3 SWAP2 POP POP JUMP JUMPDEST PUSH2 0x481 DUP2 PUSH2 0x3B4 JUMP JUMPDEST DUP3 MSTORE POP POP JUMP JUMPDEST PUSH1 0x0 PUSH1 0x20 DUP3 ADD SWAP1 POP PUSH2 0x49C PUSH1 0x0 DUP4 ADD DUP5 PUSH2 0x478 JUMP JUMPDEST SWAP3 SWAP2 POP POP JUMP JUMPDEST PUSH1 0x0 DUP3 DUP3 MSTORE PUSH1 0x20 DUP3 ADD SWAP1 POP SWAP3 SWAP2 POP POP JUMP JUMPDEST PUSH32 0x4469646E27742073656E6420656E6F7567682100000000000000000000000000 PUSH1 0x0 DUP3 ADD MSTORE POP JUMP JUMPDEST PUSH1 0x0 PUSH2 0x4E9 PUSH1 0x13 DUP4 PUSH2 0x4A2 JUMP JUMPDEST SWAP2 POP PUSH2 0x4F4 DUP3 PUSH2 0x4B3 JUMP JUMPDEST PUSH1 0x20 DUP3 ADD SWAP1 POP SWAP2 SWAP1 POP JUMP JUMPDEST PUSH1 0x0 PUSH1 0x20 DUP3 ADD SWAP1 POP DUP2 DUP2 SUB PUSH1 0x0 DUP4 ADD MSTORE PUSH2 0x518 DUP2 PUSH2 0x4DC JUMP JUMPDEST SWAP1 POP SWAP2 SWAP1 POP JUMP JUMPDEST PUSH32 0x4E487B7100000000000000000000000000000000000000000000000000000000 PUSH1 0x0 MSTORE PUSH1 0x11 PUSH1 0x4 MSTORE PUSH1 0x24 PUSH1 0x0 REVERT JUMPDEST PUSH1 0x0 PUSH2 0x559 DUP3 PUSH2 0x35B JUMP JUMPDEST SWAP2 POP PUSH2 0x564 DUP4 PUSH2 0x35B JUMP JUMPDEST SWAP3 POP DUP2 PUSH32 0xFFFFFFFFFFFFFFFFFFFFFFFFFFFFFFFFFFFFFFFFFFFFFFFFFFFFFFFFFFFFFFFF DIV DUP4 GT DUP3 ISZERO ISZERO AND ISZERO PUSH2 0x59D JUMPI PUSH2 0x59C PUSH2 0x51F JUMP JUMPDEST JUMPDEST DUP3 DUP3 MUL SWAP1 POP SWAP3 SWAP2 POP POP JUMP JUMPDEST PUSH32 0x4E487B7100000000000000000000000000000000000000000000000000000000 PUSH1 0x0 MSTORE PUSH1 0x12 PUSH1 0x4 MSTORE PUSH1 0x24 PUSH1 0x0 REVERT JUMPDEST PUSH1 0x0 PUSH2 0x5E2 DUP3 PUSH2 0x35B JUMP JUMPDEST SWAP2 POP PUSH2 0x5ED DUP4 PUSH2 0x35B JUMP JUMPDEST SWAP3 POP DUP3 PUSH2 0x5FD JUMPI PUSH2 0x5FC PUSH2 0x5A8 JUMP JUMPDEST JUMPDEST DUP3 DUP3 DIV SWAP1 POP SWAP3 SWAP2 POP POP JUMP JUMPDEST PUSH1 0x0 PUSH10 0xFFFFFFFFFFFFFFFFFFFF DUP3 AND SWAP1 POP SWAP2 SWAP1 POP JUMP JUMPDEST PUSH2 0x627 DUP2 PUSH2 0x608 JUMP JUMPDEST DUP2 EQ PUSH2 0x632 JUMPI PUSH1 0x0 DUP1 REVERT JUMPDEST POP JUMP JUMPDEST PUSH1 0x0 DUP2 MLOAD SWAP1 POP PUSH2 0x644 DUP2 PUSH2 0x61E JUMP JUMPDEST SWAP3 SWAP2 POP POP JUMP JUMPDEST PUSH1 0x0 DUP2 SWAP1 POP SWAP2 SWAP1 POP JUMP JUMPDEST PUSH2 0x65D DUP2 PUSH2 0x64A JUMP JUMPDEST DUP2 EQ PUSH2 0x668 JUMPI PUSH1 0x0 DUP1 REVERT JUMPDEST POP JUMP JUMPDEST PUSH1 0x0 DUP2 MLOAD SWAP1 POP PUSH2 0x67A DUP2 PUSH2 0x654 JUMP JUMPDEST SWAP3 SWAP2 POP POP JUMP JUMPDEST PUSH1 0x0 DUP2 MLOAD SWAP1 POP PUSH2 0x68F DUP2 PUSH2 0x41F JUMP JUMPDEST SWAP3 SWAP2 POP POP JUMP JUMPDEST PUSH1 0x0 DUP1 PUSH1 0x0 DUP1 PUSH1 0x0 PUSH1 0xA0 DUP7 DUP9 SUB SLT ISZERO PUSH2 0x6B1 JUMPI PUSH2 0x6B0 PUSH2 0x38F JUMP JUMPDEST JUMPDEST PUSH1 0x0 PUSH2 0x6BF DUP9 DUP3 DUP10 ADD PUSH2 0x635 JUMP JUMPDEST SWAP6 POP POP PUSH1 0x20 PUSH2 0x6D0 DUP9 DUP3 DUP10 ADD PUSH2 0x66B JUMP JUMPDEST SWAP5 POP POP PUSH1 0x40 PUSH2 0x6E1 DUP9 DUP3 DUP10 ADD PUSH2 0x680 JUMP JUMPDEST SWAP4 POP POP PUSH1 0x60 PUSH2 0x6F2 DUP9 DUP3 DUP10 ADD PUSH2 0x680 JUMP JUMPDEST SWAP3 POP POP PUSH1 0x80 PUSH2 0x703 DUP9 DUP3 DUP10 ADD PUSH2 0x635 JUMP JUMPDEST SWAP2 POP POP SWAP3 SWAP6 POP SWAP3 SWAP6 SWAP1 SWAP4 POP JUMP JUMPDEST PUSH1 0x0 PUSH2 0x71B DUP3 PUSH2 0x64A JUMP JUMPDEST SWAP2 POP PUSH2 0x726 DUP4 PUSH2 0x64A JUMP JUMPDEST SWAP3 POP DUP3 PUSH32 0x7FFFFFFFFFFFFFFFFFFFFFFFFFFFFFFFFFFFFFFFFFFFFFFFFFFFFFFFFFFFFFFF DIV DUP3 GT PUSH1 0x0 DUP5 SGT PUSH1 0x0 DUP5 SGT AND AND ISZERO PUSH2 0x765 JUMPI PUSH2 0x764 PUSH2 0x51F JUMP JUMPDEST JUMPDEST DUP2 PUSH32 0x8000000000000000000000000000000000000000000000000000000000000000 SDIV DUP4 SLT PUSH1 0x0 DUP5 SLT PUSH1 0x0 DUP5 SGT AND AND ISZERO PUSH2 0x7A2 JUMPI PUSH2 0x7A1 PUSH2 0x51F JUMP JUMPDEST JUMPDEST DUP3 PUSH32 0x8000000000000000000000000000000000000000000000000000000000000000 SDIV DUP3 SLT PUSH1 0x0 DUP5 SGT PUSH1 0x0 DUP5 SLT AND AND ISZERO PUSH2 0x7DF JUMPI PUSH2 0x7DE PUSH2 0x51F JUMP JUMPDEST JUMPDEST DUP3 PUSH32 0x7FFFFFFFFFFFFFFFFFFFFFFFFFFFFFFFFFFFFFFFFFFFFFFFFFFFFFFFFFFFFFFF SDIV DUP3 SLT PUSH1 0x0 DUP5 SLT PUSH1 0x0 DUP5 SLT AND AND ISZERO PUSH2 0x81C JUMPI PUSH2 0x81B PUSH2 0x51F JUMP JUMPDEST JUMPDEST DUP3 DUP3 MUL SWAP1 POP SWAP3 SWAP2 POP POP JUMP INVALID LOG2 PUSH5 0x6970667358 0x22 SLT KECCAK256 PUSH17 0x5A77F7E3E8E86E3A1CE46CE0EA16A212B SLOAD NUMBER MSTORE8 LOG0 PUSH11 0xD2DDA815D3065F37616473 PUSH16 0x6C634300080800330000000000000000 "
				},
				"gasEstimates": {
					"creation": {
						"codeDepositCost": "428200",
						"executionCost": "22567",
						"totalCost": "450767"
					},
					"external": {
						"addressToAointFunded(address)": "2858",
						"fund()": "infinite",
						"funders(uint256)": "5022",
						"minimumUsd()": "2407",
						"withdraw()": "144"
					}
				},
				"methodIdentifiers": {
					"addressToAointFunded(address)": "b8ee3585",
					"fund()": "b60d4288",
					"funders(uint256)": "dc0d3dff",
					"minimumUsd()": "098de820",
					"withdraw()": "3ccfd60b"
				}
			},
			"storageLayout": {
				"storage": [
					{
						"astId": 54,
						"contract": "storage-factory/contracts/FundMe.sol:FundMe",
						"label": "minimumUsd",
						"offset": 0,
						"slot": "0",
						"type": "t_uint256"
					},
					{
						"astId": 57,
						"contract": "storage-factory/contracts/FundMe.sol:FundMe",
						"label": "funders",
						"offset": 0,
						"slot": "1",
						"type": "t_array(t_address)dyn_storage"
					},
					{
						"astId": 61,
						"contract": "storage-factory/contracts/FundMe.sol:FundMe",
						"label": "addressToAointFunded",
						"offset": 0,
						"slot": "2",
						"type": "t_mapping(t_address,t_uint256)"
					}
				],
				"types": {
					"t_address": {
						"encoding": "inplace",
						"label": "address",
						"numberOfBytes": "20"
					},
					"t_array(t_address)dyn_storage": {
						"base": "t_address",
						"encoding": "dynamic_array",
						"label": "address[]",
						"numberOfBytes": "32"
					},
					"t_mapping(t_address,t_uint256)": {
						"encoding": "mapping",
						"key": "t_address",
						"label": "mapping(address => uint256)",
						"numberOfBytes": "32",
						"value": "t_uint256"
					},
					"t_uint256": {
						"encoding": "inplace",
						"label": "uint256",
						"numberOfBytes": "32"
					}
				}
			},
			"userdoc": {
				"kind": "user",
				"methods": {},
				"version": 1
			}
		}
	}
}