{
	"storage-factory/contracts/FundMe.sol": {
		"FundMe": {
			"abi": [
				{
					"inputs": [],
					"stateMutability": "nonpayable",
					"type": "constructor"
				},
				{
					"inputs": [
						{
							"internalType": "address",
							"name": "",
							"type": "address"
						}
					],
					"name": "addressToAointFunded",
					"outputs": [
						{
							"internalType": "uint256",
							"name": "",
							"type": "uint256"
						}
					],
					"stateMutability": "view",
					"type": "function"
				},
				{
					"inputs": [],
					"name": "fund",
					"outputs": [],
					"stateMutability": "payable",
					"type": "function"
				},
				{
					"inputs": [
						{
							"internalType": "uint256",
							"name": "",
							"type": "uint256"
						}
					],
					"name": "funders",
					"outputs": [
						{
							"internalType": "address",
							"name": "",
							"type": "address"
						}
					],
					"stateMutability": "view",
					"type": "function"
				},
				{
					"inputs": [],
					"name": "minimumUsd",
					"outputs": [
						{
							"internalType": "uint256",
							"name": "",
							"type": "uint256"
						}
					],
					"stateMutability": "view",
					"type": "function"
				},
				{
					"inputs": [],
					"name": "owner",
					"outputs": [
						{
							"internalType": "address",
							"name": "",
							"type": "address"
						}
					],
					"stateMutability": "view",
					"type": "function"
				},
				{
					"inputs": [],
					"name": "withdraw",
					"outputs": [],
					"stateMutability": "nonpayable",
					"type": "function"
				}
			],
			"devdoc": {
				"kind": "dev",
				"methods": {},
				"version": 1
			},
			"evm": {
				"assembly": "    /* \"storage-factory/contracts/FundMe.sol\":280:2661  contract FundMe {... */\n  mstore(0x40, 0x80)\n    /* \"storage-factory/contracts/FundMe.sol\":369:370  1 */\n  0x01\n    /* \"storage-factory/contracts/FundMe.sol\":341:370  uint256 public minimumUsd = 1 */\n  0x00\n  sstore\n    /* \"storage-factory/contracts/FundMe.sol\":571:620  constructor() {... */\n  callvalue\n  dup1\n  iszero\n  tag_1\n  jumpi\n  0x00\n  dup1\n  revert\ntag_1:\n  pop\n    /* \"storage-factory/contracts/FundMe.sol\":603:613  msg.sender */\n  caller\n    /* \"storage-factory/contracts/FundMe.sol\":595:600  owner */\n  0x03\n  0x00\n    /* \"storage-factory/contracts/FundMe.sol\":595:613  owner = msg.sender */\n  0x0100\n  exp\n  dup2\n  sload\n  dup2\n  0xffffffffffffffffffffffffffffffffffffffff\n  mul\n  not\n  and\n  swap1\n  dup4\n  0xffffffffffffffffffffffffffffffffffffffff\n  and\n  mul\n  or\n  swap1\n  sstore\n  pop\n    /* \"storage-factory/contracts/FundMe.sol\":280:2661  contract FundMe {... */\n  dataSize(sub_0)\n  dup1\n  dataOffset(sub_0)\n  0x00\n  codecopy\n  0x00\n  return\nstop\n\nsub_0: assembly {\n        /* \"storage-factory/contracts/FundMe.sol\":280:2661  contract FundMe {... */\n      mstore(0x40, 0x80)\n      jumpi(tag_1, lt(calldatasize, 0x04))\n      shr(0xe0, calldataload(0x00))\n      dup1\n      0x098de820\n      eq\n      tag_2\n      jumpi\n      dup1\n      0x3ccfd60b\n      eq\n      tag_3\n      jumpi\n      dup1\n      0x8da5cb5b\n      eq\n      tag_4\n      jumpi\n      dup1\n      0xb60d4288\n      eq\n      tag_5\n      jumpi\n      dup1\n      0xb8ee3585\n      eq\n      tag_6\n      jumpi\n      dup1\n      0xdc0d3dff\n      eq\n      tag_7\n      jumpi\n    tag_1:\n      0x00\n      dup1\n      revert\n        /* \"storage-factory/contracts/FundMe.sol\":341:370  uint256 public minimumUsd = 1 */\n    tag_2:\n      callvalue\n      dup1\n      iszero\n      tag_8\n      jumpi\n      0x00\n      dup1\n      revert\n    tag_8:\n      pop\n      tag_9\n      tag_10\n      jump\t// in\n    tag_9:\n      mload(0x40)\n      tag_11\n      swap2\n      swap1\n      tag_12\n      jump\t// in\n    tag_11:\n      mload(0x40)\n      dup1\n      swap2\n      sub\n      swap1\n      return\n        /* \"storage-factory/contracts/FundMe.sol\":1494:2287  function withdraw() public onlyOwner {... */\n    tag_3:\n      callvalue\n      dup1\n      iszero\n      tag_13\n      jumpi\n      0x00\n      dup1\n      revert\n    tag_13:\n      pop\n      tag_14\n      tag_15\n      jump\t// in\n    tag_14:\n      stop\n        /* \"storage-factory/contracts/FundMe.sol\":544:564  address public owner */\n    tag_4:\n      callvalue\n      dup1\n      iszero\n      tag_16\n      jumpi\n      0x00\n      dup1\n      revert\n    tag_16:\n      pop\n      tag_17\n      tag_18\n      jump\t// in\n    tag_17:\n      mload(0x40)\n      tag_19\n      swap2\n      swap1\n      tag_20\n      jump\t// in\n    tag_19:\n      mload(0x40)\n      dup1\n      swap2\n      sub\n      swap1\n      return\n        /* \"storage-factory/contracts/FundMe.sol\":802:1468  function fund() public payable {... */\n    tag_5:\n      tag_21\n      tag_22\n      jump\t// in\n    tag_21:\n      stop\n        /* \"storage-factory/contracts/FundMe.sol\":459:514  mapping(address => uint256) public addressToAointFunded */\n    tag_6:\n      callvalue\n      dup1\n      iszero\n      tag_23\n      jumpi\n      0x00\n      dup1\n      revert\n    tag_23:\n      pop\n      tag_24\n      0x04\n      dup1\n      calldatasize\n      sub\n      dup2\n      add\n      swap1\n      tag_25\n      swap2\n      swap1\n      tag_26\n      jump\t// in\n    tag_25:\n      tag_27\n      jump\t// in\n    tag_24:\n      mload(0x40)\n      tag_28\n      swap2\n      swap1\n      tag_12\n      jump\t// in\n    tag_28:\n      mload(0x40)\n      dup1\n      swap2\n      sub\n      swap1\n      return\n        /* \"storage-factory/contracts/FundMe.sol\":396:420  address[] public funders */\n    tag_7:\n      callvalue\n      dup1\n      iszero\n      tag_29\n      jumpi\n      0x00\n      dup1\n      revert\n    tag_29:\n      pop\n      tag_30\n      0x04\n      dup1\n      calldatasize\n      sub\n      dup2\n      add\n      swap1\n      tag_31\n      swap2\n      swap1\n      tag_32\n      jump\t// in\n    tag_31:\n      tag_33\n      jump\t// in\n    tag_30:\n      mload(0x40)\n      tag_34\n      swap2\n      swap1\n      tag_20\n      jump\t// in\n    tag_34:\n      mload(0x40)\n      dup1\n      swap2\n      sub\n      swap1\n      return\n        /* \"storage-factory/contracts/FundMe.sol\":341:370  uint256 public minimumUsd = 1 */\n    tag_10:\n      sload(0x00)\n      dup2\n      jump\t// out\n        /* \"storage-factory/contracts/FundMe.sol\":1494:2287  function withdraw() public onlyOwner {... */\n    tag_15:\n        /* \"storage-factory/contracts/FundMe.sol\":2377:2382  owner */\n      0x03\n      0x00\n      swap1\n      sload\n      swap1\n      0x0100\n      exp\n      swap1\n      div\n      0xffffffffffffffffffffffffffffffffffffffff\n      and\n        /* \"storage-factory/contracts/FundMe.sol\":2363:2382  msg.sender == owner */\n      0xffffffffffffffffffffffffffffffffffffffff\n      and\n        /* \"storage-factory/contracts/FundMe.sol\":2363:2373  msg.sender */\n      caller\n        /* \"storage-factory/contracts/FundMe.sol\":2363:2382  msg.sender == owner */\n      0xffffffffffffffffffffffffffffffffffffffff\n      and\n      eq\n        /* \"storage-factory/contracts/FundMe.sol\":2355:2399  require(msg.sender == owner, \"Not allowed!\") */\n      tag_36\n      jumpi\n      mload(0x40)\n      0x08c379a000000000000000000000000000000000000000000000000000000000\n      dup2\n      mstore\n      0x04\n      add\n      tag_37\n      swap1\n      tag_38\n      jump\t// in\n    tag_37:\n      mload(0x40)\n      dup1\n      swap2\n      sub\n      swap1\n      revert\n    tag_36:\n        /* \"storage-factory/contracts/FundMe.sol\":1559:1578  uint256 funderIndex */\n      0x00\n        /* \"storage-factory/contracts/FundMe.sol\":1541:1770  for (... */\n    tag_40:\n        /* \"storage-factory/contracts/FundMe.sol\":1610:1617  funders */\n      0x01\n        /* \"storage-factory/contracts/FundMe.sol\":1610:1624  funders.length */\n      dup1\n      sload\n      swap1\n      pop\n        /* \"storage-factory/contracts/FundMe.sol\":1596:1607  funderIndex */\n      dup2\n        /* \"storage-factory/contracts/FundMe.sol\":1596:1624  funderIndex < funders.length */\n      lt\n        /* \"storage-factory/contracts/FundMe.sol\":1541:1770  for (... */\n      iszero\n      tag_41\n      jumpi\n        /* \"storage-factory/contracts/FundMe.sol\":1676:1690  address funder */\n      0x00\n        /* \"storage-factory/contracts/FundMe.sol\":1693:1700  funders */\n      0x01\n        /* \"storage-factory/contracts/FundMe.sol\":1701:1712  funderIndex */\n      dup3\n        /* \"storage-factory/contracts/FundMe.sol\":1693:1713  funders[funderIndex] */\n      dup2\n      sload\n      dup2\n      lt\n      tag_43\n      jumpi\n      tag_44\n      tag_45\n      jump\t// in\n    tag_44:\n    tag_43:\n      swap1\n      0x00\n      mstore\n      keccak256(0x00, 0x20)\n      add\n      0x00\n      swap1\n      sload\n      swap1\n      0x0100\n      exp\n      swap1\n      div\n      0xffffffffffffffffffffffffffffffffffffffff\n      and\n        /* \"storage-factory/contracts/FundMe.sol\":1676:1713  address funder = funders[funderIndex] */\n      swap1\n      pop\n        /* \"storage-factory/contracts/FundMe.sol\":1758:1759  0 */\n      0x00\n        /* \"storage-factory/contracts/FundMe.sol\":1727:1747  addressToAointFunded */\n      0x02\n        /* \"storage-factory/contracts/FundMe.sol\":1727:1755  addressToAointFunded[funder] */\n      0x00\n        /* \"storage-factory/contracts/FundMe.sol\":1748:1754  funder */\n      dup4\n        /* \"storage-factory/contracts/FundMe.sol\":1727:1755  addressToAointFunded[funder] */\n      0xffffffffffffffffffffffffffffffffffffffff\n      and\n      0xffffffffffffffffffffffffffffffffffffffff\n      and\n      dup2\n      mstore\n      0x20\n      add\n      swap1\n      dup2\n      mstore\n      0x20\n      add\n      0x00\n      keccak256\n        /* \"storage-factory/contracts/FundMe.sol\":1727:1759  addressToAointFunded[funder] = 0 */\n      dup2\n      swap1\n      sstore\n      pop\n        /* \"storage-factory/contracts/FundMe.sol\":1662:1770  {... */\n      pop\n        /* \"storage-factory/contracts/FundMe.sol\":1638:1651  funderIndex++ */\n      dup1\n      dup1\n      tag_47\n      swap1\n      tag_48\n      jump\t// in\n    tag_47:\n      swap2\n      pop\n      pop\n        /* \"storage-factory/contracts/FundMe.sol\":1541:1770  for (... */\n      jump(tag_40)\n    tag_41:\n      pop\n        /* \"storage-factory/contracts/FundMe.sol\":1830:1831  0 */\n      0x00\n        /* \"storage-factory/contracts/FundMe.sol\":1816:1832  new address[](0) */\n      0xffffffffffffffff\n      dup2\n      gt\n      iszero\n      tag_49\n      jumpi\n      tag_50\n      tag_51\n      jump\t// in\n    tag_50:\n    tag_49:\n      mload(0x40)\n      swap1\n      dup1\n      dup3\n      mstore\n      dup1\n      0x20\n      mul\n      0x20\n      add\n      dup3\n      add\n      0x40\n      mstore\n      dup1\n      iszero\n      tag_52\n      jumpi\n      dup2\n      0x20\n      add\n      0x20\n      dup3\n      mul\n      dup1\n      calldatasize\n      dup4\n      calldatacopy\n      dup1\n      dup3\n      add\n      swap2\n      pop\n      pop\n      swap1\n      pop\n    tag_52:\n      pop\n        /* \"storage-factory/contracts/FundMe.sol\":1806:1813  funders */\n      0x01\n        /* \"storage-factory/contracts/FundMe.sol\":1806:1832  funders = new address[](0) */\n      swap1\n      dup1\n      mload\n      swap1\n      0x20\n      add\n      swap1\n      tag_53\n      swap3\n      swap2\n      swap1\n      tag_54\n      jump\t// in\n    tag_53:\n      pop\n        /* \"storage-factory/contracts/FundMe.sol\":2133:2149  bool callSuccess */\n      0x00\n        /* \"storage-factory/contracts/FundMe.sol\":2163:2173  msg.sender */\n      caller\n        /* \"storage-factory/contracts/FundMe.sol\":2155:2179  payable(msg.sender).call */\n      0xffffffffffffffffffffffffffffffffffffffff\n      and\n        /* \"storage-factory/contracts/FundMe.sol\":2200:2221  address(this).balance */\n      selfbalance\n        /* \"storage-factory/contracts/FundMe.sol\":2155:2235  payable(msg.sender).call{... */\n      mload(0x40)\n      tag_55\n      swap1\n      tag_56\n      jump\t// in\n    tag_55:\n      0x00\n      mload(0x40)\n      dup1\n      dup4\n      sub\n      dup2\n      dup6\n      dup8\n      gas\n      call\n      swap3\n      pop\n      pop\n      pop\n      returndatasize\n      dup1\n      0x00\n      dup2\n      eq\n      tag_59\n      jumpi\n      mload(0x40)\n      swap2\n      pop\n      and(add(returndatasize, 0x3f), not(0x1f))\n      dup3\n      add\n      0x40\n      mstore\n      returndatasize\n      dup3\n      mstore\n      returndatasize\n      0x00\n      0x20\n      dup5\n      add\n      returndatacopy\n      jump(tag_58)\n    tag_59:\n      0x60\n      swap2\n      pop\n    tag_58:\n      pop\n        /* \"storage-factory/contracts/FundMe.sol\":2132:2235  (bool callSuccess, ) = payable(msg.sender).call{... */\n      pop\n      swap1\n      pop\n        /* \"storage-factory/contracts/FundMe.sol\":2253:2264  callSuccess */\n      dup1\n        /* \"storage-factory/contracts/FundMe.sol\":2245:2280  require(callSuccess, \"Call failed\") */\n      tag_60\n      jumpi\n      mload(0x40)\n      0x08c379a000000000000000000000000000000000000000000000000000000000\n      dup2\n      mstore\n      0x04\n      add\n      tag_61\n      swap1\n      tag_62\n      jump\t// in\n    tag_61:\n      mload(0x40)\n      dup1\n      swap2\n      sub\n      swap1\n      revert\n    tag_60:\n        /* \"storage-factory/contracts/FundMe.sol\":1531:2287  {... */\n      pop\n        /* \"storage-factory/contracts/FundMe.sol\":1494:2287  function withdraw() public onlyOwner {... */\n      jump\t// out\n        /* \"storage-factory/contracts/FundMe.sol\":544:564  address public owner */\n    tag_18:\n      0x03\n      0x00\n      swap1\n      sload\n      swap1\n      0x0100\n      exp\n      swap1\n      div\n      0xffffffffffffffffffffffffffffffffffffffff\n      and\n      dup2\n      jump\t// out\n        /* \"storage-factory/contracts/FundMe.sol\":802:1468  function fund() public payable {... */\n    tag_22:\n        /* \"storage-factory/contracts/FundMe.sol\":1318:1328  minimumUsd */\n      sload(0x00)\n        /* \"storage-factory/contracts/FundMe.sol\":1286:1315  msg.value.getConversionRate() */\n      tag_64\n        /* \"storage-factory/contracts/FundMe.sol\":1286:1295  msg.value */\n      callvalue\n        /* \"storage-factory/contracts/FundMe.sol\":1286:1313  msg.value.getConversionRate */\n      tag_65\n        /* \"storage-factory/contracts/FundMe.sol\":1286:1315  msg.value.getConversionRate() */\n      jump\t// in\n    tag_64:\n        /* \"storage-factory/contracts/FundMe.sol\":1286:1328  msg.value.getConversionRate() > minimumUsd */\n      gt\n        /* \"storage-factory/contracts/FundMe.sol\":1265:1373  require(... */\n      tag_66\n      jumpi\n      mload(0x40)\n      0x08c379a000000000000000000000000000000000000000000000000000000000\n      dup2\n      mstore\n      0x04\n      add\n      tag_67\n      swap1\n      tag_68\n      jump\t// in\n    tag_67:\n      mload(0x40)\n      dup1\n      swap2\n      sub\n      swap1\n      revert\n    tag_66:\n        /* \"storage-factory/contracts/FundMe.sol\":1383:1390  funders */\n      0x01\n        /* \"storage-factory/contracts/FundMe.sol\":1396:1406  msg.sender */\n      caller\n        /* \"storage-factory/contracts/FundMe.sol\":1383:1407  funders.push(msg.sender) */\n      swap1\n      dup1\n      0x01\n      dup2\n      sload\n      add\n      dup1\n      dup3\n      sstore\n      dup1\n      swap2\n      pop\n      pop\n      0x01\n      swap1\n      sub\n      swap1\n      0x00\n      mstore\n      keccak256(0x00, 0x20)\n      add\n      0x00\n      swap1\n      swap2\n      swap1\n      swap2\n      swap1\n      swap2\n      0x0100\n      exp\n      dup2\n      sload\n      dup2\n      0xffffffffffffffffffffffffffffffffffffffff\n      mul\n      not\n      and\n      swap1\n      dup4\n      0xffffffffffffffffffffffffffffffffffffffff\n      and\n      mul\n      or\n      swap1\n      sstore\n      pop\n        /* \"storage-factory/contracts/FundMe.sol\":1452:1461  msg.value */\n      callvalue\n        /* \"storage-factory/contracts/FundMe.sol\":1417:1437  addressToAointFunded */\n      0x02\n        /* \"storage-factory/contracts/FundMe.sol\":1417:1449  addressToAointFunded[msg.sender] */\n      0x00\n        /* \"storage-factory/contracts/FundMe.sol\":1438:1448  msg.sender */\n      caller\n        /* \"storage-factory/contracts/FundMe.sol\":1417:1449  addressToAointFunded[msg.sender] */\n      0xffffffffffffffffffffffffffffffffffffffff\n      and\n      0xffffffffffffffffffffffffffffffffffffffff\n      and\n      dup2\n      mstore\n      0x20\n      add\n      swap1\n      dup2\n      mstore\n      0x20\n      add\n      0x00\n      keccak256\n        /* \"storage-factory/contracts/FundMe.sol\":1417:1461  addressToAointFunded[msg.sender] = msg.value */\n      dup2\n      swap1\n      sstore\n      pop\n        /* \"storage-factory/contracts/FundMe.sol\":802:1468  function fund() public payable {... */\n      jump\t// out\n        /* \"storage-factory/contracts/FundMe.sol\":459:514  mapping(address => uint256) public addressToAointFunded */\n    tag_27:\n      mstore(0x20, 0x02)\n      dup1\n      0x00\n      mstore\n      keccak256(0x00, 0x40)\n      0x00\n      swap2\n      pop\n      swap1\n      pop\n      sload\n      dup2\n      jump\t// out\n        /* \"storage-factory/contracts/FundMe.sol\":396:420  address[] public funders */\n    tag_33:\n      0x01\n      dup2\n      dup2\n      sload\n      dup2\n      lt\n      tag_70\n      jumpi\n      0x00\n      dup1\n      revert\n    tag_70:\n      swap1\n      0x00\n      mstore\n      keccak256(0x00, 0x20)\n      add\n      0x00\n      swap2\n      pop\n      sload\n      swap1\n      0x0100\n      exp\n      swap1\n      div\n      0xffffffffffffffffffffffffffffffffffffffff\n      and\n      dup2\n      jump\t// out\n        /* \"storage-factory/contracts/PriceConverter.sol\":948:1215  function getConversionRate(uint256 ethAmount)... */\n    tag_65:\n        /* \"storage-factory/contracts/PriceConverter.sol\":1041:1048  uint256 */\n      0x00\n        /* \"storage-factory/contracts/PriceConverter.sol\":1064:1078  uint256 ethPic */\n      dup1\n        /* \"storage-factory/contracts/PriceConverter.sol\":1081:1091  getPrice() */\n      tag_73\n        /* \"storage-factory/contracts/PriceConverter.sol\":1081:1089  getPrice */\n      tag_74\n        /* \"storage-factory/contracts/PriceConverter.sol\":1081:1091  getPrice() */\n      jump\t// in\n    tag_73:\n        /* \"storage-factory/contracts/PriceConverter.sol\":1064:1091  uint256 ethPic = getPrice() */\n      swap1\n      pop\n        /* \"storage-factory/contracts/PriceConverter.sol\":1125:1147  uint256 ethAmountInUsd */\n      0x00\n        /* \"storage-factory/contracts/PriceConverter.sol\":1173:1177  1e18 */\n      0x0de0b6b3a7640000\n        /* \"storage-factory/contracts/PriceConverter.sol\":1160:1169  ethAmount */\n      dup5\n        /* \"storage-factory/contracts/PriceConverter.sol\":1151:1157  ethPic */\n      dup4\n        /* \"storage-factory/contracts/PriceConverter.sol\":1151:1169  ethPic * ethAmount */\n      tag_75\n      swap2\n      swap1\n      tag_76\n      jump\t// in\n    tag_75:\n        /* \"storage-factory/contracts/PriceConverter.sol\":1150:1177  (ethPic * ethAmount) / 1e18 */\n      tag_77\n      swap2\n      swap1\n      tag_78\n      jump\t// in\n    tag_77:\n        /* \"storage-factory/contracts/PriceConverter.sol\":1125:1177  uint256 ethAmountInUsd = (ethPic * ethAmount) / 1e18 */\n      swap1\n      pop\n        /* \"storage-factory/contracts/PriceConverter.sol\":1194:1208  ethAmountInUsd */\n      dup1\n        /* \"storage-factory/contracts/PriceConverter.sol\":1187:1208  return ethAmountInUsd */\n      swap3\n      pop\n      pop\n      pop\n        /* \"storage-factory/contracts/PriceConverter.sol\":948:1215  function getConversionRate(uint256 ethAmount)... */\n      swap2\n      swap1\n      pop\n      jump\t// out\n        /* \"storage-factory/contracts/PriceConverter.sol\":178:708  function getPrice() internal view returns (uint256) {... */\n    tag_74:\n        /* \"storage-factory/contracts/PriceConverter.sol\":221:228  uint256 */\n      0x00\n        /* \"storage-factory/contracts/PriceConverter.sol\":400:431  AggregatorV3Interface priceFeed */\n      dup1\n        /* \"storage-factory/contracts/PriceConverter.sol\":469:511  0x694AA1769357215DE4FAC081bf1f309aDC325306 */\n      0x694aa1769357215de4fac081bf1f309adc325306\n        /* \"storage-factory/contracts/PriceConverter.sol\":400:521  AggregatorV3Interface priceFeed = AggregatorV3Interface(... */\n      swap1\n      pop\n        /* \"storage-factory/contracts/PriceConverter.sol\":534:546  int256 price */\n      0x00\n        /* \"storage-factory/contracts/PriceConverter.sol\":556:565  priceFeed */\n      dup2\n        /* \"storage-factory/contracts/PriceConverter.sol\":556:581  priceFeed.latestRoundData */\n      0xffffffffffffffffffffffffffffffffffffffff\n      and\n      0xfeaf968c\n        /* \"storage-factory/contracts/PriceConverter.sol\":556:583  priceFeed.latestRoundData() */\n      mload(0x40)\n      dup2\n      0xffffffff\n      and\n      0xe0\n      shl\n      dup2\n      mstore\n      0x04\n      add\n      0xa0\n      mload(0x40)\n      dup1\n      dup4\n      sub\n      dup2\n      dup7\n      dup1\n      extcodesize\n      iszero\n      dup1\n      iszero\n      tag_80\n      jumpi\n      0x00\n      dup1\n      revert\n    tag_80:\n      pop\n      gas\n      staticcall\n      iszero\n      dup1\n      iszero\n      tag_82\n      jumpi\n      returndatasize\n      0x00\n      dup1\n      returndatacopy\n      revert(0x00, returndatasize)\n    tag_82:\n      pop\n      pop\n      pop\n      pop\n      mload(0x40)\n      returndatasize\n      not(0x1f)\n      0x1f\n      dup3\n      add\n      and\n      dup3\n      add\n      dup1\n      0x40\n      mstore\n      pop\n      dup2\n      add\n      swap1\n      tag_83\n      swap2\n      swap1\n      tag_84\n      jump\t// in\n    tag_83:\n        /* \"storage-factory/contracts/PriceConverter.sol\":531:583  (, int256 price, , , ) = priceFeed.latestRoundData() */\n      pop\n      pop\n      pop\n      swap2\n      pop\n      pop\n        /* \"storage-factory/contracts/PriceConverter.sol\":672:676  1e10 */\n      0x02540be400\n        /* \"storage-factory/contracts/PriceConverter.sol\":664:669  price */\n      dup2\n        /* \"storage-factory/contracts/PriceConverter.sol\":664:676  price * 1e10 */\n      tag_85\n      swap2\n      swap1\n      tag_86\n      jump\t// in\n    tag_85:\n        /* \"storage-factory/contracts/PriceConverter.sol\":649:677  return uint256(price * 1e10) */\n      swap3\n      pop\n      pop\n      pop\n        /* \"storage-factory/contracts/PriceConverter.sol\":178:708  function getPrice() internal view returns (uint256) {... */\n      swap1\n      jump\t// out\n    tag_54:\n      dup3\n      dup1\n      sload\n      dup3\n      dup3\n      sstore\n      swap1\n      0x00\n      mstore\n      keccak256(0x00, 0x20)\n      swap1\n      dup2\n      add\n      swap3\n      dup3\n      iszero\n      tag_87\n      jumpi\n      swap2\n      0x20\n      mul\n      dup3\n      add\n    tag_88:\n      dup3\n      dup2\n      gt\n      iszero\n      tag_89\n      jumpi\n      dup3\n      mload\n      dup3\n      exp(0x0100, 0x00)\n      dup2\n      sload\n      dup2\n      0xffffffffffffffffffffffffffffffffffffffff\n      mul\n      not\n      and\n      swap1\n      dup4\n      0xffffffffffffffffffffffffffffffffffffffff\n      and\n      mul\n      or\n      swap1\n      sstore\n      pop\n      swap2\n      0x20\n      add\n      swap2\n      swap1\n      0x01\n      add\n      swap1\n      jump(tag_88)\n    tag_89:\n    tag_87:\n      pop\n      swap1\n      pop\n      tag_90\n      swap2\n      swap1\n      tag_91\n      jump\t// in\n    tag_90:\n      pop\n      swap1\n      jump\t// out\n    tag_91:\n    tag_92:\n      dup1\n      dup3\n      gt\n      iszero\n      tag_93\n      jumpi\n      0x00\n      dup2\n      0x00\n      swap1\n      sstore\n      pop\n      0x01\n      add\n      jump(tag_92)\n    tag_93:\n      pop\n      swap1\n      jump\t// out\n        /* \"#utility.yul\":7:84   */\n    tag_94:\n        /* \"#utility.yul\":44:51   */\n      0x00\n        /* \"#utility.yul\":73:78   */\n      dup2\n        /* \"#utility.yul\":62:78   */\n      swap1\n      pop\n        /* \"#utility.yul\":7:84   */\n      swap2\n      swap1\n      pop\n      jump\t// out\n        /* \"#utility.yul\":90:208   */\n    tag_95:\n        /* \"#utility.yul\":177:201   */\n      tag_128\n        /* \"#utility.yul\":195:200   */\n      dup2\n        /* \"#utility.yul\":177:201   */\n      tag_94\n      jump\t// in\n    tag_128:\n        /* \"#utility.yul\":172:175   */\n      dup3\n        /* \"#utility.yul\":165:202   */\n      mstore\n        /* \"#utility.yul\":90:208   */\n      pop\n      pop\n      jump\t// out\n        /* \"#utility.yul\":214:436   */\n    tag_12:\n        /* \"#utility.yul\":307:311   */\n      0x00\n        /* \"#utility.yul\":345:347   */\n      0x20\n        /* \"#utility.yul\":334:343   */\n      dup3\n        /* \"#utility.yul\":330:348   */\n      add\n        /* \"#utility.yul\":322:348   */\n      swap1\n      pop\n        /* \"#utility.yul\":358:429   */\n      tag_130\n        /* \"#utility.yul\":426:427   */\n      0x00\n        /* \"#utility.yul\":415:424   */\n      dup4\n        /* \"#utility.yul\":411:428   */\n      add\n        /* \"#utility.yul\":402:408   */\n      dup5\n        /* \"#utility.yul\":358:429   */\n      tag_95\n      jump\t// in\n    tag_130:\n        /* \"#utility.yul\":214:436   */\n      swap3\n      swap2\n      pop\n      pop\n      jump\t// out\n        /* \"#utility.yul\":442:568   */\n    tag_96:\n        /* \"#utility.yul\":479:486   */\n      0x00\n        /* \"#utility.yul\":519:561   */\n      0xffffffffffffffffffffffffffffffffffffffff\n        /* \"#utility.yul\":512:517   */\n      dup3\n        /* \"#utility.yul\":508:562   */\n      and\n        /* \"#utility.yul\":497:562   */\n      swap1\n      pop\n        /* \"#utility.yul\":442:568   */\n      swap2\n      swap1\n      pop\n      jump\t// out\n        /* \"#utility.yul\":574:670   */\n    tag_97:\n        /* \"#utility.yul\":611:618   */\n      0x00\n        /* \"#utility.yul\":640:664   */\n      tag_133\n        /* \"#utility.yul\":658:663   */\n      dup3\n        /* \"#utility.yul\":640:664   */\n      tag_96\n      jump\t// in\n    tag_133:\n        /* \"#utility.yul\":629:664   */\n      swap1\n      pop\n        /* \"#utility.yul\":574:670   */\n      swap2\n      swap1\n      pop\n      jump\t// out\n        /* \"#utility.yul\":676:794   */\n    tag_98:\n        /* \"#utility.yul\":763:787   */\n      tag_135\n        /* \"#utility.yul\":781:786   */\n      dup2\n        /* \"#utility.yul\":763:787   */\n      tag_97\n      jump\t// in\n    tag_135:\n        /* \"#utility.yul\":758:761   */\n      dup3\n        /* \"#utility.yul\":751:788   */\n      mstore\n        /* \"#utility.yul\":676:794   */\n      pop\n      pop\n      jump\t// out\n        /* \"#utility.yul\":800:1022   */\n    tag_20:\n        /* \"#utility.yul\":893:897   */\n      0x00\n        /* \"#utility.yul\":931:933   */\n      0x20\n        /* \"#utility.yul\":920:929   */\n      dup3\n        /* \"#utility.yul\":916:934   */\n      add\n        /* \"#utility.yul\":908:934   */\n      swap1\n      pop\n        /* \"#utility.yul\":944:1015   */\n      tag_137\n        /* \"#utility.yul\":1012:1013   */\n      0x00\n        /* \"#utility.yul\":1001:1010   */\n      dup4\n        /* \"#utility.yul\":997:1014   */\n      add\n        /* \"#utility.yul\":988:994   */\n      dup5\n        /* \"#utility.yul\":944:1015   */\n      tag_98\n      jump\t// in\n    tag_137:\n        /* \"#utility.yul\":800:1022   */\n      swap3\n      swap2\n      pop\n      pop\n      jump\t// out\n        /* \"#utility.yul\":1109:1226   */\n    tag_100:\n        /* \"#utility.yul\":1218:1219   */\n      0x00\n        /* \"#utility.yul\":1215:1216   */\n      dup1\n        /* \"#utility.yul\":1208:1220   */\n      revert\n        /* \"#utility.yul\":1355:1477   */\n    tag_102:\n        /* \"#utility.yul\":1428:1452   */\n      tag_142\n        /* \"#utility.yul\":1446:1451   */\n      dup2\n        /* \"#utility.yul\":1428:1452   */\n      tag_97\n      jump\t// in\n    tag_142:\n        /* \"#utility.yul\":1421:1426   */\n      dup2\n        /* \"#utility.yul\":1418:1453   */\n      eq\n        /* \"#utility.yul\":1408:1471   */\n      tag_143\n      jumpi\n        /* \"#utility.yul\":1467:1468   */\n      0x00\n        /* \"#utility.yul\":1464:1465   */\n      dup1\n        /* \"#utility.yul\":1457:1469   */\n      revert\n        /* \"#utility.yul\":1408:1471   */\n    tag_143:\n        /* \"#utility.yul\":1355:1477   */\n      pop\n      jump\t// out\n        /* \"#utility.yul\":1483:1622   */\n    tag_103:\n        /* \"#utility.yul\":1529:1534   */\n      0x00\n        /* \"#utility.yul\":1567:1573   */\n      dup2\n        /* \"#utility.yul\":1554:1574   */\n      calldataload\n        /* \"#utility.yul\":1545:1574   */\n      swap1\n      pop\n        /* \"#utility.yul\":1583:1616   */\n      tag_145\n        /* \"#utility.yul\":1610:1615   */\n      dup2\n        /* \"#utility.yul\":1583:1616   */\n      tag_102\n      jump\t// in\n    tag_145:\n        /* \"#utility.yul\":1483:1622   */\n      swap3\n      swap2\n      pop\n      pop\n      jump\t// out\n        /* \"#utility.yul\":1628:1957   */\n    tag_26:\n        /* \"#utility.yul\":1687:1693   */\n      0x00\n        /* \"#utility.yul\":1736:1738   */\n      0x20\n        /* \"#utility.yul\":1724:1733   */\n      dup3\n        /* \"#utility.yul\":1715:1722   */\n      dup5\n        /* \"#utility.yul\":1711:1734   */\n      sub\n        /* \"#utility.yul\":1707:1739   */\n      slt\n        /* \"#utility.yul\":1704:1823   */\n      iszero\n      tag_147\n      jumpi\n        /* \"#utility.yul\":1742:1821   */\n      tag_148\n      tag_100\n      jump\t// in\n    tag_148:\n        /* \"#utility.yul\":1704:1823   */\n    tag_147:\n        /* \"#utility.yul\":1862:1863   */\n      0x00\n        /* \"#utility.yul\":1887:1940   */\n      tag_149\n        /* \"#utility.yul\":1932:1939   */\n      dup5\n        /* \"#utility.yul\":1923:1929   */\n      dup3\n        /* \"#utility.yul\":1912:1921   */\n      dup6\n        /* \"#utility.yul\":1908:1930   */\n      add\n        /* \"#utility.yul\":1887:1940   */\n      tag_103\n      jump\t// in\n    tag_149:\n        /* \"#utility.yul\":1877:1940   */\n      swap2\n      pop\n        /* \"#utility.yul\":1833:1950   */\n      pop\n        /* \"#utility.yul\":1628:1957   */\n      swap3\n      swap2\n      pop\n      pop\n      jump\t// out\n        /* \"#utility.yul\":1963:2085   */\n    tag_104:\n        /* \"#utility.yul\":2036:2060   */\n      tag_151\n        /* \"#utility.yul\":2054:2059   */\n      dup2\n        /* \"#utility.yul\":2036:2060   */\n      tag_94\n      jump\t// in\n    tag_151:\n        /* \"#utility.yul\":2029:2034   */\n      dup2\n        /* \"#utility.yul\":2026:2061   */\n      eq\n        /* \"#utility.yul\":2016:2079   */\n      tag_152\n      jumpi\n        /* \"#utility.yul\":2075:2076   */\n      0x00\n        /* \"#utility.yul\":2072:2073   */\n      dup1\n        /* \"#utility.yul\":2065:2077   */\n      revert\n        /* \"#utility.yul\":2016:2079   */\n    tag_152:\n        /* \"#utility.yul\":1963:2085   */\n      pop\n      jump\t// out\n        /* \"#utility.yul\":2091:2230   */\n    tag_105:\n        /* \"#utility.yul\":2137:2142   */\n      0x00\n        /* \"#utility.yul\":2175:2181   */\n      dup2\n        /* \"#utility.yul\":2162:2182   */\n      calldataload\n        /* \"#utility.yul\":2153:2182   */\n      swap1\n      pop\n        /* \"#utility.yul\":2191:2224   */\n      tag_154\n        /* \"#utility.yul\":2218:2223   */\n      dup2\n        /* \"#utility.yul\":2191:2224   */\n      tag_104\n      jump\t// in\n    tag_154:\n        /* \"#utility.yul\":2091:2230   */\n      swap3\n      swap2\n      pop\n      pop\n      jump\t// out\n        /* \"#utility.yul\":2236:2565   */\n    tag_32:\n        /* \"#utility.yul\":2295:2301   */\n      0x00\n        /* \"#utility.yul\":2344:2346   */\n      0x20\n        /* \"#utility.yul\":2332:2341   */\n      dup3\n        /* \"#utility.yul\":2323:2330   */\n      dup5\n        /* \"#utility.yul\":2319:2342   */\n      sub\n        /* \"#utility.yul\":2315:2347   */\n      slt\n        /* \"#utility.yul\":2312:2431   */\n      iszero\n      tag_156\n      jumpi\n        /* \"#utility.yul\":2350:2429   */\n      tag_157\n      tag_100\n      jump\t// in\n    tag_157:\n        /* \"#utility.yul\":2312:2431   */\n    tag_156:\n        /* \"#utility.yul\":2470:2471   */\n      0x00\n        /* \"#utility.yul\":2495:2548   */\n      tag_158\n        /* \"#utility.yul\":2540:2547   */\n      dup5\n        /* \"#utility.yul\":2531:2537   */\n      dup3\n        /* \"#utility.yul\":2520:2529   */\n      dup6\n        /* \"#utility.yul\":2516:2538   */\n      add\n        /* \"#utility.yul\":2495:2548   */\n      tag_105\n      jump\t// in\n    tag_158:\n        /* \"#utility.yul\":2485:2548   */\n      swap2\n      pop\n        /* \"#utility.yul\":2441:2558   */\n      pop\n        /* \"#utility.yul\":2236:2565   */\n      swap3\n      swap2\n      pop\n      pop\n      jump\t// out\n        /* \"#utility.yul\":2571:2740   */\n    tag_106:\n        /* \"#utility.yul\":2655:2666   */\n      0x00\n        /* \"#utility.yul\":2689:2695   */\n      dup3\n        /* \"#utility.yul\":2684:2687   */\n      dup3\n        /* \"#utility.yul\":2677:2696   */\n      mstore\n        /* \"#utility.yul\":2729:2733   */\n      0x20\n        /* \"#utility.yul\":2724:2727   */\n      dup3\n        /* \"#utility.yul\":2720:2734   */\n      add\n        /* \"#utility.yul\":2705:2734   */\n      swap1\n      pop\n        /* \"#utility.yul\":2571:2740   */\n      swap3\n      swap2\n      pop\n      pop\n      jump\t// out\n        /* \"#utility.yul\":2746:2908   */\n    tag_107:\n        /* \"#utility.yul\":2886:2900   */\n      0x4e6f7420616c6c6f776564210000000000000000000000000000000000000000\n        /* \"#utility.yul\":2882:2883   */\n      0x00\n        /* \"#utility.yul\":2874:2880   */\n      dup3\n        /* \"#utility.yul\":2870:2884   */\n      add\n        /* \"#utility.yul\":2863:2901   */\n      mstore\n        /* \"#utility.yul\":2746:2908   */\n      pop\n      jump\t// out\n        /* \"#utility.yul\":2914:3280   */\n    tag_108:\n        /* \"#utility.yul\":3056:3059   */\n      0x00\n        /* \"#utility.yul\":3077:3144   */\n      tag_162\n        /* \"#utility.yul\":3141:3143   */\n      0x0c\n        /* \"#utility.yul\":3136:3139   */\n      dup4\n        /* \"#utility.yul\":3077:3144   */\n      tag_106\n      jump\t// in\n    tag_162:\n        /* \"#utility.yul\":3070:3144   */\n      swap2\n      pop\n        /* \"#utility.yul\":3153:3246   */\n      tag_163\n        /* \"#utility.yul\":3242:3245   */\n      dup3\n        /* \"#utility.yul\":3153:3246   */\n      tag_107\n      jump\t// in\n    tag_163:\n        /* \"#utility.yul\":3271:3273   */\n      0x20\n        /* \"#utility.yul\":3266:3269   */\n      dup3\n        /* \"#utility.yul\":3262:3274   */\n      add\n        /* \"#utility.yul\":3255:3274   */\n      swap1\n      pop\n        /* \"#utility.yul\":2914:3280   */\n      swap2\n      swap1\n      pop\n      jump\t// out\n        /* \"#utility.yul\":3286:3705   */\n    tag_38:\n        /* \"#utility.yul\":3452:3456   */\n      0x00\n        /* \"#utility.yul\":3490:3492   */\n      0x20\n        /* \"#utility.yul\":3479:3488   */\n      dup3\n        /* \"#utility.yul\":3475:3493   */\n      add\n        /* \"#utility.yul\":3467:3493   */\n      swap1\n      pop\n        /* \"#utility.yul\":3539:3548   */\n      dup2\n        /* \"#utility.yul\":3533:3537   */\n      dup2\n        /* \"#utility.yul\":3529:3549   */\n      sub\n        /* \"#utility.yul\":3525:3526   */\n      0x00\n        /* \"#utility.yul\":3514:3523   */\n      dup4\n        /* \"#utility.yul\":3510:3527   */\n      add\n        /* \"#utility.yul\":3503:3550   */\n      mstore\n        /* \"#utility.yul\":3567:3698   */\n      tag_165\n        /* \"#utility.yul\":3693:3697   */\n      dup2\n        /* \"#utility.yul\":3567:3698   */\n      tag_108\n      jump\t// in\n    tag_165:\n        /* \"#utility.yul\":3559:3698   */\n      swap1\n      pop\n        /* \"#utility.yul\":3286:3705   */\n      swap2\n      swap1\n      pop\n      jump\t// out\n        /* \"#utility.yul\":3711:3891   */\n    tag_45:\n        /* \"#utility.yul\":3759:3836   */\n      0x4e487b7100000000000000000000000000000000000000000000000000000000\n        /* \"#utility.yul\":3756:3757   */\n      0x00\n        /* \"#utility.yul\":3749:3837   */\n      mstore\n        /* \"#utility.yul\":3856:3860   */\n      0x32\n        /* \"#utility.yul\":3853:3854   */\n      0x04\n        /* \"#utility.yul\":3846:3861   */\n      mstore\n        /* \"#utility.yul\":3880:3884   */\n      0x24\n        /* \"#utility.yul\":3877:3878   */\n      0x00\n        /* \"#utility.yul\":3870:3885   */\n      revert\n        /* \"#utility.yul\":3897:4077   */\n    tag_109:\n        /* \"#utility.yul\":3945:4022   */\n      0x4e487b7100000000000000000000000000000000000000000000000000000000\n        /* \"#utility.yul\":3942:3943   */\n      0x00\n        /* \"#utility.yul\":3935:4023   */\n      mstore\n        /* \"#utility.yul\":4042:4046   */\n      0x11\n        /* \"#utility.yul\":4039:4040   */\n      0x04\n        /* \"#utility.yul\":4032:4047   */\n      mstore\n        /* \"#utility.yul\":4066:4070   */\n      0x24\n        /* \"#utility.yul\":4063:4064   */\n      0x00\n        /* \"#utility.yul\":4056:4071   */\n      revert\n        /* \"#utility.yul\":4083:4316   */\n    tag_48:\n        /* \"#utility.yul\":4122:4125   */\n      0x00\n        /* \"#utility.yul\":4145:4169   */\n      tag_169\n        /* \"#utility.yul\":4163:4168   */\n      dup3\n        /* \"#utility.yul\":4145:4169   */\n      tag_94\n      jump\t// in\n    tag_169:\n        /* \"#utility.yul\":4136:4169   */\n      swap2\n      pop\n        /* \"#utility.yul\":4191:4257   */\n      0xffffffffffffffffffffffffffffffffffffffffffffffffffffffffffffffff\n        /* \"#utility.yul\":4184:4189   */\n      dup3\n        /* \"#utility.yul\":4181:4258   */\n      eq\n        /* \"#utility.yul\":4178:4281   */\n      iszero\n      tag_170\n      jumpi\n        /* \"#utility.yul\":4261:4279   */\n      tag_171\n      tag_109\n      jump\t// in\n    tag_171:\n        /* \"#utility.yul\":4178:4281   */\n    tag_170:\n        /* \"#utility.yul\":4308:4309   */\n      0x01\n        /* \"#utility.yul\":4301:4306   */\n      dup3\n        /* \"#utility.yul\":4297:4310   */\n      add\n        /* \"#utility.yul\":4290:4310   */\n      swap1\n      pop\n        /* \"#utility.yul\":4083:4316   */\n      swap2\n      swap1\n      pop\n      jump\t// out\n        /* \"#utility.yul\":4322:4502   */\n    tag_51:\n        /* \"#utility.yul\":4370:4447   */\n      0x4e487b7100000000000000000000000000000000000000000000000000000000\n        /* \"#utility.yul\":4367:4368   */\n      0x00\n        /* \"#utility.yul\":4360:4448   */\n      mstore\n        /* \"#utility.yul\":4467:4471   */\n      0x41\n        /* \"#utility.yul\":4464:4465   */\n      0x04\n        /* \"#utility.yul\":4457:4472   */\n      mstore\n        /* \"#utility.yul\":4491:4495   */\n      0x24\n        /* \"#utility.yul\":4488:4489   */\n      0x00\n        /* \"#utility.yul\":4481:4496   */\n      revert\n        /* \"#utility.yul\":4508:4655   */\n    tag_110:\n        /* \"#utility.yul\":4609:4620   */\n      0x00\n        /* \"#utility.yul\":4646:4649   */\n      dup2\n        /* \"#utility.yul\":4631:4649   */\n      swap1\n      pop\n        /* \"#utility.yul\":4508:4655   */\n      swap3\n      swap2\n      pop\n      pop\n      jump\t// out\n        /* \"#utility.yul\":4661:4775   */\n    tag_111:\n      pop\n      jump\t// out\n        /* \"#utility.yul\":4781:5179   */\n    tag_112:\n        /* \"#utility.yul\":4940:4943   */\n      0x00\n        /* \"#utility.yul\":4961:5044   */\n      tag_176\n        /* \"#utility.yul\":5042:5043   */\n      0x00\n        /* \"#utility.yul\":5037:5040   */\n      dup4\n        /* \"#utility.yul\":4961:5044   */\n      tag_110\n      jump\t// in\n    tag_176:\n        /* \"#utility.yul\":4954:5044   */\n      swap2\n      pop\n        /* \"#utility.yul\":5053:5146   */\n      tag_177\n        /* \"#utility.yul\":5142:5145   */\n      dup3\n        /* \"#utility.yul\":5053:5146   */\n      tag_111\n      jump\t// in\n    tag_177:\n        /* \"#utility.yul\":5171:5172   */\n      0x00\n        /* \"#utility.yul\":5166:5169   */\n      dup3\n        /* \"#utility.yul\":5162:5173   */\n      add\n        /* \"#utility.yul\":5155:5173   */\n      swap1\n      pop\n        /* \"#utility.yul\":4781:5179   */\n      swap2\n      swap1\n      pop\n      jump\t// out\n        /* \"#utility.yul\":5185:5564   */\n    tag_56:\n        /* \"#utility.yul\":5369:5372   */\n      0x00\n        /* \"#utility.yul\":5391:5538   */\n      tag_179\n        /* \"#utility.yul\":5534:5537   */\n      dup3\n        /* \"#utility.yul\":5391:5538   */\n      tag_112\n      jump\t// in\n    tag_179:\n        /* \"#utility.yul\":5384:5538   */\n      swap2\n      pop\n        /* \"#utility.yul\":5555:5558   */\n      dup2\n        /* \"#utility.yul\":5548:5558   */\n      swap1\n      pop\n        /* \"#utility.yul\":5185:5564   */\n      swap2\n      swap1\n      pop\n      jump\t// out\n        /* \"#utility.yul\":5570:5731   */\n    tag_113:\n        /* \"#utility.yul\":5710:5723   */\n      0x43616c6c206661696c6564000000000000000000000000000000000000000000\n        /* \"#utility.yul\":5706:5707   */\n      0x00\n        /* \"#utility.yul\":5698:5704   */\n      dup3\n        /* \"#utility.yul\":5694:5708   */\n      add\n        /* \"#utility.yul\":5687:5724   */\n      mstore\n        /* \"#utility.yul\":5570:5731   */\n      pop\n      jump\t// out\n        /* \"#utility.yul\":5737:6103   */\n    tag_114:\n        /* \"#utility.yul\":5879:5882   */\n      0x00\n        /* \"#utility.yul\":5900:5967   */\n      tag_182\n        /* \"#utility.yul\":5964:5966   */\n      0x0b\n        /* \"#utility.yul\":5959:5962   */\n      dup4\n        /* \"#utility.yul\":5900:5967   */\n      tag_106\n      jump\t// in\n    tag_182:\n        /* \"#utility.yul\":5893:5967   */\n      swap2\n      pop\n        /* \"#utility.yul\":5976:6069   */\n      tag_183\n        /* \"#utility.yul\":6065:6068   */\n      dup3\n        /* \"#utility.yul\":5976:6069   */\n      tag_113\n      jump\t// in\n    tag_183:\n        /* \"#utility.yul\":6094:6096   */\n      0x20\n        /* \"#utility.yul\":6089:6092   */\n      dup3\n        /* \"#utility.yul\":6085:6097   */\n      add\n        /* \"#utility.yul\":6078:6097   */\n      swap1\n      pop\n        /* \"#utility.yul\":5737:6103   */\n      swap2\n      swap1\n      pop\n      jump\t// out\n        /* \"#utility.yul\":6109:6528   */\n    tag_62:\n        /* \"#utility.yul\":6275:6279   */\n      0x00\n        /* \"#utility.yul\":6313:6315   */\n      0x20\n        /* \"#utility.yul\":6302:6311   */\n      dup3\n        /* \"#utility.yul\":6298:6316   */\n      add\n        /* \"#utility.yul\":6290:6316   */\n      swap1\n      pop\n        /* \"#utility.yul\":6362:6371   */\n      dup2\n        /* \"#utility.yul\":6356:6360   */\n      dup2\n        /* \"#utility.yul\":6352:6372   */\n      sub\n        /* \"#utility.yul\":6348:6349   */\n      0x00\n        /* \"#utility.yul\":6337:6346   */\n      dup4\n        /* \"#utility.yul\":6333:6350   */\n      add\n        /* \"#utility.yul\":6326:6373   */\n      mstore\n        /* \"#utility.yul\":6390:6521   */\n      tag_185\n        /* \"#utility.yul\":6516:6520   */\n      dup2\n        /* \"#utility.yul\":6390:6521   */\n      tag_114\n      jump\t// in\n    tag_185:\n        /* \"#utility.yul\":6382:6521   */\n      swap1\n      pop\n        /* \"#utility.yul\":6109:6528   */\n      swap2\n      swap1\n      pop\n      jump\t// out\n        /* \"#utility.yul\":6534:6703   */\n    tag_115:\n        /* \"#utility.yul\":6674:6695   */\n      0x4469646e27742073656e6420656e6f7567682100000000000000000000000000\n        /* \"#utility.yul\":6670:6671   */\n      0x00\n        /* \"#utility.yul\":6662:6668   */\n      dup3\n        /* \"#utility.yul\":6658:6672   */\n      add\n        /* \"#utility.yul\":6651:6696   */\n      mstore\n        /* \"#utility.yul\":6534:6703   */\n      pop\n      jump\t// out\n        /* \"#utility.yul\":6709:7075   */\n    tag_116:\n        /* \"#utility.yul\":6851:6854   */\n      0x00\n        /* \"#utility.yul\":6872:6939   */\n      tag_188\n        /* \"#utility.yul\":6936:6938   */\n      0x13\n        /* \"#utility.yul\":6931:6934   */\n      dup4\n        /* \"#utility.yul\":6872:6939   */\n      tag_106\n      jump\t// in\n    tag_188:\n        /* \"#utility.yul\":6865:6939   */\n      swap2\n      pop\n        /* \"#utility.yul\":6948:7041   */\n      tag_189\n        /* \"#utility.yul\":7037:7040   */\n      dup3\n        /* \"#utility.yul\":6948:7041   */\n      tag_115\n      jump\t// in\n    tag_189:\n        /* \"#utility.yul\":7066:7068   */\n      0x20\n        /* \"#utility.yul\":7061:7064   */\n      dup3\n        /* \"#utility.yul\":7057:7069   */\n      add\n        /* \"#utility.yul\":7050:7069   */\n      swap1\n      pop\n        /* \"#utility.yul\":6709:7075   */\n      swap2\n      swap1\n      pop\n      jump\t// out\n        /* \"#utility.yul\":7081:7500   */\n    tag_68:\n        /* \"#utility.yul\":7247:7251   */\n      0x00\n        /* \"#utility.yul\":7285:7287   */\n      0x20\n        /* \"#utility.yul\":7274:7283   */\n      dup3\n        /* \"#utility.yul\":7270:7288   */\n      add\n        /* \"#utility.yul\":7262:7288   */\n      swap1\n      pop\n        /* \"#utility.yul\":7334:7343   */\n      dup2\n        /* \"#utility.yul\":7328:7332   */\n      dup2\n        /* \"#utility.yul\":7324:7344   */\n      sub\n        /* \"#utility.yul\":7320:7321   */\n      0x00\n        /* \"#utility.yul\":7309:7318   */\n      dup4\n        /* \"#utility.yul\":7305:7322   */\n      add\n        /* \"#utility.yul\":7298:7345   */\n      mstore\n        /* \"#utility.yul\":7362:7493   */\n      tag_191\n        /* \"#utility.yul\":7488:7492   */\n      dup2\n        /* \"#utility.yul\":7362:7493   */\n      tag_116\n      jump\t// in\n    tag_191:\n        /* \"#utility.yul\":7354:7493   */\n      swap1\n      pop\n        /* \"#utility.yul\":7081:7500   */\n      swap2\n      swap1\n      pop\n      jump\t// out\n        /* \"#utility.yul\":7506:7854   */\n    tag_76:\n        /* \"#utility.yul\":7546:7553   */\n      0x00\n        /* \"#utility.yul\":7569:7589   */\n      tag_193\n        /* \"#utility.yul\":7587:7588   */\n      dup3\n        /* \"#utility.yul\":7569:7589   */\n      tag_94\n      jump\t// in\n    tag_193:\n        /* \"#utility.yul\":7564:7589   */\n      swap2\n      pop\n        /* \"#utility.yul\":7603:7623   */\n      tag_194\n        /* \"#utility.yul\":7621:7622   */\n      dup4\n        /* \"#utility.yul\":7603:7623   */\n      tag_94\n      jump\t// in\n    tag_194:\n        /* \"#utility.yul\":7598:7623   */\n      swap3\n      pop\n        /* \"#utility.yul\":7791:7792   */\n      dup2\n        /* \"#utility.yul\":7723:7789   */\n      0xffffffffffffffffffffffffffffffffffffffffffffffffffffffffffffffff\n        /* \"#utility.yul\":7719:7793   */\n      div\n        /* \"#utility.yul\":7716:7717   */\n      dup4\n        /* \"#utility.yul\":7713:7794   */\n      gt\n        /* \"#utility.yul\":7708:7709   */\n      dup3\n        /* \"#utility.yul\":7701:7710   */\n      iszero\n        /* \"#utility.yul\":7694:7711   */\n      iszero\n        /* \"#utility.yul\":7690:7795   */\n      and\n        /* \"#utility.yul\":7687:7818   */\n      iszero\n      tag_195\n      jumpi\n        /* \"#utility.yul\":7798:7816   */\n      tag_196\n      tag_109\n      jump\t// in\n    tag_196:\n        /* \"#utility.yul\":7687:7818   */\n    tag_195:\n        /* \"#utility.yul\":7846:7847   */\n      dup3\n        /* \"#utility.yul\":7843:7844   */\n      dup3\n        /* \"#utility.yul\":7839:7848   */\n      mul\n        /* \"#utility.yul\":7828:7848   */\n      swap1\n      pop\n        /* \"#utility.yul\":7506:7854   */\n      swap3\n      swap2\n      pop\n      pop\n      jump\t// out\n        /* \"#utility.yul\":7860:8040   */\n    tag_117:\n        /* \"#utility.yul\":7908:7985   */\n      0x4e487b7100000000000000000000000000000000000000000000000000000000\n        /* \"#utility.yul\":7905:7906   */\n      0x00\n        /* \"#utility.yul\":7898:7986   */\n      mstore\n        /* \"#utility.yul\":8005:8009   */\n      0x12\n        /* \"#utility.yul\":8002:8003   */\n      0x04\n        /* \"#utility.yul\":7995:8010   */\n      mstore\n        /* \"#utility.yul\":8029:8033   */\n      0x24\n        /* \"#utility.yul\":8026:8027   */\n      0x00\n        /* \"#utility.yul\":8019:8034   */\n      revert\n        /* \"#utility.yul\":8046:8231   */\n    tag_78:\n        /* \"#utility.yul\":8086:8087   */\n      0x00\n        /* \"#utility.yul\":8103:8123   */\n      tag_199\n        /* \"#utility.yul\":8121:8122   */\n      dup3\n        /* \"#utility.yul\":8103:8123   */\n      tag_94\n      jump\t// in\n    tag_199:\n        /* \"#utility.yul\":8098:8123   */\n      swap2\n      pop\n        /* \"#utility.yul\":8137:8157   */\n      tag_200\n        /* \"#utility.yul\":8155:8156   */\n      dup4\n        /* \"#utility.yul\":8137:8157   */\n      tag_94\n      jump\t// in\n    tag_200:\n        /* \"#utility.yul\":8132:8157   */\n      swap3\n      pop\n        /* \"#utility.yul\":8176:8177   */\n      dup3\n        /* \"#utility.yul\":8166:8201   */\n      tag_201\n      jumpi\n        /* \"#utility.yul\":8181:8199   */\n      tag_202\n      tag_117\n      jump\t// in\n    tag_202:\n        /* \"#utility.yul\":8166:8201   */\n    tag_201:\n        /* \"#utility.yul\":8223:8224   */\n      dup3\n        /* \"#utility.yul\":8220:8221   */\n      dup3\n        /* \"#utility.yul\":8216:8225   */\n      div\n        /* \"#utility.yul\":8211:8225   */\n      swap1\n      pop\n        /* \"#utility.yul\":8046:8231   */\n      swap3\n      swap2\n      pop\n      pop\n      jump\t// out\n        /* \"#utility.yul\":8237:8342   */\n    tag_118:\n        /* \"#utility.yul\":8273:8280   */\n      0x00\n        /* \"#utility.yul\":8313:8335   */\n      0xffffffffffffffffffff\n        /* \"#utility.yul\":8306:8311   */\n      dup3\n        /* \"#utility.yul\":8302:8336   */\n      and\n        /* \"#utility.yul\":8291:8336   */\n      swap1\n      pop\n        /* \"#utility.yul\":8237:8342   */\n      swap2\n      swap1\n      pop\n      jump\t// out\n        /* \"#utility.yul\":8348:8468   */\n    tag_119:\n        /* \"#utility.yul\":8420:8443   */\n      tag_205\n        /* \"#utility.yul\":8437:8442   */\n      dup2\n        /* \"#utility.yul\":8420:8443   */\n      tag_118\n      jump\t// in\n    tag_205:\n        /* \"#utility.yul\":8413:8418   */\n      dup2\n        /* \"#utility.yul\":8410:8444   */\n      eq\n        /* \"#utility.yul\":8400:8462   */\n      tag_206\n      jumpi\n        /* \"#utility.yul\":8458:8459   */\n      0x00\n        /* \"#utility.yul\":8455:8456   */\n      dup1\n        /* \"#utility.yul\":8448:8460   */\n      revert\n        /* \"#utility.yul\":8400:8462   */\n    tag_206:\n        /* \"#utility.yul\":8348:8468   */\n      pop\n      jump\t// out\n        /* \"#utility.yul\":8474:8615   */\n    tag_120:\n        /* \"#utility.yul\":8530:8535   */\n      0x00\n        /* \"#utility.yul\":8561:8567   */\n      dup2\n        /* \"#utility.yul\":8555:8568   */\n      mload\n        /* \"#utility.yul\":8546:8568   */\n      swap1\n      pop\n        /* \"#utility.yul\":8577:8609   */\n      tag_208\n        /* \"#utility.yul\":8603:8608   */\n      dup2\n        /* \"#utility.yul\":8577:8609   */\n      tag_119\n      jump\t// in\n    tag_208:\n        /* \"#utility.yul\":8474:8615   */\n      swap3\n      swap2\n      pop\n      pop\n      jump\t// out\n        /* \"#utility.yul\":8621:8697   */\n    tag_121:\n        /* \"#utility.yul\":8657:8664   */\n      0x00\n        /* \"#utility.yul\":8686:8691   */\n      dup2\n        /* \"#utility.yul\":8675:8691   */\n      swap1\n      pop\n        /* \"#utility.yul\":8621:8697   */\n      swap2\n      swap1\n      pop\n      jump\t// out\n        /* \"#utility.yul\":8703:8823   */\n    tag_122:\n        /* \"#utility.yul\":8775:8798   */\n      tag_211\n        /* \"#utility.yul\":8792:8797   */\n      dup2\n        /* \"#utility.yul\":8775:8798   */\n      tag_121\n      jump\t// in\n    tag_211:\n        /* \"#utility.yul\":8768:8773   */\n      dup2\n        /* \"#utility.yul\":8765:8799   */\n      eq\n        /* \"#utility.yul\":8755:8817   */\n      tag_212\n      jumpi\n        /* \"#utility.yul\":8813:8814   */\n      0x00\n        /* \"#utility.yul\":8810:8811   */\n      dup1\n        /* \"#utility.yul\":8803:8815   */\n      revert\n        /* \"#utility.yul\":8755:8817   */\n    tag_212:\n        /* \"#utility.yul\":8703:8823   */\n      pop\n      jump\t// out\n        /* \"#utility.yul\":8829:8970   */\n    tag_123:\n        /* \"#utility.yul\":8885:8890   */\n      0x00\n        /* \"#utility.yul\":8916:8922   */\n      dup2\n        /* \"#utility.yul\":8910:8923   */\n      mload\n        /* \"#utility.yul\":8901:8923   */\n      swap1\n      pop\n        /* \"#utility.yul\":8932:8964   */\n      tag_214\n        /* \"#utility.yul\":8958:8963   */\n      dup2\n        /* \"#utility.yul\":8932:8964   */\n      tag_122\n      jump\t// in\n    tag_214:\n        /* \"#utility.yul\":8829:8970   */\n      swap3\n      swap2\n      pop\n      pop\n      jump\t// out\n        /* \"#utility.yul\":8976:9119   */\n    tag_124:\n        /* \"#utility.yul\":9033:9038   */\n      0x00\n        /* \"#utility.yul\":9064:9070   */\n      dup2\n        /* \"#utility.yul\":9058:9071   */\n      mload\n        /* \"#utility.yul\":9049:9071   */\n      swap1\n      pop\n        /* \"#utility.yul\":9080:9113   */\n      tag_216\n        /* \"#utility.yul\":9107:9112   */\n      dup2\n        /* \"#utility.yul\":9080:9113   */\n      tag_104\n      jump\t// in\n    tag_216:\n        /* \"#utility.yul\":8976:9119   */\n      swap3\n      swap2\n      pop\n      pop\n      jump\t// out\n        /* \"#utility.yul\":9125:10096   */\n    tag_84:\n        /* \"#utility.yul\":9228:9234   */\n      0x00\n        /* \"#utility.yul\":9236:9242   */\n      dup1\n        /* \"#utility.yul\":9244:9250   */\n      0x00\n        /* \"#utility.yul\":9252:9258   */\n      dup1\n        /* \"#utility.yul\":9260:9266   */\n      0x00\n        /* \"#utility.yul\":9309:9312   */\n      0xa0\n        /* \"#utility.yul\":9297:9306   */\n      dup7\n        /* \"#utility.yul\":9288:9295   */\n      dup9\n        /* \"#utility.yul\":9284:9307   */\n      sub\n        /* \"#utility.yul\":9280:9313   */\n      slt\n        /* \"#utility.yul\":9277:9397   */\n      iszero\n      tag_218\n      jumpi\n        /* \"#utility.yul\":9316:9395   */\n      tag_219\n      tag_100\n      jump\t// in\n    tag_219:\n        /* \"#utility.yul\":9277:9397   */\n    tag_218:\n        /* \"#utility.yul\":9436:9437   */\n      0x00\n        /* \"#utility.yul\":9461:9524   */\n      tag_220\n        /* \"#utility.yul\":9516:9523   */\n      dup9\n        /* \"#utility.yul\":9507:9513   */\n      dup3\n        /* \"#utility.yul\":9496:9505   */\n      dup10\n        /* \"#utility.yul\":9492:9514   */\n      add\n        /* \"#utility.yul\":9461:9524   */\n      tag_120\n      jump\t// in\n    tag_220:\n        /* \"#utility.yul\":9451:9524   */\n      swap6\n      pop\n        /* \"#utility.yul\":9407:9534   */\n      pop\n        /* \"#utility.yul\":9573:9575   */\n      0x20\n        /* \"#utility.yul\":9599:9662   */\n      tag_221\n        /* \"#utility.yul\":9654:9661   */\n      dup9\n        /* \"#utility.yul\":9645:9651   */\n      dup3\n        /* \"#utility.yul\":9634:9643   */\n      dup10\n        /* \"#utility.yul\":9630:9652   */\n      add\n        /* \"#utility.yul\":9599:9662   */\n      tag_123\n      jump\t// in\n    tag_221:\n        /* \"#utility.yul\":9589:9662   */\n      swap5\n      pop\n        /* \"#utility.yul\":9544:9672   */\n      pop\n        /* \"#utility.yul\":9711:9713   */\n      0x40\n        /* \"#utility.yul\":9737:9801   */\n      tag_222\n        /* \"#utility.yul\":9793:9800   */\n      dup9\n        /* \"#utility.yul\":9784:9790   */\n      dup3\n        /* \"#utility.yul\":9773:9782   */\n      dup10\n        /* \"#utility.yul\":9769:9791   */\n      add\n        /* \"#utility.yul\":9737:9801   */\n      tag_124\n      jump\t// in\n    tag_222:\n        /* \"#utility.yul\":9727:9801   */\n      swap4\n      pop\n        /* \"#utility.yul\":9682:9811   */\n      pop\n        /* \"#utility.yul\":9850:9852   */\n      0x60\n        /* \"#utility.yul\":9876:9940   */\n      tag_223\n        /* \"#utility.yul\":9932:9939   */\n      dup9\n        /* \"#utility.yul\":9923:9929   */\n      dup3\n        /* \"#utility.yul\":9912:9921   */\n      dup10\n        /* \"#utility.yul\":9908:9930   */\n      add\n        /* \"#utility.yul\":9876:9940   */\n      tag_124\n      jump\t// in\n    tag_223:\n        /* \"#utility.yul\":9866:9940   */\n      swap3\n      pop\n        /* \"#utility.yul\":9821:9950   */\n      pop\n        /* \"#utility.yul\":9989:9992   */\n      0x80\n        /* \"#utility.yul\":10016:10079   */\n      tag_224\n        /* \"#utility.yul\":10071:10078   */\n      dup9\n        /* \"#utility.yul\":10062:10068   */\n      dup3\n        /* \"#utility.yul\":10051:10060   */\n      dup10\n        /* \"#utility.yul\":10047:10069   */\n      add\n        /* \"#utility.yul\":10016:10079   */\n      tag_120\n      jump\t// in\n    tag_224:\n        /* \"#utility.yul\":10006:10079   */\n      swap2\n      pop\n        /* \"#utility.yul\":9960:10089   */\n      pop\n        /* \"#utility.yul\":9125:10096   */\n      swap3\n      swap6\n      pop\n      swap3\n      swap6\n      swap1\n      swap4\n      pop\n      jump\t// out\n        /* \"#utility.yul\":10102:11093   */\n    tag_86:\n        /* \"#utility.yul\":10141:10148   */\n      0x00\n        /* \"#utility.yul\":10164:10183   */\n      tag_226\n        /* \"#utility.yul\":10181:10182   */\n      dup3\n        /* \"#utility.yul\":10164:10183   */\n      tag_121\n      jump\t// in\n    tag_226:\n        /* \"#utility.yul\":10159:10183   */\n      swap2\n      pop\n        /* \"#utility.yul\":10197:10216   */\n      tag_227\n        /* \"#utility.yul\":10214:10215   */\n      dup4\n        /* \"#utility.yul\":10197:10216   */\n      tag_121\n      jump\t// in\n    tag_227:\n        /* \"#utility.yul\":10192:10216   */\n      swap3\n      pop\n        /* \"#utility.yul\":10398:10399   */\n      dup3\n        /* \"#utility.yul\":10330:10396   */\n      0x7fffffffffffffffffffffffffffffffffffffffffffffffffffffffffffffff\n        /* \"#utility.yul\":10326:10400   */\n      div\n        /* \"#utility.yul\":10323:10324   */\n      dup3\n        /* \"#utility.yul\":10320:10401   */\n      gt\n        /* \"#utility.yul\":10315:10316   */\n      0x00\n        /* \"#utility.yul\":10312:10313   */\n      dup5\n        /* \"#utility.yul\":10308:10317   */\n      sgt\n        /* \"#utility.yul\":10304:10305   */\n      0x00\n        /* \"#utility.yul\":10301:10302   */\n      dup5\n        /* \"#utility.yul\":10297:10306   */\n      sgt\n        /* \"#utility.yul\":10293:10318   */\n      and\n        /* \"#utility.yul\":10289:10402   */\n      and\n        /* \"#utility.yul\":10286:10425   */\n      iszero\n      tag_228\n      jumpi\n        /* \"#utility.yul\":10405:10423   */\n      tag_229\n      tag_109\n      jump\t// in\n    tag_229:\n        /* \"#utility.yul\":10286:10425   */\n    tag_228:\n        /* \"#utility.yul\":10609:10610   */\n      dup2\n        /* \"#utility.yul\":10541:10607   */\n      0x8000000000000000000000000000000000000000000000000000000000000000\n        /* \"#utility.yul\":10536:10611   */\n      sdiv\n        /* \"#utility.yul\":10533:10534   */\n      dup4\n        /* \"#utility.yul\":10529:10612   */\n      slt\n        /* \"#utility.yul\":10524:10525   */\n      0x00\n        /* \"#utility.yul\":10521:10522   */\n      dup5\n        /* \"#utility.yul\":10517:10526   */\n      slt\n        /* \"#utility.yul\":10513:10514   */\n      0x00\n        /* \"#utility.yul\":10510:10511   */\n      dup5\n        /* \"#utility.yul\":10506:10515   */\n      sgt\n        /* \"#utility.yul\":10502:10527   */\n      and\n        /* \"#utility.yul\":10498:10613   */\n      and\n        /* \"#utility.yul\":10495:10636   */\n      iszero\n      tag_230\n      jumpi\n        /* \"#utility.yul\":10616:10634   */\n      tag_231\n      tag_109\n      jump\t// in\n    tag_231:\n        /* \"#utility.yul\":10495:10636   */\n    tag_230:\n        /* \"#utility.yul\":10820:10821   */\n      dup3\n        /* \"#utility.yul\":10752:10818   */\n      0x8000000000000000000000000000000000000000000000000000000000000000\n        /* \"#utility.yul\":10747:10822   */\n      sdiv\n        /* \"#utility.yul\":10744:10745   */\n      dup3\n        /* \"#utility.yul\":10740:10823   */\n      slt\n        /* \"#utility.yul\":10735:10736   */\n      0x00\n        /* \"#utility.yul\":10732:10733   */\n      dup5\n        /* \"#utility.yul\":10728:10737   */\n      sgt\n        /* \"#utility.yul\":10724:10725   */\n      0x00\n        /* \"#utility.yul\":10721:10722   */\n      dup5\n        /* \"#utility.yul\":10717:10726   */\n      slt\n        /* \"#utility.yul\":10713:10738   */\n      and\n        /* \"#utility.yul\":10709:10824   */\n      and\n        /* \"#utility.yul\":10706:10847   */\n      iszero\n      tag_232\n      jumpi\n        /* \"#utility.yul\":10827:10845   */\n      tag_233\n      tag_109\n      jump\t// in\n    tag_233:\n        /* \"#utility.yul\":10706:10847   */\n    tag_232:\n        /* \"#utility.yul\":11030:11031   */\n      dup3\n        /* \"#utility.yul\":10962:11028   */\n      0x7fffffffffffffffffffffffffffffffffffffffffffffffffffffffffffffff\n        /* \"#utility.yul\":10957:11032   */\n      sdiv\n        /* \"#utility.yul\":10954:10955   */\n      dup3\n        /* \"#utility.yul\":10950:11033   */\n      slt\n        /* \"#utility.yul\":10945:10946   */\n      0x00\n        /* \"#utility.yul\":10942:10943   */\n      dup5\n        /* \"#utility.yul\":10938:10947   */\n      slt\n        /* \"#utility.yul\":10934:10935   */\n      0x00\n        /* \"#utility.yul\":10931:10932   */\n      dup5\n        /* \"#utility.yul\":10927:10936   */\n      slt\n        /* \"#utility.yul\":10923:10948   */\n      and\n        /* \"#utility.yul\":10919:11034   */\n      and\n        /* \"#utility.yul\":10916:11057   */\n      iszero\n      tag_234\n      jumpi\n        /* \"#utility.yul\":11037:11055   */\n      tag_235\n      tag_109\n      jump\t// in\n    tag_235:\n        /* \"#utility.yul\":10916:11057   */\n    tag_234:\n        /* \"#utility.yul\":11085:11086   */\n      dup3\n        /* \"#utility.yul\":11082:11083   */\n      dup3\n        /* \"#utility.yul\":11078:11087   */\n      mul\n        /* \"#utility.yul\":11067:11087   */\n      swap1\n      pop\n        /* \"#utility.yul\":10102:11093   */\n      swap3\n      swap2\n      pop\n      pop\n      jump\t// out\n\n    auxdata: 0xa26469706673582212204fc8f2c8e92754392a8018d54b9f65e4ee9683443e5c1793cec822c86c654d0e64736f6c63430008080033\n}\n",
				"bytecode": {
					"linkReferences": {},
					"object": "6080604052600160005534801561001557600080fd5b5033600360006101000a81548173ffffffffffffffffffffffffffffffffffffffff021916908373ffffffffffffffffffffffffffffffffffffffff160217905550610d6f806100666000396000f3fe6080604052600436106100555760003560e01c8063098de8201461005a5780633ccfd60b146100855780638da5cb5b1461009c578063b60d4288146100c7578063b8ee3585146100d1578063dc0d3dff1461010e575b600080fd5b34801561006657600080fd5b5061006f61014b565b60405161007c91906106c1565b60405180910390f35b34801561009157600080fd5b5061009a610151565b005b3480156100a857600080fd5b506100b161039d565b6040516100be919061071d565b60405180910390f35b6100cf6103c3565b005b3480156100dd57600080fd5b506100f860048036038101906100f39190610769565b6104b8565b60405161010591906106c1565b60405180910390f35b34801561011a57600080fd5b50610135600480360381019061013091906107c2565b6104d0565b604051610142919061071d565b60405180910390f35b60005481565b600360009054906101000a900473ffffffffffffffffffffffffffffffffffffffff1673ffffffffffffffffffffffffffffffffffffffff163373ffffffffffffffffffffffffffffffffffffffff16146101e1576040517f08c379a00000000000000000000000000000000000000000000000000000000081526004016101d89061084c565b60405180910390fd5b60005b60018054905081101561028d576000600182815481106102075761020661086c565b5b9060005260206000200160009054906101000a900473ffffffffffffffffffffffffffffffffffffffff1690506000600260008373ffffffffffffffffffffffffffffffffffffffff1673ffffffffffffffffffffffffffffffffffffffff16815260200190815260200160002081905550508080610285906108ca565b9150506101e4565b50600067ffffffffffffffff8111156102a9576102a8610913565b5b6040519080825280602002602001820160405280156102d75781602001602082028036833780820191505090505b50600190805190602001906102ed929190610601565b5060003373ffffffffffffffffffffffffffffffffffffffff164760405161031490610973565b60006040518083038185875af1925050503d8060008114610351576040519150601f19603f3d011682016040523d82523d6000602084013e610356565b606091505b505090508061039a576040517f08c379a0000000000000000000000000000000000000000000000000000000008152600401610391906109d4565b60405180910390fd5b50565b600360009054906101000a900473ffffffffffffffffffffffffffffffffffffffff1681565b6000546103cf3461050f565b1161040f576040517f08c379a000000000000000000000000000000000000000000000000000000000815260040161040690610a40565b60405180910390fd5b6001339080600181540180825580915050600190039060005260206000200160009091909190916101000a81548173ffffffffffffffffffffffffffffffffffffffff021916908373ffffffffffffffffffffffffffffffffffffffff16021790555034600260003373ffffffffffffffffffffffffffffffffffffffff1673ffffffffffffffffffffffffffffffffffffffff16815260200190815260200160002081905550565b60026020528060005260406000206000915090505481565b600181815481106104e057600080fd5b906000526020600020016000915054906101000a900473ffffffffffffffffffffffffffffffffffffffff1681565b60008061051a610549565b90506000670de0b6b3a764000084836105339190610a60565b61053d9190610ae9565b90508092505050919050565b60008073694aa1769357215de4fac081bf1f309adc325306905060008173ffffffffffffffffffffffffffffffffffffffff1663feaf968c6040518163ffffffff1660e01b815260040160a06040518083038186803b1580156105ab57600080fd5b505afa1580156105bf573d6000803e3d6000fd5b505050506040513d601f19601f820116820180604052508101906105e39190610ba7565b5050509150506402540be400816105fa9190610c22565b9250505090565b82805482825590600052602060002090810192821561067a579160200282015b828111156106795782518260006101000a81548173ffffffffffffffffffffffffffffffffffffffff021916908373ffffffffffffffffffffffffffffffffffffffff16021790555091602001919060010190610621565b5b509050610687919061068b565b5090565b5b808211156106a457600081600090555060010161068c565b5090565b6000819050919050565b6106bb816106a8565b82525050565b60006020820190506106d660008301846106b2565b92915050565b600073ffffffffffffffffffffffffffffffffffffffff82169050919050565b6000610707826106dc565b9050919050565b610717816106fc565b82525050565b6000602082019050610732600083018461070e565b92915050565b600080fd5b610746816106fc565b811461075157600080fd5b50565b6000813590506107638161073d565b92915050565b60006020828403121561077f5761077e610738565b5b600061078d84828501610754565b91505092915050565b61079f816106a8565b81146107aa57600080fd5b50565b6000813590506107bc81610796565b92915050565b6000602082840312156107d8576107d7610738565b5b60006107e6848285016107ad565b91505092915050565b600082825260208201905092915050565b7f4e6f7420616c6c6f776564210000000000000000000000000000000000000000600082015250565b6000610836600c836107ef565b915061084182610800565b602082019050919050565b6000602082019050818103600083015261086581610829565b9050919050565b7f4e487b7100000000000000000000000000000000000000000000000000000000600052603260045260246000fd5b7f4e487b7100000000000000000000000000000000000000000000000000000000600052601160045260246000fd5b60006108d5826106a8565b91507fffffffffffffffffffffffffffffffffffffffffffffffffffffffffffffffff8214156109085761090761089b565b5b600182019050919050565b7f4e487b7100000000000000000000000000000000000000000000000000000000600052604160045260246000fd5b600081905092915050565b50565b600061095d600083610942565b91506109688261094d565b600082019050919050565b600061097e82610950565b9150819050919050565b7f43616c6c206661696c6564000000000000000000000000000000000000000000600082015250565b60006109be600b836107ef565b91506109c982610988565b602082019050919050565b600060208201905081810360008301526109ed816109b1565b9050919050565b7f4469646e27742073656e6420656e6f7567682100000000000000000000000000600082015250565b6000610a2a6013836107ef565b9150610a35826109f4565b602082019050919050565b60006020820190508181036000830152610a5981610a1d565b9050919050565b6000610a6b826106a8565b9150610a76836106a8565b9250817fffffffffffffffffffffffffffffffffffffffffffffffffffffffffffffffff0483118215151615610aaf57610aae61089b565b5b828202905092915050565b7f4e487b7100000000000000000000000000000000000000000000000000000000600052601260045260246000fd5b6000610af4826106a8565b9150610aff836106a8565b925082610b0f57610b0e610aba565b5b828204905092915050565b600069ffffffffffffffffffff82169050919050565b610b3981610b1a565b8114610b4457600080fd5b50565b600081519050610b5681610b30565b92915050565b6000819050919050565b610b6f81610b5c565b8114610b7a57600080fd5b50565b600081519050610b8c81610b66565b92915050565b600081519050610ba181610796565b92915050565b600080600080600060a08688031215610bc357610bc2610738565b5b6000610bd188828901610b47565b9550506020610be288828901610b7d565b9450506040610bf388828901610b92565b9350506060610c0488828901610b92565b9250506080610c1588828901610b47565b9150509295509295909350565b6000610c2d82610b5c565b9150610c3883610b5c565b9250827f7fffffffffffffffffffffffffffffffffffffffffffffffffffffffffffffff0482116000841360008413161615610c7757610c7661089b565b5b817f80000000000000000000000000000000000000000000000000000000000000000583126000841260008413161615610cb457610cb361089b565b5b827f80000000000000000000000000000000000000000000000000000000000000000582126000841360008412161615610cf157610cf061089b565b5b827f7fffffffffffffffffffffffffffffffffffffffffffffffffffffffffffffff0582126000841260008412161615610d2e57610d2d61089b565b5b82820290509291505056fea26469706673582212204fc8f2c8e92754392a8018d54b9f65e4ee9683443e5c1793cec822c86c654d0e64736f6c63430008080033",
					"opcodes": "PUSH1 0x80 PUSH1 0x40 MSTORE PUSH1 0x1 PUSH1 0x0 SSTORE CALLVALUE DUP1 ISZERO PUSH2 0x15 JUMPI PUSH1 0x0 DUP1 REVERT JUMPDEST POP CALLER PUSH1 0x3 PUSH1 0x0 PUSH2 0x100 EXP DUP2 SLOAD DUP2 PUSH20 0xFFFFFFFFFFFFFFFFFFFFFFFFFFFFFFFFFFFFFFFF MUL NOT AND SWAP1 DUP4 PUSH20 0xFFFFFFFFFFFFFFFFFFFFFFFFFFFFFFFFFFFFFFFF AND MUL OR SWAP1 SSTORE POP PUSH2 0xD6F DUP1 PUSH2 0x66 PUSH1 0x0 CODECOPY PUSH1 0x0 RETURN INVALID PUSH1 0x80 PUSH1 0x40 MSTORE PUSH1 0x4 CALLDATASIZE LT PUSH2 0x55 JUMPI PUSH1 0x0 CALLDATALOAD PUSH1 0xE0 SHR DUP1 PUSH4 0x98DE820 EQ PUSH2 0x5A JUMPI DUP1 PUSH4 0x3CCFD60B EQ PUSH2 0x85 JUMPI DUP1 PUSH4 0x8DA5CB5B EQ PUSH2 0x9C JUMPI DUP1 PUSH4 0xB60D4288 EQ PUSH2 0xC7 JUMPI DUP1 PUSH4 0xB8EE3585 EQ PUSH2 0xD1 JUMPI DUP1 PUSH4 0xDC0D3DFF EQ PUSH2 0x10E JUMPI JUMPDEST PUSH1 0x0 DUP1 REVERT JUMPDEST CALLVALUE DUP1 ISZERO PUSH2 0x66 JUMPI PUSH1 0x0 DUP1 REVERT JUMPDEST POP PUSH2 0x6F PUSH2 0x14B JUMP JUMPDEST PUSH1 0x40 MLOAD PUSH2 0x7C SWAP2 SWAP1 PUSH2 0x6C1 JUMP JUMPDEST PUSH1 0x40 MLOAD DUP1 SWAP2 SUB SWAP1 RETURN JUMPDEST CALLVALUE DUP1 ISZERO PUSH2 0x91 JUMPI PUSH1 0x0 DUP1 REVERT JUMPDEST POP PUSH2 0x9A PUSH2 0x151 JUMP JUMPDEST STOP JUMPDEST CALLVALUE DUP1 ISZERO PUSH2 0xA8 JUMPI PUSH1 0x0 DUP1 REVERT JUMPDEST POP PUSH2 0xB1 PUSH2 0x39D JUMP JUMPDEST PUSH1 0x40 MLOAD PUSH2 0xBE SWAP2 SWAP1 PUSH2 0x71D JUMP JUMPDEST PUSH1 0x40 MLOAD DUP1 SWAP2 SUB SWAP1 RETURN JUMPDEST PUSH2 0xCF PUSH2 0x3C3 JUMP JUMPDEST STOP JUMPDEST CALLVALUE DUP1 ISZERO PUSH2 0xDD JUMPI PUSH1 0x0 DUP1 REVERT JUMPDEST POP PUSH2 0xF8 PUSH1 0x4 DUP1 CALLDATASIZE SUB DUP2 ADD SWAP1 PUSH2 0xF3 SWAP2 SWAP1 PUSH2 0x769 JUMP JUMPDEST PUSH2 0x4B8 JUMP JUMPDEST PUSH1 0x40 MLOAD PUSH2 0x105 SWAP2 SWAP1 PUSH2 0x6C1 JUMP JUMPDEST PUSH1 0x40 MLOAD DUP1 SWAP2 SUB SWAP1 RETURN JUMPDEST CALLVALUE DUP1 ISZERO PUSH2 0x11A JUMPI PUSH1 0x0 DUP1 REVERT JUMPDEST POP PUSH2 0x135 PUSH1 0x4 DUP1 CALLDATASIZE SUB DUP2 ADD SWAP1 PUSH2 0x130 SWAP2 SWAP1 PUSH2 0x7C2 JUMP JUMPDEST PUSH2 0x4D0 JUMP JUMPDEST PUSH1 0x40 MLOAD PUSH2 0x142 SWAP2 SWAP1 PUSH2 0x71D JUMP JUMPDEST PUSH1 0x40 MLOAD DUP1 SWAP2 SUB SWAP1 RETURN JUMPDEST PUSH1 0x0 SLOAD DUP2 JUMP JUMPDEST PUSH1 0x3 PUSH1 0x0 SWAP1 SLOAD SWAP1 PUSH2 0x100 EXP SWAP1 DIV PUSH20 0xFFFFFFFFFFFFFFFFFFFFFFFFFFFFFFFFFFFFFFFF AND PUSH20 0xFFFFFFFFFFFFFFFFFFFFFFFFFFFFFFFFFFFFFFFF AND CALLER PUSH20 0xFFFFFFFFFFFFFFFFFFFFFFFFFFFFFFFFFFFFFFFF AND EQ PUSH2 0x1E1 JUMPI PUSH1 0x40 MLOAD PUSH32 0x8C379A000000000000000000000000000000000000000000000000000000000 DUP2 MSTORE PUSH1 0x4 ADD PUSH2 0x1D8 SWAP1 PUSH2 0x84C JUMP JUMPDEST PUSH1 0x40 MLOAD DUP1 SWAP2 SUB SWAP1 REVERT JUMPDEST PUSH1 0x0 JUMPDEST PUSH1 0x1 DUP1 SLOAD SWAP1 POP DUP2 LT ISZERO PUSH2 0x28D JUMPI PUSH1 0x0 PUSH1 0x1 DUP3 DUP2 SLOAD DUP2 LT PUSH2 0x207 JUMPI PUSH2 0x206 PUSH2 0x86C JUMP JUMPDEST JUMPDEST SWAP1 PUSH1 0x0 MSTORE PUSH1 0x20 PUSH1 0x0 KECCAK256 ADD PUSH1 0x0 SWAP1 SLOAD SWAP1 PUSH2 0x100 EXP SWAP1 DIV PUSH20 0xFFFFFFFFFFFFFFFFFFFFFFFFFFFFFFFFFFFFFFFF AND SWAP1 POP PUSH1 0x0 PUSH1 0x2 PUSH1 0x0 DUP4 PUSH20 0xFFFFFFFFFFFFFFFFFFFFFFFFFFFFFFFFFFFFFFFF AND PUSH20 0xFFFFFFFFFFFFFFFFFFFFFFFFFFFFFFFFFFFFFFFF AND DUP2 MSTORE PUSH1 0x20 ADD SWAP1 DUP2 MSTORE PUSH1 0x20 ADD PUSH1 0x0 KECCAK256 DUP2 SWAP1 SSTORE POP POP DUP1 DUP1 PUSH2 0x285 SWAP1 PUSH2 0x8CA JUMP JUMPDEST SWAP2 POP POP PUSH2 0x1E4 JUMP JUMPDEST POP PUSH1 0x0 PUSH8 0xFFFFFFFFFFFFFFFF DUP2 GT ISZERO PUSH2 0x2A9 JUMPI PUSH2 0x2A8 PUSH2 0x913 JUMP JUMPDEST JUMPDEST PUSH1 0x40 MLOAD SWAP1 DUP1 DUP3 MSTORE DUP1 PUSH1 0x20 MUL PUSH1 0x20 ADD DUP3 ADD PUSH1 0x40 MSTORE DUP1 ISZERO PUSH2 0x2D7 JUMPI DUP2 PUSH1 0x20 ADD PUSH1 0x20 DUP3 MUL DUP1 CALLDATASIZE DUP4 CALLDATACOPY DUP1 DUP3 ADD SWAP2 POP POP SWAP1 POP JUMPDEST POP PUSH1 0x1 SWAP1 DUP1 MLOAD SWAP1 PUSH1 0x20 ADD SWAP1 PUSH2 0x2ED SWAP3 SWAP2 SWAP1 PUSH2 0x601 JUMP JUMPDEST POP PUSH1 0x0 CALLER PUSH20 0xFFFFFFFFFFFFFFFFFFFFFFFFFFFFFFFFFFFFFFFF AND SELFBALANCE PUSH1 0x40 MLOAD PUSH2 0x314 SWAP1 PUSH2 0x973 JUMP JUMPDEST PUSH1 0x0 PUSH1 0x40 MLOAD DUP1 DUP4 SUB DUP2 DUP6 DUP8 GAS CALL SWAP3 POP POP POP RETURNDATASIZE DUP1 PUSH1 0x0 DUP2 EQ PUSH2 0x351 JUMPI PUSH1 0x40 MLOAD SWAP2 POP PUSH1 0x1F NOT PUSH1 0x3F RETURNDATASIZE ADD AND DUP3 ADD PUSH1 0x40 MSTORE RETURNDATASIZE DUP3 MSTORE RETURNDATASIZE PUSH1 0x0 PUSH1 0x20 DUP5 ADD RETURNDATACOPY PUSH2 0x356 JUMP JUMPDEST PUSH1 0x60 SWAP2 POP JUMPDEST POP POP SWAP1 POP DUP1 PUSH2 0x39A JUMPI PUSH1 0x40 MLOAD PUSH32 0x8C379A000000000000000000000000000000000000000000000000000000000 DUP2 MSTORE PUSH1 0x4 ADD PUSH2 0x391 SWAP1 PUSH2 0x9D4 JUMP JUMPDEST PUSH1 0x40 MLOAD DUP1 SWAP2 SUB SWAP1 REVERT JUMPDEST POP JUMP JUMPDEST PUSH1 0x3 PUSH1 0x0 SWAP1 SLOAD SWAP1 PUSH2 0x100 EXP SWAP1 DIV PUSH20 0xFFFFFFFFFFFFFFFFFFFFFFFFFFFFFFFFFFFFFFFF AND DUP2 JUMP JUMPDEST PUSH1 0x0 SLOAD PUSH2 0x3CF CALLVALUE PUSH2 0x50F JUMP JUMPDEST GT PUSH2 0x40F JUMPI PUSH1 0x40 MLOAD PUSH32 0x8C379A000000000000000000000000000000000000000000000000000000000 DUP2 MSTORE PUSH1 0x4 ADD PUSH2 0x406 SWAP1 PUSH2 0xA40 JUMP JUMPDEST PUSH1 0x40 MLOAD DUP1 SWAP2 SUB SWAP1 REVERT JUMPDEST PUSH1 0x1 CALLER SWAP1 DUP1 PUSH1 0x1 DUP2 SLOAD ADD DUP1 DUP3 SSTORE DUP1 SWAP2 POP POP PUSH1 0x1 SWAP1 SUB SWAP1 PUSH1 0x0 MSTORE PUSH1 0x20 PUSH1 0x0 KECCAK256 ADD PUSH1 0x0 SWAP1 SWAP2 SWAP1 SWAP2 SWAP1 SWAP2 PUSH2 0x100 EXP DUP2 SLOAD DUP2 PUSH20 0xFFFFFFFFFFFFFFFFFFFFFFFFFFFFFFFFFFFFFFFF MUL NOT AND SWAP1 DUP4 PUSH20 0xFFFFFFFFFFFFFFFFFFFFFFFFFFFFFFFFFFFFFFFF AND MUL OR SWAP1 SSTORE POP CALLVALUE PUSH1 0x2 PUSH1 0x0 CALLER PUSH20 0xFFFFFFFFFFFFFFFFFFFFFFFFFFFFFFFFFFFFFFFF AND PUSH20 0xFFFFFFFFFFFFFFFFFFFFFFFFFFFFFFFFFFFFFFFF AND DUP2 MSTORE PUSH1 0x20 ADD SWAP1 DUP2 MSTORE PUSH1 0x20 ADD PUSH1 0x0 KECCAK256 DUP2 SWAP1 SSTORE POP JUMP JUMPDEST PUSH1 0x2 PUSH1 0x20 MSTORE DUP1 PUSH1 0x0 MSTORE PUSH1 0x40 PUSH1 0x0 KECCAK256 PUSH1 0x0 SWAP2 POP SWAP1 POP SLOAD DUP2 JUMP JUMPDEST PUSH1 0x1 DUP2 DUP2 SLOAD DUP2 LT PUSH2 0x4E0 JUMPI PUSH1 0x0 DUP1 REVERT JUMPDEST SWAP1 PUSH1 0x0 MSTORE PUSH1 0x20 PUSH1 0x0 KECCAK256 ADD PUSH1 0x0 SWAP2 POP SLOAD SWAP1 PUSH2 0x100 EXP SWAP1 DIV PUSH20 0xFFFFFFFFFFFFFFFFFFFFFFFFFFFFFFFFFFFFFFFF AND DUP2 JUMP JUMPDEST PUSH1 0x0 DUP1 PUSH2 0x51A PUSH2 0x549 JUMP JUMPDEST SWAP1 POP PUSH1 0x0 PUSH8 0xDE0B6B3A7640000 DUP5 DUP4 PUSH2 0x533 SWAP2 SWAP1 PUSH2 0xA60 JUMP JUMPDEST PUSH2 0x53D SWAP2 SWAP1 PUSH2 0xAE9 JUMP JUMPDEST SWAP1 POP DUP1 SWAP3 POP POP POP SWAP2 SWAP1 POP JUMP JUMPDEST PUSH1 0x0 DUP1 PUSH20 0x694AA1769357215DE4FAC081BF1F309ADC325306 SWAP1 POP PUSH1 0x0 DUP2 PUSH20 0xFFFFFFFFFFFFFFFFFFFFFFFFFFFFFFFFFFFFFFFF AND PUSH4 0xFEAF968C PUSH1 0x40 MLOAD DUP2 PUSH4 0xFFFFFFFF AND PUSH1 0xE0 SHL DUP2 MSTORE PUSH1 0x4 ADD PUSH1 0xA0 PUSH1 0x40 MLOAD DUP1 DUP4 SUB DUP2 DUP7 DUP1 EXTCODESIZE ISZERO DUP1 ISZERO PUSH2 0x5AB JUMPI PUSH1 0x0 DUP1 REVERT JUMPDEST POP GAS STATICCALL ISZERO DUP1 ISZERO PUSH2 0x5BF JUMPI RETURNDATASIZE PUSH1 0x0 DUP1 RETURNDATACOPY RETURNDATASIZE PUSH1 0x0 REVERT JUMPDEST POP POP POP POP PUSH1 0x40 MLOAD RETURNDATASIZE PUSH1 0x1F NOT PUSH1 0x1F DUP3 ADD AND DUP3 ADD DUP1 PUSH1 0x40 MSTORE POP DUP2 ADD SWAP1 PUSH2 0x5E3 SWAP2 SWAP1 PUSH2 0xBA7 JUMP JUMPDEST POP POP POP SWAP2 POP POP PUSH5 0x2540BE400 DUP2 PUSH2 0x5FA SWAP2 SWAP1 PUSH2 0xC22 JUMP JUMPDEST SWAP3 POP POP POP SWAP1 JUMP JUMPDEST DUP3 DUP1 SLOAD DUP3 DUP3 SSTORE SWAP1 PUSH1 0x0 MSTORE PUSH1 0x20 PUSH1 0x0 KECCAK256 SWAP1 DUP2 ADD SWAP3 DUP3 ISZERO PUSH2 0x67A JUMPI SWAP2 PUSH1 0x20 MUL DUP3 ADD JUMPDEST DUP3 DUP2 GT ISZERO PUSH2 0x679 JUMPI DUP3 MLOAD DUP3 PUSH1 0x0 PUSH2 0x100 EXP DUP2 SLOAD DUP2 PUSH20 0xFFFFFFFFFFFFFFFFFFFFFFFFFFFFFFFFFFFFFFFF MUL NOT AND SWAP1 DUP4 PUSH20 0xFFFFFFFFFFFFFFFFFFFFFFFFFFFFFFFFFFFFFFFF AND MUL OR SWAP1 SSTORE POP SWAP2 PUSH1 0x20 ADD SWAP2 SWAP1 PUSH1 0x1 ADD SWAP1 PUSH2 0x621 JUMP JUMPDEST JUMPDEST POP SWAP1 POP PUSH2 0x687 SWAP2 SWAP1 PUSH2 0x68B JUMP JUMPDEST POP SWAP1 JUMP JUMPDEST JUMPDEST DUP1 DUP3 GT ISZERO PUSH2 0x6A4 JUMPI PUSH1 0x0 DUP2 PUSH1 0x0 SWAP1 SSTORE POP PUSH1 0x1 ADD PUSH2 0x68C JUMP JUMPDEST POP SWAP1 JUMP JUMPDEST PUSH1 0x0 DUP2 SWAP1 POP SWAP2 SWAP1 POP JUMP JUMPDEST PUSH2 0x6BB DUP2 PUSH2 0x6A8 JUMP JUMPDEST DUP3 MSTORE POP POP JUMP JUMPDEST PUSH1 0x0 PUSH1 0x20 DUP3 ADD SWAP1 POP PUSH2 0x6D6 PUSH1 0x0 DUP4 ADD DUP5 PUSH2 0x6B2 JUMP JUMPDEST SWAP3 SWAP2 POP POP JUMP JUMPDEST PUSH1 0x0 PUSH20 0xFFFFFFFFFFFFFFFFFFFFFFFFFFFFFFFFFFFFFFFF DUP3 AND SWAP1 POP SWAP2 SWAP1 POP JUMP JUMPDEST PUSH1 0x0 PUSH2 0x707 DUP3 PUSH2 0x6DC JUMP JUMPDEST SWAP1 POP SWAP2 SWAP1 POP JUMP JUMPDEST PUSH2 0x717 DUP2 PUSH2 0x6FC JUMP JUMPDEST DUP3 MSTORE POP POP JUMP JUMPDEST PUSH1 0x0 PUSH1 0x20 DUP3 ADD SWAP1 POP PUSH2 0x732 PUSH1 0x0 DUP4 ADD DUP5 PUSH2 0x70E JUMP JUMPDEST SWAP3 SWAP2 POP POP JUMP JUMPDEST PUSH1 0x0 DUP1 REVERT JUMPDEST PUSH2 0x746 DUP2 PUSH2 0x6FC JUMP JUMPDEST DUP2 EQ PUSH2 0x751 JUMPI PUSH1 0x0 DUP1 REVERT JUMPDEST POP JUMP JUMPDEST PUSH1 0x0 DUP2 CALLDATALOAD SWAP1 POP PUSH2 0x763 DUP2 PUSH2 0x73D JUMP JUMPDEST SWAP3 SWAP2 POP POP JUMP JUMPDEST PUSH1 0x0 PUSH1 0x20 DUP3 DUP5 SUB SLT ISZERO PUSH2 0x77F JUMPI PUSH2 0x77E PUSH2 0x738 JUMP JUMPDEST JUMPDEST PUSH1 0x0 PUSH2 0x78D DUP5 DUP3 DUP6 ADD PUSH2 0x754 JUMP JUMPDEST SWAP2 POP POP SWAP3 SWAP2 POP POP JUMP JUMPDEST PUSH2 0x79F DUP2 PUSH2 0x6A8 JUMP JUMPDEST DUP2 EQ PUSH2 0x7AA JUMPI PUSH1 0x0 DUP1 REVERT JUMPDEST POP JUMP JUMPDEST PUSH1 0x0 DUP2 CALLDATALOAD SWAP1 POP PUSH2 0x7BC DUP2 PUSH2 0x796 JUMP JUMPDEST SWAP3 SWAP2 POP POP JUMP JUMPDEST PUSH1 0x0 PUSH1 0x20 DUP3 DUP5 SUB SLT ISZERO PUSH2 0x7D8 JUMPI PUSH2 0x7D7 PUSH2 0x738 JUMP JUMPDEST JUMPDEST PUSH1 0x0 PUSH2 0x7E6 DUP5 DUP3 DUP6 ADD PUSH2 0x7AD JUMP JUMPDEST SWAP2 POP POP SWAP3 SWAP2 POP POP JUMP JUMPDEST PUSH1 0x0 DUP3 DUP3 MSTORE PUSH1 0x20 DUP3 ADD SWAP1 POP SWAP3 SWAP2 POP POP JUMP JUMPDEST PUSH32 0x4E6F7420616C6C6F776564210000000000000000000000000000000000000000 PUSH1 0x0 DUP3 ADD MSTORE POP JUMP JUMPDEST PUSH1 0x0 PUSH2 0x836 PUSH1 0xC DUP4 PUSH2 0x7EF JUMP JUMPDEST SWAP2 POP PUSH2 0x841 DUP3 PUSH2 0x800 JUMP JUMPDEST PUSH1 0x20 DUP3 ADD SWAP1 POP SWAP2 SWAP1 POP JUMP JUMPDEST PUSH1 0x0 PUSH1 0x20 DUP3 ADD SWAP1 POP DUP2 DUP2 SUB PUSH1 0x0 DUP4 ADD MSTORE PUSH2 0x865 DUP2 PUSH2 0x829 JUMP JUMPDEST SWAP1 POP SWAP2 SWAP1 POP JUMP JUMPDEST PUSH32 0x4E487B7100000000000000000000000000000000000000000000000000000000 PUSH1 0x0 MSTORE PUSH1 0x32 PUSH1 0x4 MSTORE PUSH1 0x24 PUSH1 0x0 REVERT JUMPDEST PUSH32 0x4E487B7100000000000000000000000000000000000000000000000000000000 PUSH1 0x0 MSTORE PUSH1 0x11 PUSH1 0x4 MSTORE PUSH1 0x24 PUSH1 0x0 REVERT JUMPDEST PUSH1 0x0 PUSH2 0x8D5 DUP3 PUSH2 0x6A8 JUMP JUMPDEST SWAP2 POP PUSH32 0xFFFFFFFFFFFFFFFFFFFFFFFFFFFFFFFFFFFFFFFFFFFFFFFFFFFFFFFFFFFFFFFF DUP3 EQ ISZERO PUSH2 0x908 JUMPI PUSH2 0x907 PUSH2 0x89B JUMP JUMPDEST JUMPDEST PUSH1 0x1 DUP3 ADD SWAP1 POP SWAP2 SWAP1 POP JUMP JUMPDEST PUSH32 0x4E487B7100000000000000000000000000000000000000000000000000000000 PUSH1 0x0 MSTORE PUSH1 0x41 PUSH1 0x4 MSTORE PUSH1 0x24 PUSH1 0x0 REVERT JUMPDEST PUSH1 0x0 DUP2 SWAP1 POP SWAP3 SWAP2 POP POP JUMP JUMPDEST POP JUMP JUMPDEST PUSH1 0x0 PUSH2 0x95D PUSH1 0x0 DUP4 PUSH2 0x942 JUMP JUMPDEST SWAP2 POP PUSH2 0x968 DUP3 PUSH2 0x94D JUMP JUMPDEST PUSH1 0x0 DUP3 ADD SWAP1 POP SWAP2 SWAP1 POP JUMP JUMPDEST PUSH1 0x0 PUSH2 0x97E DUP3 PUSH2 0x950 JUMP JUMPDEST SWAP2 POP DUP2 SWAP1 POP SWAP2 SWAP1 POP JUMP JUMPDEST PUSH32 0x43616C6C206661696C6564000000000000000000000000000000000000000000 PUSH1 0x0 DUP3 ADD MSTORE POP JUMP JUMPDEST PUSH1 0x0 PUSH2 0x9BE PUSH1 0xB DUP4 PUSH2 0x7EF JUMP JUMPDEST SWAP2 POP PUSH2 0x9C9 DUP3 PUSH2 0x988 JUMP JUMPDEST PUSH1 0x20 DUP3 ADD SWAP1 POP SWAP2 SWAP1 POP JUMP JUMPDEST PUSH1 0x0 PUSH1 0x20 DUP3 ADD SWAP1 POP DUP2 DUP2 SUB PUSH1 0x0 DUP4 ADD MSTORE PUSH2 0x9ED DUP2 PUSH2 0x9B1 JUMP JUMPDEST SWAP1 POP SWAP2 SWAP1 POP JUMP JUMPDEST PUSH32 0x4469646E27742073656E6420656E6F7567682100000000000000000000000000 PUSH1 0x0 DUP3 ADD MSTORE POP JUMP JUMPDEST PUSH1 0x0 PUSH2 0xA2A PUSH1 0x13 DUP4 PUSH2 0x7EF JUMP JUMPDEST SWAP2 POP PUSH2 0xA35 DUP3 PUSH2 0x9F4 JUMP JUMPDEST PUSH1 0x20 DUP3 ADD SWAP1 POP SWAP2 SWAP1 POP JUMP JUMPDEST PUSH1 0x0 PUSH1 0x20 DUP3 ADD SWAP1 POP DUP2 DUP2 SUB PUSH1 0x0 DUP4 ADD MSTORE PUSH2 0xA59 DUP2 PUSH2 0xA1D JUMP JUMPDEST SWAP1 POP SWAP2 SWAP1 POP JUMP JUMPDEST PUSH1 0x0 PUSH2 0xA6B DUP3 PUSH2 0x6A8 JUMP JUMPDEST SWAP2 POP PUSH2 0xA76 DUP4 PUSH2 0x6A8 JUMP JUMPDEST SWAP3 POP DUP2 PUSH32 0xFFFFFFFFFFFFFFFFFFFFFFFFFFFFFFFFFFFFFFFFFFFFFFFFFFFFFFFFFFFFFFFF DIV DUP4 GT DUP3 ISZERO ISZERO AND ISZERO PUSH2 0xAAF JUMPI PUSH2 0xAAE PUSH2 0x89B JUMP JUMPDEST JUMPDEST DUP3 DUP3 MUL SWAP1 POP SWAP3 SWAP2 POP POP JUMP JUMPDEST PUSH32 0x4E487B7100000000000000000000000000000000000000000000000000000000 PUSH1 0x0 MSTORE PUSH1 0x12 PUSH1 0x4 MSTORE PUSH1 0x24 PUSH1 0x0 REVERT JUMPDEST PUSH1 0x0 PUSH2 0xAF4 DUP3 PUSH2 0x6A8 JUMP JUMPDEST SWAP2 POP PUSH2 0xAFF DUP4 PUSH2 0x6A8 JUMP JUMPDEST SWAP3 POP DUP3 PUSH2 0xB0F JUMPI PUSH2 0xB0E PUSH2 0xABA JUMP JUMPDEST JUMPDEST DUP3 DUP3 DIV SWAP1 POP SWAP3 SWAP2 POP POP JUMP JUMPDEST PUSH1 0x0 PUSH10 0xFFFFFFFFFFFFFFFFFFFF DUP3 AND SWAP1 POP SWAP2 SWAP1 POP JUMP JUMPDEST PUSH2 0xB39 DUP2 PUSH2 0xB1A JUMP JUMPDEST DUP2 EQ PUSH2 0xB44 JUMPI PUSH1 0x0 DUP1 REVERT JUMPDEST POP JUMP JUMPDEST PUSH1 0x0 DUP2 MLOAD SWAP1 POP PUSH2 0xB56 DUP2 PUSH2 0xB30 JUMP JUMPDEST SWAP3 SWAP2 POP POP JUMP JUMPDEST PUSH1 0x0 DUP2 SWAP1 POP SWAP2 SWAP1 POP JUMP JUMPDEST PUSH2 0xB6F DUP2 PUSH2 0xB5C JUMP JUMPDEST DUP2 EQ PUSH2 0xB7A JUMPI PUSH1 0x0 DUP1 REVERT JUMPDEST POP JUMP JUMPDEST PUSH1 0x0 DUP2 MLOAD SWAP1 POP PUSH2 0xB8C DUP2 PUSH2 0xB66 JUMP JUMPDEST SWAP3 SWAP2 POP POP JUMP JUMPDEST PUSH1 0x0 DUP2 MLOAD SWAP1 POP PUSH2 0xBA1 DUP2 PUSH2 0x796 JUMP JUMPDEST SWAP3 SWAP2 POP POP JUMP JUMPDEST PUSH1 0x0 DUP1 PUSH1 0x0 DUP1 PUSH1 0x0 PUSH1 0xA0 DUP7 DUP9 SUB SLT ISZERO PUSH2 0xBC3 JUMPI PUSH2 0xBC2 PUSH2 0x738 JUMP JUMPDEST JUMPDEST PUSH1 0x0 PUSH2 0xBD1 DUP9 DUP3 DUP10 ADD PUSH2 0xB47 JUMP JUMPDEST SWAP6 POP POP PUSH1 0x20 PUSH2 0xBE2 DUP9 DUP3 DUP10 ADD PUSH2 0xB7D JUMP JUMPDEST SWAP5 POP POP PUSH1 0x40 PUSH2 0xBF3 DUP9 DUP3 DUP10 ADD PUSH2 0xB92 JUMP JUMPDEST SWAP4 POP POP PUSH1 0x60 PUSH2 0xC04 DUP9 DUP3 DUP10 ADD PUSH2 0xB92 JUMP JUMPDEST SWAP3 POP POP PUSH1 0x80 PUSH2 0xC15 DUP9 DUP3 DUP10 ADD PUSH2 0xB47 JUMP JUMPDEST SWAP2 POP POP SWAP3 SWAP6 POP SWAP3 SWAP6 SWAP1 SWAP4 POP JUMP JUMPDEST PUSH1 0x0 PUSH2 0xC2D DUP3 PUSH2 0xB5C JUMP JUMPDEST SWAP2 POP PUSH2 0xC38 DUP4 PUSH2 0xB5C JUMP JUMPDEST SWAP3 POP DUP3 PUSH32 0x7FFFFFFFFFFFFFFFFFFFFFFFFFFFFFFFFFFFFFFFFFFFFFFFFFFFFFFFFFFFFFFF DIV DUP3 GT PUSH1 0x0 DUP5 SGT PUSH1 0x0 DUP5 SGT AND AND ISZERO PUSH2 0xC77 JUMPI PUSH2 0xC76 PUSH2 0x89B JUMP JUMPDEST JUMPDEST DUP2 PUSH32 0x8000000000000000000000000000000000000000000000000000000000000000 SDIV DUP4 SLT PUSH1 0x0 DUP5 SLT PUSH1 0x0 DUP5 SGT AND AND ISZERO PUSH2 0xCB4 JUMPI PUSH2 0xCB3 PUSH2 0x89B JUMP JUMPDEST JUMPDEST DUP3 PUSH32 0x8000000000000000000000000000000000000000000000000000000000000000 SDIV DUP3 SLT PUSH1 0x0 DUP5 SGT PUSH1 0x0 DUP5 SLT AND AND ISZERO PUSH2 0xCF1 JUMPI PUSH2 0xCF0 PUSH2 0x89B JUMP JUMPDEST JUMPDEST DUP3 PUSH32 0x7FFFFFFFFFFFFFFFFFFFFFFFFFFFFFFFFFFFFFFFFFFFFFFFFFFFFFFFFFFFFFFF SDIV DUP3 SLT PUSH1 0x0 DUP5 SLT PUSH1 0x0 DUP5 SLT AND AND ISZERO PUSH2 0xD2E JUMPI PUSH2 0xD2D PUSH2 0x89B JUMP JUMPDEST JUMPDEST DUP3 DUP3 MUL SWAP1 POP SWAP3 SWAP2 POP POP JUMP INVALID LOG2 PUSH5 0x6970667358 0x22 SLT KECCAK256 0x4F 0xC8 CALLCODE 0xC8 0xE9 0x27 SLOAD CODECOPY 0x2A DUP1 XOR 0xD5 0x4B SWAP16 PUSH6 0xE4EE9683443E 0x5C OR SWAP4 0xCE 0xC8 0x22 0xC8 PUSH13 0x654D0E64736F6C634300080800 CALLER "
				},
				"gasEstimates": {
					"creation": {
						"codeDepositCost": "687800",
						"executionCost": "47093",
						"totalCost": "734893"
					},
					"external": {
						"addressToAointFunded(address)": "2880",
						"fund()": "infinite",
						"funders(uint256)": "5044",
						"minimumUsd()": "2407",
						"owner()": "2536",
						"withdraw()": "infinite"
					}
				},
				"methodIdentifiers": {
					"addressToAointFunded(address)": "b8ee3585",
					"fund()": "b60d4288",
					"funders(uint256)": "dc0d3dff",
					"minimumUsd()": "098de820",
					"owner()": "8da5cb5b",
					"withdraw()": "3ccfd60b"
				}
			},
			"storageLayout": {
				"storage": [
					{
						"astId": 54,
						"contract": "storage-factory/contracts/FundMe.sol:FundMe",
						"label": "minimumUsd",
						"offset": 0,
						"slot": "0",
						"type": "t_uint256"
					},
					{
						"astId": 57,
						"contract": "storage-factory/contracts/FundMe.sol:FundMe",
						"label": "funders",
						"offset": 0,
						"slot": "1",
						"type": "t_array(t_address)dyn_storage"
					},
					{
						"astId": 61,
						"contract": "storage-factory/contracts/FundMe.sol:FundMe",
						"label": "addressToAointFunded",
						"offset": 0,
						"slot": "2",
						"type": "t_mapping(t_address,t_uint256)"
					},
					{
						"astId": 63,
						"contract": "storage-factory/contracts/FundMe.sol:FundMe",
						"label": "owner",
						"offset": 0,
						"slot": "3",
						"type": "t_address"
					}
				],
				"types": {
					"t_address": {
						"encoding": "inplace",
						"label": "address",
						"numberOfBytes": "20"
					},
					"t_array(t_address)dyn_storage": {
						"base": "t_address",
						"encoding": "dynamic_array",
						"label": "address[]",
						"numberOfBytes": "32"
					},
					"t_mapping(t_address,t_uint256)": {
						"encoding": "mapping",
						"key": "t_address",
						"label": "mapping(address => uint256)",
						"numberOfBytes": "32",
						"value": "t_uint256"
					},
					"t_uint256": {
						"encoding": "inplace",
						"label": "uint256",
						"numberOfBytes": "32"
					}
				}
			},
			"userdoc": {
				"kind": "user",
				"methods": {},
				"version": 1
			}
		}
	}
}